:100000000C945D000C9485000C9485000C94850084
:100010000C9485000C9485000C9485000C9485004C
:100020000C9485000C9485000C9485000C9485003C
:100030000C9485000C9485000C9485000C9485002C
:100040000C9463020C9485000C94D3020C94AD02C2
:100050000C9485000C9485000C9485000C9485000C
:100060000C9485000C94850000000008000201003B
:100070000003040700000000000000000000000072
:10008000250028002B0000000000240027002A0083
:10009000040404040404040402020202020203032E
:1000A0000303030301020408102040800102040836
:1000B0001020010204081020610411241FBECFEF9C
:1000C000D8E0DEBFCDBF11E0A0E0B1E0EAE7F9E0A3
:1000D00002C005900D92AC32B107D9F721E0ACE235
:1000E000B1E001C01D92A23DB207E1F710E0CDE5FD
:1000F000D0E004C02197FE010E94B004CC35D107A6
:10010000C9F70E9405030C94BB040C94000090E016
:10011000FC01EC55FF4F2491FC01E057FF4F849107
:10012000882399F090E0880F991FFC01EA57FF4F50
:10013000A591B491FC01E458FF4F859194918FB73C
:10014000F894EC91E22BEC938FBF089590E0FC01C2
:10015000E859FF4F3491FC01EC55FF4F2491FC010D
:10016000E057FF4FE491EE2309F43BC0332339F10C
:10017000333091F038F43130A9F0323001F584B5E4
:100180008F7D12C0373091F03830A1F03430B9F49F
:10019000809180008F7D03C0809180008F77809355
:1001A00080000DC084B58F7784BD09C08091B000F8
:1001B0008F7703C08091B0008F7D8093B000F0E016
:1001C000EE0FFF1FE458FF4FA591B4918FB7F8943D
:1001D000EC91611103C020952E2301C02E2B2C938E
:1001E0008FBF08953FB7F89480913101909132010B
:1001F000A0913301B091340126B5A89B05C02F3FD3
:1002000019F00196A11DB11D3FBFBA2FA92F982F3C
:100210008827820F911DA11DB11DBC01CD0142E0B7
:10022000660F771F881F991F4A95D1F70895CF92BF
:10023000DF92EF92FF920F931F93CF93DF936C01A6
:100240007A018B01C0E0D0E0CE15DF0589F0D8013E
:100250006D918D01D601ED91FC910190F081E02D21
:10026000C6010995892B11F47E0102C02196ECCFBD
:10027000C701DF91CF911F910F91FF90EF90DF9019
:10028000CF900895FC01918D828D981761F0828D39
:10029000DF01A80FB11D5D968C91928D9F5F9F73BA
:1002A000928F90E008958FEF9FEF0895FC01918D5C
:1002B000828D981731F0828DE80FF11D858D90E0C9
:1002C00008958FEF9FEF0895FC01918D228D892F66
:1002D00090E0805C9F4F821B91098F73992708954E
:1002E00085E391E00E94640121E0892B09F420E07C
:1002F000822F0895FC01848DDF01A80FB11DA35A40
:10030000BF4F2C91848D90E001968F739927848F35
:10031000A689B7892C93A089B1898C9180648C932C
:10032000938D848D981306C00288F389E02D808117
:100330008F7D80830895EF92FF920F931F93CF9349
:10034000DF93EC0181E0888F9B8D8C8D981305C025
:10035000E889F989808185FD24C0F62E0B8D10E097
:100360000F5F1F4F0F731127E02E8C8DE8120CC00A
:100370000FB607FCFACFE889F989808185FFF5CFB0
:10038000CE010E947A01F1CF8B8DFE01E80FF11DA5
:10039000E35AFF4FF0820B8FEA89FB8980818062EC
:1003A00007C0EE89FF896083E889F98980818064CC
:1003B000808381E090E0DF91CF911F910F91FF90BA
:1003C000EF900895CF93DF93EC01888D8823C9F0D7
:1003D000EA89FB89808185FD05C0A889B9898C914E
:1003E00086FD0FC00FB607FCF5CF808185FFF2CFE9
:1003F000A889B9898C9185FFEDCFCE010E947A0141
:10040000E7CFDF91CF91089580E090E0892B29F02C
:100410000E94700181110C9400000895009769F00A
:10042000FC0101900020E9F73197AF01481B590BFF
:10043000BC0185E391E00C94170180E090E0089501
:100440008F929F92AF92BF920F931F93CF93DF93A0
:10045000CDB7DEB7A1970FB6F894DEBF0FBECDBF04
:1004600019A2423008F44AE08E010F5D1F4F842E1E
:10047000912CA12CB12CA50194010E948E04E62F91
:10048000B901CA0101501109EA3014F4E05D01C05C
:10049000E95CD801EC93232B242B252B61F7C801B1
:1004A0000E940E02A1960FB6F894DEBF0FBECDBF1C
:1004B000DF91CF911F910F91BF90AF909F908F9040
:1004C00008950E94B6041F920F920FB60F92112446
:1004D0002F933F938F939F93AF93BF9380912D0161
:1004E00090912E01A0912F01B091300130912C01FB
:1004F00023E0230F2D3720F40196A11DB11D05C067
:1005000026E8230F0296A11DB11D20932C01809394
:100510002D0190932E01A0932F01B0933001809173
:10052000310190913201A0913301B09134010196D3
:10053000A11DB11D8093310190933201A09333012D
:10054000B0933401BF91AF919F918F913F912F91C3
:100550000F900FBE0F901F9018951F920F920FB61D
:100560000F9211242F933F934F935F936F937F9339
:100570008F939F93AF93BF93EF93FF9385E391E0A6
:100580000E947A01FF91EF91BF91AF919F918F915E
:100590007F916F915F914F913F912F910F900FBE7F
:1005A0000F901F9018951F920F920FB60F92112463
:1005B0002F938F939F93EF93FF93E0914501F091D9
:1005C00046018081E0914B01F0914C0182FD12C007
:1005D000908180914E018F5F8F7320914F01821720
:1005E00051F0E0914E01F0E0EB5CFE4F958F80936F
:1005F0004E0101C08081FF91EF919F918F912F91CA
:100600000F900FBE0F901F901895789484B582605C
:1006100084BD84B5816084BD85B5826085BD85B5A6
:10062000816085BD80916E00816080936E00109224
:10063000810080918100826080938100809181009F
:100640008160809381008091800081608093800030
:100650008091B10084608093B1008091B00081608E
:100660008093B00080917A00846080937A008091BA
:100670007A00826080937A0080917A008160809312
:100680007A0080917A00806880937A001092C1008D
:1006900083E00E94870084E00E94870085E00E943A
:1006A000870086E00E94870087E00E94870088E03C
:1006B0000E94870089E00E9487008AE00E948700EC
:1006C0008BE00E9487008CE00E948700E09145014A
:1006D000F091460182E08083E0914101F091420176
:1006E0001082E0914301F09144018FEC80831092DD
:1006F0004D01E0914901F0914A0186E08083E0914B
:100700004701F0914801808180618083E091470139
:10071000F0914801808188608083E0914701F091E9
:100720004801808180688083E0914701F091480111
:1007300080818F7D808313E410937C0080917A0008
:10074000806480937A0080917A0086FDFCCFC0910E
:10075000780080917900D0E0D82B80E191E00E9470
:100760000E026E010D2E000CEE08FF08D7FF16C01A
:10077000E0913501F09136010190F081E02D6DE2BC
:1007800085E391E0099588279927DC018C199D095B
:10079000AE09BF094AE0BC01CD0103C04AE0C70170
:1007A000B6010E9420028CE191E00E940E0242E01C
:1007B000C701B6010E94200289E291E00E940E0268
:1007C00061E08DE00E94A600BE01617077278CE099
:1007D0000E94A600BE017695679561708BE00E942D
:1007E000A600BE01769567957695679561708AE05B
:1007F0000E94A600BE0123E0769567952A95E1F751
:10080000617089E00E94A600BE0134E0769567958C
:100810003A95E1F7617088E00E94A600BE0145E0CC
:10082000769567954A95E1F7617087E00E94A6008A
:10083000BE0156E0769567955A95E1F7617086E0BE
:100840000E94A600BE01660F672F661F770B719589
:10085000617085E00E94A6006D2F617084E00E94A7
:10086000A6006D2F6695617083E00E94A6000E942D
:10087000F2004B015C01F4EFCF2EDD24D394E12C88
:10088000F12C0E94F200DC01CB0188199909AA0918
:10089000BB09883E9340A105B10558F021E0C21A7A
:1008A000D108E108F10888EE880E83E0981EA11CAB
:1008B000B11CC114D104E104F10419F70E9404022F
:1008C0003BCFE5E3F1E01382128288EE93E0A0E0F3
:1008D000B0E084839583A683B78384E091E091831D
:1008E000808385EC90E09587848784EC90E09787FF
:1008F000868780EC90E0918B808B81EC90E0938BED
:10090000828B82EC90E0958B848B86EC90E0978BC9
:10091000868B118E128E138E148E0895A1E21A2EDC
:10092000AA1BBB1BFD010DC0AA1FBB1FEE1FFF1F93
:10093000A217B307E407F50720F0A21BB30BE40BE3
:10094000F50B661F771F881F991F1A9469F760952A
:100950007095809590959B01AC01BD01CF010895E4
:10096000EE0FFF1F0590F491E02D099481E090E0D7
:0A097000F8940C94BB04F894FFCF38
:10097A00000000009B011701640142015601E201D7
:10098A00446563696D616C74203D200009204269E9
:0C099A006E61657274203D20000D0A00A3
:00000001FF
