:100000000C9467000C948F000C948F000C948F005C
:100010000C948F000C948F000C948F000C948F0024
:100020000C948F000C948F000C948F000C948F0014
:100030000C948F000C948F000C948F000C948F0004
:100040000C948F020C948F000C948F000C948F00F2
:100050000C948F000C948F000C948F000C948F00E4
:100060000C94D9020C948F00D605DD05E905FA053C
:10007000FC0503060F0620063606380600000008B9
:10008000000201000003040700000000000000005F
:1000900000000000250028002B00000000002400C4
:1000A00027002A00040404040404040402020202D7
:1000B000020203030303030301020408102040802B
:1000C000010204081020010204081020990A1124DA
:1000D0001FBECFEFD8E0DEBFCDBF11E0A0E0B1E0A2
:1000E000E6EFF6E102C005900D92AA3CB107D9F700
:1000F00022E0AAECB1E001C01D92A73AB207E1F7F5
:1001000010E0C7E6D0E004C02197FE010E94440B36
:10011000C636D107C9F70E94FA060C94790B0C94E5
:100120000000CF92DF92EF92FF920F931F93CF9335
:10013000DF936C017A018B01C0E0D0E0CE15DF05C2
:1001400089F0D8016D918D01D601ED91FC9101905E
:10015000F081E02DC6010995892B11F47E0102C0C2
:100160002196ECCFC701DF91CF911F910F91FF90A6
:10017000EF90DF90CF90089585ED8093BC00809143
:10018000BC0084FDFCCF10925B02089540911002E8
:10019000262F30E0240F311D21323105DCF420916F
:1001A0005B022430C9F4FC0180E090E0861758F42B
:1001B000309110022191DC01A251BE4FA30FB11D5D
:1001C0002C930196F3CF80911002680F6093100278
:1001D00080E0089581E0089582E00895089581E027
:1001E00090E030915F0220915E02321710F480E0BF
:1001F00090E0919581959109089580915F02909189
:100200005E02891730F48F5F80935F0280E090E098
:1002100008958FEF9FEF089580915E0290E0209106
:100220005F02821B91090895CF92DF92EF92FF92B5
:100230000F931F93CF93DF937C01262F972F8A0173
:100240008091ED01882391F0C62FD72F6E01C40E47
:10025000D51ECC15DD0571F06991D701ED91FC91AA
:100260000190F081E02DC7010995F3CF642F822F13
:100270000E94C600C801DF91CF911F910F91FF909E
:10028000EF90DF90CF900895CF93DF931F92CDB77B
:10029000DEB769832091ED012223D1F020915C0229
:1002A000203240F021E030E0FC013383228380E003
:1002B00090E015C080915D02E82FF0E0E353FE4F1F
:1002C000998190838F5F80935D0280935C0205C06B
:1002D00061E0CE0101960E94C60081E090E00F909F
:1002E000DF91CF910895CF93FC01C48121E0209349
:1002F000ED01C093CC0110925D0210925C028385E7
:10030000682B85E792E00E94440180915C02813273
:1003100008F046C090915B029111FCCF92E090935F
:100320005B0291E090935A029FEF909335021092F6
:10033000570280935602ADECB1E026E332E0F901BA
:100340009E2F921B981718F49D919193F9CF1092BC
:10035000580280915802CC0FC82BC093580280914C
:100360005902813061F410925902809158028093B1
:10037000BB008091BC0083FDF8CF85EC01C085EE09
:100380008093BC0080915B028230E1F38091350262
:100390008F3F31F080913502803211F0809135022B
:1003A00010925D0210925C021092ED01CF910895BF
:1003B0000F931F93CF938C01C62F0E9473016C2F54
:1003C0006460C8010E9473016C2F6B7FC8010E949A
:1003D000730183EC90E00197F1F7CF911F910F919A
:1003E000089580E480937C0080917A0080648093FB
:1003F0007A0080917A0086FDFCCF80917800209170
:10040000790090E0922B9093CB018093CA01893EB2
:1004100023E092078CF4823391058CF0833C9105A4
:100420008CF08C3721E0920784F08B3222E0920727
:100430007CF0863193407CF085E090E0089580E088
:1004400090E0089581E090E0089582E090E00895C2
:1004500083E090E0089584E090E008950E94740B9A
:100460003FB7F8948091710290917202A09173024B
:10047000B091740226B5A89B05C02F3F19F00196D4
:10048000A11DB11D3FBFBA2FA92F982F8827820F1A
:10049000911DA11DB11DBC01CD0142E0660F771F6A
:1004A000881F991F4A95D1F708958F929F92AF9216
:1004B000BF92CF92DF92EF92FF926B017C010E947C
:1004C00030024B015C01C114D104E104F104F1F0EC
:1004D0000E943002DC01CB0188199909AA09BB09E5
:1004E000883E9340A105B10570F321E0C21AD108FE
:1004F000E108F10888EE880E83E0981EA11CB11C6B
:10050000C114D104E104F10419F7DDCFFF90EF909D
:10051000DF90CF90BF90AF909F908F9008951F92E3
:100520000F920FB60F9211242F933F938F939F93A7
:10053000AF93BF9380916D0290916E02A0916F0274
:10054000B091700230916C0223E0230F2D3720F41C
:100550000196A11DB11D05C026E8230F0296A11D1D
:10056000B11D20936C0280936D0290936E02A09354
:100570006F02B09370028091710290917202A0910B
:100580007302B09174020196A11DB11D8093710296
:1005900090937202A0937302B0937402BF91AF91D3
:1005A0009F918F913F912F910F900FBE0F901F90B1
:1005B00018951F920F920FB60F9211242F933F930D
:1005C0004F935F936F937F938F939F93AF93BF935B
:1005D000EF93FF938091B900887F803609F49CC027
:1005E00068F5883209F45BC090F4803109F454C096
:1005F00038F4882309F4F6C0883009F44DC0F6C0F9
:10060000883109F44CC0803209F45DC0EFC08034F9
:1006100009F468C048F4803309F455C0883309F000
:10062000E5C080933502D8C0803509F44FC08835C5
:1006300009F45DC0883409F0D9C0D6C0883909F4FE
:10064000C7C0A8F4883709F467C038F4883609F4BD
:1006500063C0803709F460C0C9C0883809F4B8C0E5
:10066000803909F45FC0803809F0C0C05BC0803BAE
:1006700009F486C038F4803A09F466C0883A09F46F
:100680007FC0B4C0803C09F4A7C0883C09F4A4C072
:10069000883B09F48AC0AAC08091580210C090918A
:1006A000570280915602981770F5E091570281E049
:1006B0008E0F80935702F0E0EA5CFD4F80818093BB
:1006C000BB0085EC86C0809335028EC0E091570256
:1006D00081E08E0F809357028091BB00F0E0EA5CCE
:1006E000FD4F808390915702809156026EC0E09139
:1006F000570281E08E0F809357028091BB00F0E09B
:10070000EA5CFD4F808380915A0281116DC081E0C7
:100710008093590284EA61C083E080935B02109267
:100720003402CFCF80913402803208F051C0E09182
:10073000340281E08E0F809334028091BB00F0E0A0
:10074000EC5EFD4F8083BDCF85EC8093BC001092A2
:100750005B0280913402803230F4E0913402F0E0A8
:10076000EC5EFD4F10826091340270E0E091120265
:10077000F091130284E192E009951092340236C0A0
:1007800084E080935B021092110210921002E091BB
:100790000E02F0910F02099580911002811105C09F
:1007A00081E0809310021092EE01E091110281E04D
:1007B0008E0F80931102F0E0E251FE4F8081809312
:1007C000BB009091110280911002981708F479CF24
:1007D00085E88093BC000AC085EC8093BC00109231
:1007E0005B0204C0109235020E94BC00FF91EF91A1
:1007F000BF91AF919F918F917F916F915F914F9139
:100800003F912F910F900FBE0F901F901895FF9260
:100810000F931F93CF93DF931F92CDB7DEB78C0159
:10082000F62E962F907F692F642BC80149830E9472
:10083000D80180E1F89EB00111244981642BC801E0
:100840000F90DF91CF911F910F91FF900C94D801E1
:1008500041E00E94070481E090E00895009769F06C
:10086000FC0101900020E9F73197AF01481B590BBB
:10087000BC018BE992E00C94910080E090E0089537
:1008800090E0FC01E854FF4F2491FC01EC55FF4F30
:100890008491882399F090E0880F991FFC01E65617
:1008A000FF4FA591B491FC01E057FF4F85919491C2
:1008B0008FB7F894EC91E22BEC938FBF08950C94D2
:1008C0002E04CF93DF93CDB7DEB728970FB6F894F9
:1008D000DEBF0FBECDBF28E0E8E0F1E0DE011196FB
:1008E00001900D922A95E1F72091A302261710F4AA
:1008F0006FEF620FFE013196E60FF11DE60FF11D5D
:100900009081682F690F606840E08BE992E028963B
:100910000FB6F894DEBF0FBECDBFDF91CF910C9420
:1009200007048F929F92AF92BF92CF92DF92EF9285
:10093000FF920F931F93CF93DF93CDB7DEB7A197AD
:100940000FB6F894DEBF0FBECDBF6B017C0197FFE1
:1009500031C0E0919B02F0919C020190F081E02D6A
:100960006DE28BE992E009958C0122273327A901DA
:100970002C193D094E095F0919A2CE0181967C010F
:100980009AE0892E912CA12CB12CCA01B901A501A4
:1009900094010E94030B605DF70162937F012115B2
:1009A00031054105510589F7CF010E942E04800FC2
:1009B000911F1DC09B01AC0119A28E010F5D1F4F3D
:1009C0008AE0C82ED12CE12CF12CCA01B901A70173
:1009D00096010E94030B605DF80162938F0121155F
:1009E00031054105510589F7CF010E942E04A196DA
:1009F0000FB6F894DEBF0FBECDBFDF91CF911F9130
:100A00000F91FF90EF90DF90CF90BF90AF909F90AD
:100A10008F90089590E0FC01E458FF4F3491FC0161
:100A2000E854FF4F2491FC01EC55FF4FE491EE2375
:100A300009F43BC0332339F1333091F038F43130CD
:100A4000A9F0323001F584B58F7D12C0373091F0B6
:100A50003830A1F03430B9F4809180008F7D03C02C
:100A6000809180008F77809380000DC084B58F7750
:100A700084BD09C08091B0008F7703C08091B00021
:100A80008F7D8093B000F0E0EE0FFF1FE057FF4F27
:100A9000A591B4918FB7F894EC91611103C02095A2
:100AA0002E2301C02E2B2C938FBF0895CF93DF935D
:100AB000EC018091890290918A02029709F5C13078
:100AC000D10569F024F42097D9F460E009C0C23060
:100AD000D10561F0C330D10599F460E008C061E050
:100AE00080918D020E940A0561E006C061E080915C
:100AF0008D020E940A0560E080918F020E940A0523
:100B00008091890290918A02049709F03FC0C13018
:100B1000D105B9F04CF42097C9F561E080918D02C0
:100B20000E940A0560E013C0C230D105D9F0C3307D
:100B3000D10561F561E080918D020E940A0560E0B7
:100B400017C060E080918D020E940A0561E08091EB
:100B50008F020E940A0561E0809191020E940A05BD
:100B600060E010C060E080918D020E940A0561E0A3
:100B700080918F020E940A0560E0809191020E949C
:100B80000A0561E0809193020E940A058091890222
:100B900090918A02059709F086C0CA30D10508F005
:100BA00082C0FE01EC5CFF4F0C94440B60E080912E
:100BB0008D020E940A0561E061C060E080918D02B3
:100BC0000E940A0561E080918F020E940A0560E0A0
:100BD0005AC060E080918D020E940A0561E0809118
:100BE0008F020E940A0560E0809191020E940A052E
:100BF00061E04EC060E001C061E080918D020E9422
:100C00000A0561E006C061E080918D020E940A053C
:100C100060E080918F020E940A0560E00BC061E0F5
:100C200080918D020E940A0560E080918F020E94EF
:100C30000A0561E0809191020E940A0561E010C0FE
:100C400061E080918D020E940A0560E080918F0230
:100C50000E940A0561E0809191020E940A0560E00D
:100C6000809193020E940A0560E017C061E001C014
:100C700060E080918D020E940A0560E080918F0201
:100C80000E940A0561E0809191020E940A0560E0DD
:100C9000809193020E940A0561E080919502DF91A4
:100CA000CF910C940A05DF91CF9108954F925F92F6
:100CB0006F927F928F929F92AF92BF92EF92FF922C
:100CC0000F931F93CF93DF93EC0197FF04C0CC27C2
:100CD000DD27C81BD90B181619063CF481E090E0FB
:100CE000909382028093810206C0892B21F010929A
:100CF00082021092810204E010E08AE0E82EF12CDA
:100D0000209709F468C00E9430028090970290906A
:100D10009802A0909902B0909A022B013C014818C9
:100D200059086A087B088090830290908402A09002
:100D30008502B0908602481459046A047B0400F3CB
:100D400060939702709398028093990290939A020D
:100D5000209181023091820280918B0290918C02CD
:100D60002130310589F4019690938C0280938B0297
:100D7000209187023091880282179307C1F4109264
:100D80008C0210928B0213C0892B41F48091870250
:100D90009091880290938C0280938B0280918B02B9
:100DA00090918C02019790938C0280938B022197F3
:100DB0002091890230918A0280918B0290918C025D
:100DC0002530310511F4B70101C0B8010E94EF0AC6
:100DD0000E94560595CFDF91CF911F910F91FF9003
:100DE000EF90BF90AF909F908F907F906F905F90AB
:100DF0004F900895789484B5826084BD84B58160F5
:100E000084BD85B5826085BD85B5816085BD8091D5
:100E10006E00816080936E0010928100809181004D
:100E20008260809381008091810081608093810045
:100E3000809180008160809380008091B100846007
:100E40008093B1008091B00081608093B000809168
:100E50007A00846080937A0080917A008260809327
:100E60007A0080917A00816080937A0080917A0084
:100E7000806880937A001092C10010925F021092F5
:100E80005E0210925D0210925C0210925B0281E0A1
:100E900080935A021092590261E082E10E940A0591
:100EA00061E083E10E940A058091B9008E7F809302
:100EB000B9008091B9008D7F8093B90088E4809358
:100EC000B80085E48093BC001092A0028091A50236
:100ED000823018F098E09093A0028093A30262E31E
:100EE00070E080E090E00E9455026091A6028BE9DC
:100EF00092E00E94730168EE73E080E090E00E944F
:100F0000550260E38BE992E00E94D801CBE4D6E47D
:100F1000CE010197F1F760E38BE992E00E94D801DE
:100F20002197F1F760E38BE992E00E94D80183E515
:100F300092E00197F1F760E28BE992E00E94D8011C
:100F40006091A002606240E08BE992E00E94070499
:100F500084E08093A10240E06CE08BE992E00E9483
:100F6000070440E061E08BE992E00E940704CBE3D4
:100F7000DFE1CE010197F1F782E08093A20240E029
:100F800066E08BE992E00E94070440E062E08BE9B2
:100F900092E00E9407042197F1F788E08093A6026F
:100FA00060E08BE992E00E9473018DE00E944004B2
:100FB00061E08DE00E940A0560E080E00E9461042B
:100FC00088E291E00E945F0461E080E00E94610499
:100FD00089E391E00E945F042091870230918802AA
:100FE000032E000C440B550B60E077E883E993E097
:100FF0000E94250BCA01B90129E030E040E050E031
:101000000E94250B20938302309384024093850233
:10101000509386028091040190910501892B09F477
:1010200050C00E94F10190936B0280936A0283305A
:10103000910599F084309105C9F1892B59F7C09138
:101040000601D09107011C161D06CCF480E79EEF27
:101050000E945606C059D1400EC0C0910601D091E1
:101060000701C11520E7D20754F480E991E00E94FE
:101070005606C057DE4FD0930701C093060161E0CA
:1010800080E00E94610488E491E00E945F0461E0D6
:1010900085E00E9461046091060170910701072EAE
:1010A000000C880B990B0E94910404C0109205015A
:1010B000109204016AEF70E080E090E00E94550217
:1010C000A9CF81E090E0909305018093040160E056
:1010D00080E00E94610489E591E00E945F0461E084
:1010E00080E00E94610489E391E00E945F048091A6
:1010F0000601909107019093030180930201809172
:10110000040190910501892B09F450C00E94F1015E
:1011100090936B0280936A028330910599F084303A
:101120009105C9F1892B59F7C0910201D0910301B2
:101130001C161D06CCF480E79EEF0E945606C0598F
:10114000D1400EC0C0910201D0910301C11540E70A
:10115000D40754F480E991E00E945606C057DE4F50
:10116000D0930301C093020161E080E00E9461041A
:1011700088E491E00E945F0461E085E00E946104E0
:101180006091020170910301072E000C880B990BEE
:101190000E94910404C010920501109204016AEFAC
:1011A00070E080E090E00E945502A9CF81E090E0DD
:1011B000909305018093040160E080E00E94610447
:1011C0008AE691E00E945F0461E080E00E94610491
:1011D0008BE791E00E945F048091040190910501EA
:1011E000892B09F467C00E94F10190936B028093F0
:1011F0006A0261E080E00E9461048CE891E00E9454
:101200005F0461E080E00E946104609100017091E0
:101210000101072E000C880B990B0E94910462E3D8
:1012200070E080E090E00E94550280916A02909107
:101230006B0283309105E9F08430910581F1892BAF
:1012400059F680910001909101018E31910514F4BD
:1012500005960AC08837910514F40F9605C0803DA5
:1012600052E0950704F54E9690930101809300019A
:101270001AC080910001909101019C012150310917
:101280002232310510F40597EFCF2539310510F4DE
:101290000F97EACF243D324030F44E97E5CF1092BD
:1012A0000501109204016AEF70E080E090E00E9476
:1012B000550292CFA0910001B091010120E63AEED3
:1012C0000E944A0B609366027093670280936802E3
:1012D0009093690260E080E00E94610488E991E0F7
:1012E0000E945F0461E080E00E94610488EA91E06E
:1012F0000E945F042091060130910701C091020114
:10130000D09103016091660270916702809168023A
:1013100090916902C217D3070CF071C0A9014C1B50
:101320005D0BEA015093650240936402509363029F
:10133000409362029A01550F440B550B0E94250BF6
:101340003093610220936002CE010E94560690E61F
:10135000892E9AEE992EA12CB12C80916202909147
:101360006302892B09F446C08FEF9FEF0E94560657
:101370008091600290916102092E000CAA0BBB0BB8
:10138000C0906602D0906702E0906802F090690217
:10139000C81AD90AEA0AFB0AC0926602D09267020A
:1013A000E0926802F092690261E080E00E946104CC
:1013B000C701B601A50194010E94250BCA01B9011C
:1013C0006F5F7F4F8F4F9F4F0E9491048091620209
:1013D00090916302019790936302809362026091FF
:1013E000600270916102072E000C880B990B0E941D
:1013F0005502B3CF10920501109204016DC0C21BBB
:10140000D30BD0936502C0936402D0936302C09360
:1014100062029E010D2E000C440B550B0E94250B01
:101420003093610220936002882799278C1B9D0BC3
:101430000E94560680E6882E8AEE982EA12CB12CAA
:101440008091620290916302892BA1F281E090E089
:101450000E9456068091600290916102092E000C54
:10146000AA0BBB0BC0906602D0906702E0906802A6
:10147000F0906902C81AD90AEA0AFB0AC092660209
:10148000D0926702E0926802F092690261E080E027
:101490000E946104C701B601A50194010E94250BB9
:1014A000CA01B9016F5F7F4F8F4F9F4F0E94910418
:1014B00080916202909163020197909363028093FE
:1014C00062026091600270916102072E000C880B2D
:1014D000990B0E945502B4CF60E080E00E94610445
:1014E0008BE791E00E945F0461E080E00E9461046C
:1014F00089EB91E00E945F0464EF71E080E090E08E
:101500000E94550260E080E00E94610489EB91E056
:101510000E945F0461E080E00E9461048BE791E03B
:101520000E945F0464EF71E080E090E00E94550249
:10153000D3CF0F931F93CF93DF93E5E7F2E01382AE
:10154000128288EE93E0A0E0B0E084839583A683C6
:10155000B78384E191E091838083EBE9F2E0138229
:10156000128284E291E09183808387E2848380E128
:10157000818782E082871386C1E8D2E01B861A86C3
:10158000198218821E8A1F8A188E198E80E098E0B0
:101590009F838E8304E010E01D870C8785E090E038
:1015A0009F878E8786E090E0998B888B87E090E01C
:1015B0009B8B8A8B84E00E9440048E850E944004AD
:1015C00088890E9440048A890E9440041D8A1C8ADE
:1015D00019870887DF91CF911F910F91089597FB8D
:1015E000072E16F4009407D077FD09D00E94510B06
:1015F00007FC05D03EF4909581959F4F0895709516
:1016000061957F4F0895A1E21A2EAA1BBB1BFD0115
:101610000DC0AA1FBB1FEE1FFF1FA217B307E407D1
:10162000F50720F0A21BB30BE40BF50B661F771F29
:10163000881F991F1A9469F7609570958095909509
:101640009B01AC01BD01CF010895052E97FB1EF44F
:1016500000940E943C0B57FD07D00E94030B07FC2F
:1016600003D04EF40C943C0B509540953095219549
:101670003F4F4F4F5F4F08959095809570956195BE
:101680007F4F8F4F9F4F0895EE0FFF1F0590F491EE
:10169000E02D09940E94650BB7FF0895821B930B00
:1016A0000895AA1BBB1B51E107C0AA1FBB1FA617A9
:1016B000B70710F0A61BB70B881F991F5A95A9F7FB
:1016C00080959095BC01CD010895A29FB001B39F74
:1016D000C001A39F700D811D1124911DB29F700D3B
:1016E000811D1124911D089581E090E0F8940C94DF
:0616F000790BF894FFCF16
:1016F6000500E40C0100003800004000140054000E
:1017060000000000440114010C01FD00EF00EE0092
:101716000000000028049100537461727420616E09
:10172600676C65204C2F52200053656C20746F2027
:10173600636F6E6669726D00706F733A20202020A9
:10174600202020202020202000456E6420616E6726
:101756006C65204C2F522020200052756E20746933
:101766006D653A204C2F522020200020202020207A
:101776002020202020202020202020002020202083
:101786006D696E757465730050726F6772616D2056
:1017960052756E6E696E6700202020204D696E7549
:1017A600746573204C6566740050726F6772616D64
:0A17B60020436F6D706C65746500D0
:00000001FF
