:100000000C9435000C940B020C94E4010C945D00EC
:100010000C945D000C945D000C945D000C945D00EC
:100020000C945D000C945D000C945D000C945D00DC
:100030000C945D000C945D000C945D000C945D00CC
:100040000C949A010C945D000C9458020C943202AA
:100050000C945D000C945D000C945D000C945D00AC
:100060000C945D000C945D00A70311241FBECFEF1C
:10007000D8E0DEBFCDBF11E0A0E0B1E0E6E0F8E0FF
:1000800002C005900D92AC31B107D9F721E0ACE187
:10009000B1E001C01D92A43CB207E1F710E0C5E356
:1000A000D0E004C02197FE010E94F603C433D107BB
:1000B000C9F70E948A020C9401040C9400003FB717
:1000C000F8948091230190912401A0912501B09191
:1000D000260126B5A89B05C02F3F19F00196A11D4A
:1000E000B11D3FBFBA2FA92F982F8827820F911DCE
:1000F000A11DB11DBC01CD0142E0660F771F881F15
:10010000991F4A95D1F708950895CF92DF92EF9203
:10011000FF920F931F93CF93DF936C017A018B01B2
:10012000C0E0D0E0CE15DF0589F0D8016D918D01DA
:10013000D601ED91FC910190F081E02DC601099569
:10014000892B11F47E0102C02196ECCFC701DF910B
:10015000CF911F910F91FF90EF90DF90CF90089576
:1001600080911C0190911D01019690931D01809337
:100170001C010895FC01918D828D981761F0828D8C
:10018000DF01A80FB11D5D968C91928D9F5F9F73CB
:10019000928F90E008958FEF9FEF0895FC01918D6D
:1001A000828D981731F0828DE80FF11D858D90E0DA
:1001B00008958FEF9FEF0895FC01918D228D892F77
:1001C00090E0805C9F4F821B91098F73992708955F
:1001D00087E291E00E94DC0021E0892B09F420E015
:1001E000822F0895FC01848DDF01A80FB11DA35A51
:1001F000BF4F2C91848D90E001968F739927848F47
:10020000A689B7892C93A089B1898C9180648C933D
:10021000938D848D981306C00288F389E02D808128
:100220008F7D80830895EF92FF920F931F93CF935A
:10023000DF93EC0181E0888F9B8D8C8D981305C036
:10024000E889F989808185FD24C0F62E0B8D10E0A8
:100250000F5F1F4F0F731127E02E8C8DE8120CC01B
:100260000FB607FCFACFE889F989808185FFF5CFC1
:10027000CE010E94F200F1CF8B8DFE01E80FF11D3F
:10028000E35AFF4FF0820B8FEA89FB8980818062FD
:1002900007C0EE89FF896083E889F98980818064DD
:1002A000808381E090E0DF91CF911F910F91FF90CB
:1002B000EF900895CF93DF93EC01888D8823C9F0E8
:1002C000EA89FB89808185FD05C0A889B9898C915F
:1002D00086FD0FC00FB607FCF5CF808185FFF2CFFA
:1002E000A889B9898C9185FFEDCFCE010E94F200DB
:1002F000E7CFDF91CF91089580E090E0892B29F03E
:100300000E94E80081110C9400000895009769F0A4
:10031000FC0101900020E9F73197AF01481B590B10
:10032000BC0187E291E00C94850080E090E00895A4
:100330000E94FC031F920F920FB60F9211242F936D
:100340003F938F939F93AF93BF9380911F019091A1
:100350002001A0912101B091220130911E0123E0E2
:10036000230F2D3720F40196A11DB11D05C026E8ED
:10037000230F0296A11DB11D20931E0180931F0122
:1003800090932001A0932101B09322018091230139
:1003900090912401A0912501B09126010196A11D03
:1003A000B11D8093230190932401A0932501B09364
:1003B0002601BF91AF919F918F913F912F910F9007
:1003C0000FBE0F901F9018951F920F920FB60F92AD
:1003D00011242F933F934F935F936F937F938F934A
:1003E0009F93AF93BF93EF93FF93E0910201F0913E
:1003F00003010995FF91EF91BF91AF919F918F916B
:100400007F916F915F914F913F912F910F900FBE10
:100410000F901F9018951F920F920FB60F921124F4
:100420002F933F934F935F936F937F938F939F93FC
:10043000AF93BF93EF93FF93E0910001F09101011F
:100440000995FF91EF91BF91AF919F918F917F910E
:100450006F915F914F913F912F910F900FBE0F9031
:100460001F9018951F920F920FB60F9211242F9381
:100470003F934F935F936F937F938F939F93AF932C
:10048000BF93EF93FF9387E291E00E94F200FF9108
:10049000EF91BF91AF919F918F917F916F915F91FC
:1004A0004F913F912F910F900FBE0F901F90189575
:1004B0001F920F920FB60F9211242F938F939F9339
:1004C000EF93FF93E0913701F09138018081E09143
:1004D0003D01F0913E0182FD12C09081809140016A
:1004E0008F5F8F7320914101821751F0E09140019D
:1004F000F0E0E95DFE4F958F8093400101C080815F
:10050000FF91EF919F918F912F910F900FBE0F90C0
:100510001F901895CF93DF93CDB7DEB7A1970FB695
:10052000F894DEBF0FBECDBF789484B5826084BDE1
:1005300084B5816084BD85B5826085BD85B58160E7
:1005400085BD80916E00816080936E001092810065
:100550008091810082608093810080918100816020
:1005600080938100809180008160809380008091E1
:10057000B10084608093B1008091B000816080936D
:10058000B00080917A00846080937A0080917A0034
:10059000826080937A0080917A00816080937A00F3
:1005A00080917A00806880937A001092C100E09177
:1005B0003701F091380182E08083E0913701F091BA
:1005C00038011082E0913301F09134011082E09102
:1005D0003501F091360180E1808310923F01E09176
:1005E0003B01F0913C0186E08083E0913901F0917C
:1005F0003A01808180618083E0913901F0913A0174
:10060000808188608083E0913901F0913A01808196
:1006100080688083E0913901F0913A0180818F7D7B
:10062000808380EB90E090930101809300018091A2
:100630006900836080936900E89A9CE0392E2AE083
:10064000822E912CA12CB12C0E945F002B013C0129
:1006500087EEC82E83E0D82EE12CF12C0E945F009B
:10066000DC01CB0184199509A609B709883E93409E
:10067000A105B10558F021E0C21AD108E108F1083E
:1006800088EE480E83E0581E611C711CC114D10411
:10069000E104F10419F780911C0190911D01389E2D
:1006A0006001399ED00C11240D2C000CEE08FF08BF
:1006B000F7FE26C0E0912701F09128010190F0811A
:1006C000E02D6DE287E291E0099522273327A90109
:1006D0002C193D094E095F0919A28E010F5D1F4FAC
:1006E000CA01B901A50194010E94D403605DF8011B
:1006F00062938F01211531054105510589F715C018
:10070000A701960119A28E010F5D1F4FCA01B90101
:10071000A50194010E94D403605DF80162938F01EA
:10072000211531054105510589F7C8010E9486014F
:1007300084E191E00E94860189E191E00E948601B6
:1007400010921D0110921C010E947C017DCFE7E2F6
:10075000F1E01382128288EE93E0A0E0B0E084839F
:100760009583A683B78388E091E09183808385ECAD
:1007700090E09587848784EC90E09787868780EC6B
:1007800090E0918B808B81EC90E0938B828B82EC5C
:1007900090E0958B848B86EC90E0978B868B118E06
:1007A000128E138E148E0895A1E21A2EAA1BBB1B63
:1007B000FD010DC0AA1FBB1FEE1FFF1FA217B3072D
:1007C000E407F50720F0A21BB30BE40BF50B661F43
:1007D000771F881F991F1A9469F760957095809507
:1007E00090959B01AC01BD01CF010895EE0FFF1F55
:1007F0000590F491E02D099481E090E0F8940C9438
:060800000104F894FFCF93
:10080600840084000000000013018500DC00BA00AB
:0C081600CE005A012052504D000D0A0087
:00000001FF
