:100000000C9467000C9484000C9484000C9484007D
:100010000C9484000C9484000C9484000C94840050
:100020000C9484000C9484000C9484000C94840040
:100030000C9484000C9484000C9484000C94840030
:100040000C94F2020C9484000C9484000C948400B0
:100050000C9484000C9484000C9484000C94840010
:100060000C9484000C948400710178018401950142
:1000700097019E01AA01BB01D101D3010000000834
:10008000000201000003040700000000000000005F
:1000900000000000250028002B00000000002400C4
:1000A00027002A00040404040404040402020202D7
:1000B000020203030303030301020408102040802B
:1000C000010204081020010204081020B0031124CA
:1000D0001FBECFEFD8E0DEBFCDBF21E0A0E0B1E092
:1000E00001C01D92A332B207E1F710E0C7E6D0E0ED
:1000F00004C02197FE010E941804C636D107C9F733
:100100000E943C030C9454040C94000090E0FC0109
:10011000E854FF4F2491FC01EC55FF4F8491882354
:1001200099F090E0880F991FFC01E656FF4FA591CA
:10013000B491FC01E057FF4F859194918FB7F894EB
:10014000EC91E22BEC938FBF089590E0FC01E45812
:10015000FF4F3491FC01E854FF4F2491FC01EC5512
:10016000FF4FE491EE2309F43BC0332339F13330E0
:1001700091F038F43130A9F0323001F584B58F7D3B
:1001800012C0373091F03830A1F03430B9F480919A
:1001900080008F7D03C0809180008F7780938000E6
:1001A0000DC084B58F7784BD09C08091B0008F7772
:1001B00003C08091B0008F7D8093B000F0E0EE0F1F
:1001C000FF1FE057FF4FA591B4918FB7F894EC91C2
:1001D000611103C020952E2301C02E2B2C938FBFBD
:1001E0000895CF93DF93EC0180911101909112015A
:1001F000029709F5C130D10569F024F42097D9F4AC
:1002000060E009C0C230D10561F0C330D10599F476
:1002100060E008C061E0809115010E94A50061E0E6
:1002200006C061E0809115010E94A50060E0809108
:1002300017010E94A500809111019091120104976D
:1002400009F03FC0C130D105B9F04CF42097C9F591
:1002500061E0809115010E94A50060E013C0C230EA
:10026000D105D9F0C330D10561F561E08091150168
:100270000E94A50060E017C060E0809115010E9417
:10028000A50061E0809117010E94A50061E08091C6
:1002900019010E94A50060E010C060E08091150186
:1002A0000E94A50061E0809117010E94A50060E016
:1002B000809119010E94A50061E080911B010E94BC
:1002C000A5008091110190911201059709F086C057
:1002D000CA30D10508F082C0FE01EC5CFF4F0C94DF
:1002E000180460E0809115010E94A50061E061C0E2
:1002F00060E0809115010E94A50061E080911701E6
:100300000E94A50060E05AC060E0809115010E9443
:10031000A50061E0809117010E94A50060E0809136
:1003200019010E94A50061E04EC060E001C061E0DB
:10033000809115010E94A50061E006C061E08091F6
:1003400015010E94A50060E0809117010E94A500A0
:1003500060E00BC061E0809115010E94A50060E0A3
:10036000809117010E94A50061E0809119010E940F
:10037000A50061E010C061E0809115010E94A50018
:1003800060E0809117010E94A50061E08091190151
:100390000E94A50060E080911B010E94A50060E022
:1003A00017C061E001C060E0809115010E94A500C6
:1003B00060E0809117010E94A50061E08091190121
:1003C0000E94A50060E080911B010E94A50061E0F1
:1003D00080911D01DF91CF910C94A500DF91CF9109
:1003E00008953FB7F8948091050190910601A0917E
:1003F0000701B091080126B5A89B05C02F3F19F051
:100400000196A11DB11D3FBFBA2FA92F982F882794
:10041000820F911DA11DB11DBC01CD0142E0660FEF
:10042000771F881F991F4A95D1F708958F929F9241
:10043000AF92BF92CF92DF92EF92FF920E94F101B2
:100440004B015C0184EFC82EDD24D394E12CF12C08
:100450000E94F101DC01CB0188199909AA09BB09A5
:10046000883E9340A105B10558F021E0C21AD10899
:10047000E108F10888EE880E83E0981EA11CB11CEB
:10048000C114D104E104F10419F7FF90EF90DF905B
:10049000CF90BF90AF909F908F9008954F925F92B2
:1004A0006F927F928F929F92AF92BF92EF92FF9244
:1004B0000F931F93CF93DF93EC0197FF04C0CC27DA
:1004C000DD27C81BD90B181619063CF481E090E013
:1004D00090930A018093090106C0892B21F01092A4
:1004E0000A011092090104E010E08AE0E82EF12CE4
:1004F000209709F468C00E94F10180901F0190903C
:100500002001A0902101B09022012B013C0148184C
:1005100059086A087B0880900B0190900C01A0900C
:100520000D01B0900E01481459046A047B0400F3D5
:1005300060931F0170932001809321019093220109
:100540002091090130910A018091130190911401C9
:100550002130310589F401969093140180931301A1
:1005600020910F013091100182179307C1F410926E
:1005700014011092130113C0892B41F480910F01D3
:1005800090911001909314018093130180911301B5
:100590009091140101979093140180931301219776
:1005A0002091110130911201809113019091140159
:1005B0002530310511F4B70101C0B8010E94E503EF
:1005C0000E94F10095CFDF91CF911F910F91FF9085
:1005D000EF90BF90AF909F908F907F906F905F90C3
:1005E0004F9008951F920F920FB60F9211242F93E0
:1005F0003F938F939F93AF93BF938091010190910D
:100600000201A0910301B09104013091000123E0A7
:10061000230F2D3720F40196A11DB11D05C026E83A
:10062000230F0296A11DB11D2093000180930101AB
:1006300090930201A0930301B093040180910501FE
:1006400090910601A0910701B09108010196A11DAA
:10065000B11D8093050190930601A0930701B0930B
:100660000801BF91AF919F918F913F912F910F9072
:100670000FBE0F901F901895789484B5826084BD4A
:1006800084B5816084BD85B5826085BD85B5816096
:1006900085BD80916E00816080936E001092810014
:1006A00080918100826080938100809181008160CF
:1006B0008093810080918000816080938000809190
:1006C000B10084608093B1008091B000816080931C
:1006D000B00080917A00846080937A0080917A00E3
:1006E000826080937A0080917A00816080937A00A2
:1006F00080917A00806880937A001092C1002091E6
:100700000F0130911001032E000C440B550B60E0DB
:1007100077E883E993E00E94F903CA01B90124E66E
:1007200030E040E050E00E94F90320930B01309349
:100730000C0140930D0150930E01C0E0D0E088EC15
:1007400090E00E944E020E94160288E39FEF0E94F2
:100750004E020E941602209791F30E940000EFCFF4
:10076000CF93DF93C9E0D1E01B861A8619821882E5
:100770001E8A1F8A188E198E88EC90E09F838E83C4
:1007800088E090E09D878C8789E090E09F878E8746
:100790008AE090E0998B888B8BE090E09B8B8A8B32
:1007A00088E00E9486008E850E94860088890E94CB
:1007B00086008A890E9486001D8A1C8A84E090E057
:1007C00099878887DF91CF91089597FB072E16F4BC
:1007D000009407D077FD09D00E941E0407FC05D0C5
:1007E0003EF4909581959F4F0895709561957F4F48
:1007F0000895052E97FB1EF400940E94100457FDE7
:1008000007D00E94320407FC03D04EF40C9410046D
:1008100050954095309521953F4F4F4F5F4F08952C
:1008200090958095709561957F4F8F4F9F4F08955C
:10083000EE0FFF1F0590F491E02D0994AA1BBB1B3E
:1008400051E107C0AA1FBB1FA617B70710F0A61BD0
:10085000B70B881F991F5A95A9F780959095BC01F1
:10086000CD010895A1E21A2EAA1BBB1BFD010DC0EC
:10087000AA1FBB1FEE1FFF1FA217B307E407F50750
:1008800020F0A21BB30BE40BF50B661F771F881F2C
:10089000991F1A9469F760957095809590959B01C2
:0C08A000AC01BD01CF010895F894FFCF1A
:00000001FF
