:100000000C945D000C9485000C9485000C94850084
:100010000C9485000C9485000C9485000C9485004C
:100020000C9485000C9485000C9485000C9442017E
:100030000C9485000C9485000C9485000C9485002C
:100040000C94F8000C9485000C9485000C948500A9
:100050000C9485000C9485000C9485000C9485000C
:100060000C9485000C9485000000000024002700FB
:100070002A0000000000250028002B0004040404CE
:100080000404040402020202020203030303030342
:10009000010204081020408001020408102001021F
:1000A00004081020000000080002010000030407FB
:1000B0000000000000000000860311241FBECFEFE7
:1000C000D8E0DEBFCDBF11E0A0E0B1E0E0E4F8E0B1
:1000D00002C005900D92A030B107D9F721E0A0E051
:1000E000B1E001C01D92A433B207E1F710E0CDE505
:1000F000D0E004C02197FE010E941804CC35D1073E
:10010000C9F70E9403020C941E040C94000090E0B6
:10011000FC01EC55FF4F3491FC01E057FF4F249157
:10012000FC01E458FF4FE491EE2309F43BC0332374
:1001300039F1333091F038F43130A9F0323001F533
:1001400084B58F7D12C0373091F03830A1F0343053
:10015000B9F4809180008F7D03C0809180008F77FB
:10016000809380000DC084B58F7784BD09C08091D5
:10017000B0008F7703C08091B0008F7D8093B00076
:10018000F0E0EE0FFF1FEE58FF4FA591B4918FB72F
:10019000F894EC91611103C020952E2301C02E2B01
:1001A0002C938FBF08953FB7F894809130019091C0
:1001B0003101A0913201B091330126B5A89B05C051
:1001C0002F3F19F00196A11DB11D3FBFBA2FA92FD6
:1001D000982F8827820F911DA11DB11DBC01CD0153
:1001E00042E0660F771F881F991F4A95D1F708953F
:1001F0001F920F920FB60F9211242F933F938F935C
:100200009F93AF93BF9380912C0190912D01A0916A
:100210002E01B0912F0130912B0123E0230F2D37B8
:1002200020F40196A11DB11D05C026E8230F0296FA
:10023000A11DB11D20932B0180932C0190932D01C2
:10024000A0932E01B0932F01809130019091310144
:10025000A0913201B09133010196A11DB11D80938F
:10026000300190933101A0933201B0933301BF91DB
:10027000AF919F918F913F912F910F900FBE0F9053
:100280001F9018951F920F920FB60F9211242F9363
:100290003F934F935F936F937F938F939F93AF930E
:1002A000BF93EF93FF938091010187FF05C01092E8
:1002B0008500109284001BC020910101022E000CC9
:1002C000330B8091000190E02817390784F4809166
:1002D0000101082E000C990BFC01EE0FFF1F8E0F81
:1002E0009F1FFC01EE5FFE4F808186FD15C080914F
:1002F00001018F5F8093010120910101022E000C0A
:10030000330B8091000190E028173907C4F48091E5
:1003100001018C3064F113C080910101082E000CA2
:10032000990BFC01EE0FFF1F8E0F9F1FFC01EE5F6C
:10033000FE4F808160E08F730E948700D8CF80914C
:10034000840090918500049680349C4918F480E4E0
:100350009CE905C08091840090918500049690935B
:100360008900809388008FEF809301013BC020912A
:1003700084003091850080910101082E000C990BBA
:10038000FC01EE0FFF1F8E0F9F1FFC01EE5FFE4F63
:1003900081819281820F931F9093890080938800BE
:1003A00080910101082E000C990BFC01EE0FFF1F3C
:1003B0008E0F9F1FFC01EE5FFE4F808186FF12C0F3
:1003C00080910101082E000C990BFC01EE0FFF1F1C
:1003D0008E0F9F1FFC01EE5FFE4F808161E08F73E7
:1003E0000E948700FF91EF91BF91AF919F918F91F4
:1003F0007F916F915F914F913F912F910F900FBE21
:100400000F901F901895789484B5826084BD84B550
:10041000816084BD85B5826085BD85B5816085BDFF
:1004200080916E00816080936E00109281008091B7
:10043000810082608093810080918100816080933F
:100440008100809180008160809380008091B10064
:1004500084608093B1008091B00081608093B0008F
:1004600080917A00846080937A0080917A00826023
:1004700080937A0080917A00816080937A008091E5
:100480007A00806880937A001092C10080912601E2
:100490008C3008F068C0E3E9F0E02491EFE7F0E089
:1004A0008491882399F090E0880F991FFC01E85906
:1004B000FF4FA591B491FC01EE58FF4F85919491A7
:1004C0008FB7F894EC91E22BEC938FBF80912601CB
:1004D000E82FF0E09F01220F331FE20FF31FEE5FC2
:1004E000FE4F9081907C9360908310922701109230
:1004F00028016CE00E9405042CE0829FB0011124C9
:1005000040E050E09A01260F371FF901EE0FFF1F60
:100510002E0F3F1FF901EE5FFE4F908196FD16C032
:100520004F5F5F4F4C30510569F781110FC010923A
:10053000800082E0809381001092850010928400F8
:10054000B19A80916F00826080936F00E0912601E4
:10055000F0E0CF01880F991FE80FF91FEE5FFE4F03
:1005600080818064808308E810E0C8E5D2E0B4EBC5
:100570004B2E512C612C712C80E0282E80E0382EDF
:1005800040E440937C0080917A00806480937A00FC
:1005900080917A0086FDFCCFA0917800809179004F
:1005A000B0E0B82B24EB30E00E9411042FEF33E0D1
:1005B00040E050E00E94A203C90130932A01209339
:1005C0002901203262E0360741055105E4F557FD67
:1005D00006C0253B31052CF084EB90E002C080E0A2
:1005E00090E0209127016801C21AD10827FDD39419
:1005F000D601AA0FBB1FAA0FBB1F6D01BB0FEE08D0
:10060000FF0820912801AE01421B510927FD539597
:100610009A01220F331F220F331FA901330F660BDC
:10062000770B9A01AB012C193D094E095F09DC01DA
:100630000E94CC03A30192010E94A203C20ED31E0A
:10064000E41EF51EC601609126016C3090F52091E4
:100650002701A801421B510927FD53959A01220F3A
:10066000331F220F331F8217930784F02091280134
:10067000AE01421B510927FD5395440F551F440FEE
:10068000551F9C01481759070CF49A012250310953
:10069000220F331F7FB7F894862F90E0AC01440FF0
:1006A000551F840F951FFC01EE5FFE4F328321839F
:1006B0007FBF0E94D3004B015C018FE0C82ED12C7C
:1006C000E12CF12C0E94D300DC01CB01881999099F
:1006D000AA09BB09883E9340A105B10558F051E035
:1006E000C51AD108E108F10868EE860E63E0961E8F
:1006F000A11CB11CC114D104E104F10419F72114A7
:10070000310409F43DCF0E9400003ACF80910001EE
:100710008C30A0F491E0980F909300018093260113
:1007200090E0FC01EE0FFF1F8E0F9F1FFC01EE5F9C
:10073000FE4F88EB9BE09283818308958FEF809337
:1007400026010895052E97FB1EF400940E94B9031C
:1007500057FD07D00E94D40307FC03D04EF40C943D
:10076000B90350954095309521953F4F4F4F5F4FBE
:10077000089590958095709561957F4F8F4F9F4F0D
:1007800008950E94F603A59F900DB49F900DA49F1D
:10079000800D911D11240895B7FF0C94C1030E9490
:1007A000C103821B930B0895A1E21A2EAA1BBB1B47
:1007B000FD010DC0AA1FBB1FEE1FFF1FA217B3072D
:1007C000E407F50720F0A21BB30BE40BF50B661F43
:1007D000771F881F991F1A9469F760957095809507
:1007E00090959B01AC01BD01CF010895A29FB0017E
:1007F000B39FC001A39F700D811D1124911DB29F55
:10080000700D811D1124911D0895991B79E004C07C
:10081000991F961708F0961B881F7A95C9F780953F
:1008200008950E94F603B7FF0895821B930B089565
:10083000EE0FFF1F0590F491E02D0994F894FFCF7F
:00000001FF
