:100000000C94F2000C941A010C941A010C941A012D
:100010000C941A010C941A010C941A010C941A01F4
:100020000C941A010C941A010C941A010C941A01E4
:100030000C941A010C941A010C941A010C941A01D4
:100040000C9472050C941A010C94E2050C94BC05F6
:100050000C941A010C941A010C941A010C941A01B4
:100060000C9414060C941A01084AD73B3BCE016E3F
:1000700084BCBFFDC12F3D6C74319ABD56833DDAFF
:100080003D00C77F11BED9E4BB4C3E916BAAAABE0E
:10009000000000803F0000407A10F35A00A0724E2A
:1000A00018090010A5D4E80000E87648170000E41D
:1000B0000B54020000CA9A3B000000E1F505000065
:1000C00080969800000040420F000000A0860100CA
:1000D0000000102700000000E8030000000064009A
:1000E000000000000A000000000001000000000005
:1000F0002C76D888DC674F0823DFC1DFAE59E1B129
:10010000B796E5E3E453C63AE651997696E8E6C237
:100110008426EB898C9B62ED407C6FFCEFBC9C9F3E
:1001200040F2BAA56FA5F490055A2AF75C936B6C60
:10013000F9676DC11BFCE0E40D47FEF520E6B50054
:10014000D0ED902E0300943577050080841E0800C2
:1001500000204E0A000000C80C333333330F986E72
:1001600012831141EF8D2114893BE65516CFFEE62F
:10017000DB18D1844B381BF77C1D901DA4BBE424F5
:10018000203284725E228100C9F124ECA1E53D2772
:100190000000000800020100000304070000000046
:1001A0000000000000000000250028002B000000D7
:1001B0000000240027002A000404040404040404AA
:1001C0000202020202020303030303030102040802
:1001D00010204080010204081020010204081020B1
:1001E0004207B90B11241FBECFEFD8E0DEBFCDBF51
:1001F00022E0A8E3B1E001C01D92A03EB207E1F702
:1002000011E0A0E0B1E0E0ECF6E202C005900D9252
:10021000A833B107D9F710E0C1EFD0E004C02197AF
:10022000FE010E944111C03FD107C9F70E94890712
:100230000C9453130C94000090E0FC01E453FE4F27
:100240002491FC01E854FE4F8491882399F090E0BA
:10025000880F991FFC01E255FE4FA591B491FC0156
:10026000EC55FE4F859194918FB7F894EC91E22B69
:10027000EC938FBF0895382F20912C0290912B0280
:10028000213208F049C0809108028111FCCF42E080
:1002900040930802309307023FEF3093060210921A
:1002A000050220930402ABE0B2E044EE51E0FA0113
:1002B0003E2F341B321718F43D913193F9CF109231
:1002C000E3012091E301990F922B9093E301909128
:1002D000E201913061F41092E2019091E301909378
:1002E000BB009091BC0093FDF8CF95EC01C095EE5A
:1002F0009093BC00909108029230E1F39091060235
:100300009F3F79F080910602803241F08091060291
:10031000803331F084E005C081E003C082E001C099
:1003200083E010920A0210922C02109209020895A2
:10033000909108029111FCCF91E0909308024093B4
:1003400007022FEF2093060210920502260F20933A
:1003500004029093E3019091E301880F892B80932D
:10036000E3018091E201813061F41092E201809119
:10037000E3018093BB008091BC0083FDF8CF85EC46
:1003800001C085EE8093BC00809108028130E1F3CA
:1003900080910502861710F460910502A4EEB1E089
:1003A00022EC31E0F9018E2F821B861718F48D9113
:1003B0008193F9CF862F089590E0FC01E057FE4F1E
:1003C0003491FC01E453FE4F2491FC01E854FE4FAC
:1003D000E491EE2309F43BC0332339F1333091F03B
:1003E00038F43130A9F0323001F584B58F7D12C078
:1003F000373091F03830A1F03430B9F4809180007A
:100400008F7D03C0809180008F77809380000DC026
:1004100084B58F7784BD09C08091B0008F7703C009
:100420008091B0008F7D8093B000F0E0EE0FFF1F51
:10043000EC55FE4FA591B4918FB7F894EC916111F2
:1004400003C020952E2301C02E2B2C938FBF08951F
:100450003FB7F8948091BE019091BF01A091C00177
:10046000B091C10126B5A89B05C02F3F19F0019698
:10047000A11DB11D3FBFBA2FA92F982F8827820F2A
:10048000911DA11DB11DBC01CD0142E0660F771F7A
:10049000881F991F4A95D1F70895CF92DF92EF9266
:1004A000FF920F931F93CF93DF936C017A018B011F
:1004B000C0E0D0E0CE15DF0589F0D8016D918D0147
:1004C000D601ED91FC910190F081E02DC6010995D6
:1004D000892B11F47E0102C02196ECCFC701DF9178
:1004E000CF911F910F91FF90EF90DF90CF900895E3
:1004F000FC01918D828D981761F0828DDF01A80F2C
:10050000B11D5D968C91928D9F5F9F73928F90E04D
:1005100008958FEF9FEF0895FC01918D828D9817BC
:1005200031F0828DE80FF11D858D90E008958FEFF9
:100530009FEF0895FC01918D228D892F90E0805CC2
:100540009F4F821B91098F73992708958DE292E046
:100550000E949A0221E0892B09F420E0822F08955D
:10056000FC01848DDF01A80FB11DA35ABF4F2C9150
:10057000848D90E001968F739927848FA689B7891F
:100580002C93A089B1898C9180648C93938D848DF8
:10059000981306C00288F389E02D80818F7D8083C7
:1005A0000895EF92FF920F931F93CF93DF93EC0187
:1005B00081E0888F9B8D8C8D981305C0E889F9891F
:1005C000808185FD24C0F62E0B8D10E00F5F1F4F3C
:1005D0000F731127E02E8C8DE8120CC00FB607FCAC
:1005E000FACFE889F989808185FFF5CFCE010E9495
:1005F000B002F1CF8B8DFE01E80FF11DE35AFF4FE2
:10060000F0820B8FEA89FB898081806207C0EE89C6
:10061000FF896083E889F98980818064808381E033
:1006200090E0DF91CF911F910F91FF90EF9008958F
:10063000CF93DF93EC01888D8823C9F0EA89FB8989
:10064000808185FD05C0A889B9898C9186FD0FC080
:100650000FB607FCF5CF808185FFF2CFA889B98955
:100660008C9185FFEDCFCE010E94B002E7CFDF91E4
:10067000CF91089580E090E0892B29F00E94A60296
:1006800081110C940000089585ED8093BC00809149
:10069000BC0084FDFCCF10920802089540915E01D9
:1006A000262F30E0240F311D21323105DCF420915A
:1006B00008022430C9F4FC0180E090E0861758F469
:1006C00030915E012191DC01A45CBE4FA30FB11DEE
:1006D0002C930196F3CF80915E01680F60935E01C9
:1006E00080E0089581E0089582E008950895E09102
:1006F000840180918301E81730F4F0E0EE53FE4F5F
:10070000808190E008958FEF9FEF0895909184018C
:1007100080918301981750F4E92FF0E0EE53FE4FDB
:10072000208130E09F5F9093840102C02FEF3FEF64
:10073000C90108958091830190E020918401821B7A
:1007400091090895CF92DF92EF92FF920F931F933A
:10075000CF93DF937C01262F972F8A018091090286
:10076000882391F0C62FD72F6E01C40ED51ECC154D
:10077000DD0571F06991D701ED91FC910190F08157
:10078000E02DC7010995F3CF642F822F0E944E03FD
:10079000C801DF91CF911F910F91FF90EF90DF90F3
:1007A000CF900895CF93DF931F92CDB7DEB76983C3
:1007B000209109022223D1F020912C02203240F016
:1007C00021E030E0FC013383228380E090E015C01B
:1007D00080910A02E82FF0E0E55FFD4F9981908358
:1007E0008F5F80930A0280932C0205C061E0CE01E6
:1007F00001960E944E0381E090E00F90DF91CF912F
:100800000895682F8AEC92E00C94D2030F931F9303
:10081000CF93DF938C0110923B0110923A01C0916B
:100820003A01D0913B010C171D077CF0FE01EE0F41
:10083000FF1FE45FFE4F61E080810E94DC01219692
:10084000D0933B01C0933A01EACF0F5F1F4F109343
:100850003B0100933A01C0913A01D0913B01C33072
:10086000D1057CF4FE01EE0FFF1FE45FFE4F60E058
:1008700080810E94DC012196D0933B01C0933A0114
:10088000EACFDF91CF911F910F9108950F931F939E
:10089000CF93DF938C011092390110923801C091EF
:1008A0003801D09139010C171D077CF0FE01EE0FC5
:1008B000FF1FEA5FFE4F61E080810E94DC0121960C
:1008C000D0933901C0933801EACF0F5F1F4F1093C7
:1008D000390100933801C0913801D0913901C330FA
:1008E000D1057CF4FE01EE0FFF1FEA5FFE4F60E0D2
:1008F00080810E94DC012196D0933901C093380198
:10090000EACFDF91CF911F910F9108950F931F931D
:10091000CF93DF93EC0188819981009729F02A8198
:100920003B812617370788F48B016F5F7F4F0E944A
:100930007412009761F0998388831B830A832C814A
:100940003D81232B11F4FC01108281E001C080E085
:10095000DF91CF911F910F910895EF92FF920F9326
:100960001F93CF93DF93FC012481358161157105BD
:1009700011F480E019C041155105A9F07B01EC018B
:100980008A01020F131FB8010E948604882389F38D
:10099000288139818C819D81B701820F931F0E942C
:1009A0004C131D830C8381E0DF91CF911F910F9138
:1009B000FF90EF900895CF93DF93EC0188819981A8
:1009C000009711F00E94DC11198218821D821C828E
:1009D0001B821A82DF91CF9108950F931F93CF93BB
:1009E000DF93EC010C811D810F5F1F4FB8010E9446
:1009F0008604882369F0288139818C819D8162E396
:100A000071E0820F931F0E944C131D830C8303C05F
:100A1000CE010E94DB04CE01DF91CF911F910F9197
:100A20000895EF92FF920F931F93CF93DF93EC0102
:100A30007B018A01BA010E948604811104C0CE01A3
:100A40000E94DB0407C01D830C83B7018881998154
:100A50000E944C13CE01DF91CF911F910F91FF9017
:100A6000EF900895EF92FF920F931F93CF93DF9330
:100A7000CDB7DEB7A1970FB6F894DEBF0FBECDBFDE
:100A80007C01CB01BA01F70111821082138212821C
:100A90001582148242E0420F8E010F5F1F4F0E94A9
:100AA000BF0B009769F0FC0101900020E9F7319736
:100AB000AF01481B590BBC01C7010E94110503C0BF
:100AC000C7010E94DB04A1960FB6F894DEBF0FBEEB
:100AD000CDBFDF91CF911F910F91FF90EF900895BF
:100AE0000E943E131F920F920FB60F9211242F9364
:100AF0003F938F939F93AF93BF938091BA0190914F
:100B0000BB01A091BC01B091BD013091B90123E0BE
:100B1000230F2D3720F40196A11DB11D05C026E835
:100B2000230F0296A11DB11D2093B9018093BA0134
:100B30009093BB01A093BC01B093BD018091BE0115
:100B40009091BF01A091C001B091C1010196A11D7A
:100B5000B11D8093BE019093BF01A093C001B093DB
:100B6000C101BF91AF919F918F913F912F910F90B4
:100B70000FBE0F901F9018951F920F920FB60F92F5
:100B800011242F933F934F935F936F937F938F9392
:100B90009F93AF93BF93EF93FF938DE292E00E94F8
:100BA000B002FF91EF91BF91AF919F918F917F9193
:100BB0006F915F914F913F912F910F900FBE0F90CA
:100BC0001F9018951F920F920FB60F9211242F931A
:100BD0008F939F93EF93FF93E0913D02F0913E023C
:100BE0008081E0914302F091440282FD12C0908125
:100BF000809146028F5F8F7320914702821751F0D8
:100C0000E0914602F0E0E35DFD4F958F8093460250
:100C100001C08081FF91EF919F918F912F910F9053
:100C20000FBE0F901F9018951F920F920FB60F9244
:100C300011242F933F934F935F936F937F938F93E1
:100C40009F93AF93BF93EF93FF938091B900887FF9
:100C5000803609F49CC068F5883209F45BC090F4D2
:100C6000803109F454C038F4882309F4F6C0883080
:100C700009F44DC0F6C0883109F44CC0803209F443
:100C80005DC0EFC0803409F468C048F4803309F4D3
:100C900055C0883309F0E5C080930602D8C080357E
:100CA00009F44FC0883509F45DC0883409F0D9C013
:100CB000D6C0883909F4C7C0A8F4883709F467C0DA
:100CC00038F4883609F463C0803709F460C0C9C0BD
:100CD000883809F4B8C0803909F45FC0803809F059
:100CE000C0C05BC0803B09F486C038F4803A09F488
:100CF00066C0883A09F47FC0B4C0803C09F4A7C03C
:100D0000883C09F4A4C0883B09F48AC0AAC0809139
:100D1000E30110C09091050280910402981770F5CC
:100D2000E091050281E08E0F80930502F0E0EC5126
:100D3000FE4F80818093BB0085EC86C080930602C5
:100D40008EC0E091050281E08E0F809305028091B4
:100D5000BB00F0E0EC51FE4F808390910502809142
:100D600004026EC0E091050281E08E0F80930502BF
:100D70008091BB00F0E0EC51FE4F80838091070230
:100D800081116DC081E08093E20184EA61C083E05B
:100D90008093080210928201CFCF8091820180322D
:100DA00008F051C0E091820181E08E0F80938201B2
:100DB0008091BB00F0E0EE59FE4F8083BDCF85EC03
:100DC0008093BC001092080280918201803230F43E
:100DD000E0918201F0E0EE59FE4F108260918201B5
:100DE00070E0E0916001F091610182E691E0099587
:100DF0001092820136C084E08093080210925F0155
:100E000010925E01E0915C01F0915D010995809185
:100E10005E01811105C081E080935E0110923C016A
:100E2000E0915F0181E08E0F80935F01F0E0E45C70
:100E3000FE4F80818093BB0090915F0180915E01A5
:100E4000981708F479CF85E88093BC000AC085EC38
:100E50008093BC001092080204C0109206020E9407
:100E60004403FF91EF91BF91AF919F918F917F913B
:100E70006F915F914F913F912F910F900FBE0F9007
:100E80001F901895EDE2F2E01382128288EE93E053
:100E9000A0E0B0E084839583A683B78326E131E0A8
:100EA0003183208325EC30E03587248724EC30E043
:100EB0003787268720EC30E0318B208B21EC30E027
:100EC000338B228B22EC30E0358B248B26EC30E008
:100ED000378B268B118E128E138E148EEAECF2E075
:100EE0001382128284839583A683B78386E291E07E
:100EF00091838083E6EDF2E01182108213821282E8
:100F00001582148240E050E066E371E0CF010C945A
:100F10001105CF93DF93CDB7DEB7A2970FB6F89444
:100F2000DEBF0FBECDBF789484B5826084BD84B52A
:100F3000816084BD85B5826085BD85B5816085BDD4
:100F400080916E00816080936E001092810080918C
:100F50008100826080938100809181008160809314
:100F60008100809180008160809380008091B10039
:100F700084608093B1008091B00081608093B00064
:100F800080917A00846080937A0080917A008260F8
:100F900080937A0080917A00816080937A008091BA
:100FA0007A00806880937A001092C10010928401C8
:100FB0001092830110920A0210922C0210920802E1
:100FC00011E0109307021092E20161E082E10E94B9
:100FD000DC0161E083E10E94DC018091B9008E7F39
:100FE0008093B9008091B9008D7F8093B90088E427
:100FF0008093B80085E48093BC001093090288E6D2
:1010000080932B0210920A0210922C028BE690E041
:101010000E94010480E090E00E94010481E00E94AF
:101020003B01E0913D02F0913E0282E08083E0913D
:101030003902F0913A021082E0913B02F0913C02B9
:1010400080E1808310924502E0914102F0914202DA
:1010500086E08083E0913F02F091400280818061D0
:101060008083E0913F02F09140028081886080831C
:10107000E0913F02F0914002808180688083E0919E
:101080003F02F091400280818F7D80839CE0E92EB9
:1010900091E0F92E06E011E0F701C080F2E0EF0EDA
:1010A000F11C8C2D0E941C01F801D0800E5F1F4F97
:1010B0008D2D0E941C0160E08C2D0E94DC0160E0FF
:1010C0008D2D0E94DC01F2E1EF16F1E0FF0621F721
:1010D00011E008E61093090200932B0210920A0215
:1010E00010922C028BE390E00E94010480E00E94A9
:1010F0003B0141E066E088E60E949801109284017D
:10110000809383018AEC92E00E948603F82E8AEC99
:1011100092E00E948603FA8E198EA98CBA8CA82AB6
:10112000B92AB092B801A092B7018AEC92E00E946D
:101130008603F82E8AEC92E00E948603FC8E1B8EBA
:10114000CB8CDC8CC82AD92AD092B601C092B501CA
:101150008AEC92E00E948603F82E8AEC92E00E94CC
:101160008603FE8E1D8EED8CFE8CE82AF92AF09205
:10117000B401E092B301B501BB0C880B990B0E943E
:101180004C0E20E030E040E858E30E94AB0E2B010B
:101190003C01B601DD0C880B990B0E944C0E20E03F
:1011A00030E040E858E30E94AB0E4B015C01B70110
:1011B000FF0C880B990B0E944C0E20E030E040E8B9
:1011C00058E30E94AB0E9B01AC010E94AB0E6B0179
:1011D0007C01A5019401C501B4010E94AB0EA701D9
:1011E00096010E94A10F0E94E8109B01AC01C3016F
:1011F000B20190580E943C100E940D1021EE3EE278
:1012000045E652E40E94AB0E6093AF017093B001CB
:101210008093B1019093B201A3019201C301B20185
:101220000E94AB0EA70196010E94A10F0E94E81038
:101230009B01AC01C501B4010E943C100E940D103D
:1012400021EE3EE245E652E40E94AB0E6093AB0114
:101250007093AC018093AD019093AE01109309029D
:1012600010920A0210922C0283E490E00E94010482
:1012700080E00E943B0141E066E088E60E94980120
:1012800010928401809383018AEC92E00E9486038D
:10129000F82E8AEC92E00E948603F8A21F8EAF8C93
:1012A000B8A0A82AB92AB092AA01A092A9018AECF2
:1012B00092E00E948603F82E8AEC92E00E94860358
:1012C000FAA219A2C9A0DAA0C82AD92AD092A801E4
:1012D000C092A7018AEC92E00E948603F82E8AEC65
:1012E00092E00E9486033F2C212C7101E82AF92A02
:1012F000F092A601E092A501B501BB0C880B990BF9
:101300000E944C0E20E030E043E053E40E943C1089
:101310006093990170939A0180939B0190939C0133
:10132000B601DD0C880B990B0E944C0E20E030E0DA
:1013300043E053E40E943C1060939D0170939E0132
:1013400080939F019093A001B701FF0C880B990B2C
:101350000E944C0E20E030E043E053E40E943C1039
:101360006093A1017093A2018093A3019093A401C3
:101370002FB7F8948091BA019091BB01A091BC0164
:10138000B091BD012FBFC0909501D0909601E09023
:101390009701F0909801BC01CD016C197D098E096F
:1013A0009F090E944A0E20E030E04AE754E40E9480
:1013B0003C106093910170939201809393019093FC
:1013C00094012FB7F8948091BA019091BB01A0913C
:1013D000BC01B091BD012FBF809395019093960100
:1013E000A0939701B0939801809091019090920101
:1013F000A0909301B09094012091990130919A01AD
:1014000040919B0150919C01C501B4010E94AB0E1B
:10141000209185013091860140918701509188018A
:101420000E94A10F28E431EE4AE75FE30E94AB0E71
:101430006B017C012AE037ED43EA5CE36091AB018C
:101440007091AC018091AD019091AE010E94AB0E04
:101450009B01AC01C701B6010E94A10F6B017C0189
:101460006093850170938601809387019093880132
:1014700020919D0130919E0140919F015091A001CA
:10148000C501B4010E94AB0E2091890130918A01FF
:1014900040918B0150918C010E94A10F28E431EE04
:1014A0004AE75FE30E94AB0E2B013C012AE037EDD7
:1014B00043EA5CE36091AF017091B0018091B101AA
:1014C0009091B2010E94AB0E9B01AC01C301B2012D
:1014D0000E94A10F6093890170938A0180938B0110
:1014E00090938C012091A1013091A2014091A30120
:1014F0005091A401C501B4010E94AB0E20918D0151
:1015000030918E0140918F01509190010E94A10F66
:101510004B015C0160938D0170938E0180938F016C
:101520009093900120E030E040EA51E4C701B60119
:101530000E94D51087FD21C080E090E00E94460403
:1015400020E030E040E752E4C701B6010E94D51028
:1015500087FD56C081E090E00E94460420E030E024
:1015600040EA52E4C701B6010E94D51087FD48C089
:1015700082E090E00E94460443C020E030E040EA70
:1015800051ECC701B6010E94450E18160CF180E01F
:1015900090E00E94060420E030E040E752ECC701F2
:1015A000B6010E94450E18165CF181E090E00E94A1
:1015B000060420E030E040EA52ECC701B6010E9488
:1015C000450E1816ECF082E090E00E94060418C068
:1015D00060E087E00E94DC0160E086E00E94DC01C0
:1015E00060E085E00E94DC0160E082E00E94DC01B6
:1015F00060E083E00E94DC0160E084E00E94DC01A6
:1016000022E0B501A401CE0101960E94320540916D
:10161000890150918A0160918B0170918C0122E0C7
:10162000CE0107960E9432054091850150918601B6
:10163000609187017091880122E0CE0143960E945B
:1016400032051E861D86188A1F861A8A198A6B899A
:101650007C896115710539F04F89588DCE010D9641
:101660000E94110504C0CE010D960E94DB04CE013C
:101670000D960E94ED047C014B855C856F81788519
:101680000E94AD04811103C0C7010E94DB04C701A1
:101690000E94ED047C014D815E8169817A810E9406
:1016A000AD04811103C0C7010E94DB0426EDE216E0
:1016B00022E0F20689F0F701608171816115710500
:1016C00039F04481558186ED92E00E94110504C0F5
:1016D00086ED92E00E94DB048D859E850E94DC11E0
:1016E0008B899C890E94DC118F8198850E94DC1176
:1016F00089819A810E94DC114091DA025091DB02CB
:101700006091D6027091D7028DE292E00E944D0264
:1017100042E050E064E371E08DE292E00E944D020D
:101720000E9428024B015C018AE0C82ED12CE12CDA
:10173000F12C0E942802DC01CB0188199909AA0921
:10174000BB09883E9340A105B10558F0F1E0CF1ADE
:10175000D108E108F10828EE820E23E0921EA11CB8
:10176000B11CC114D104E104F10419F70E943A0339
:10177000B1CC8091D6029091D7020C94DC11EF92FB
:101780000F931F93CF93DF93E80147FD02C034E02E
:1017900001C034E1E42F440FFF0BF7FF03C0F195C4
:1017A000E195F109E32E022F2E2FAE010E94DF0BEF
:1017B000CE01DF91CF911F910F91EF9008954F923D
:1017C0005F926F927F929F92AF92BF92CF92DF9281
:1017D000EF92FF920F931F93CF93DF93CDB7DEB7B6
:1017E00029970FB6F894DEBF0FBECDBF6A01122F46
:1017F000B02E2BE3201720F0FF24F394F00E02C04C
:10180000BCE3FB2E0F2D27E0AE014F5F5F4F0E9420
:101810006D0DAC018981982F9970913031F0E1FC08
:1018200006C0E0FE06C090E205C09DE203C09BE258
:1018300001C090E0EE2DE07183FF3CC0911102C029
:1018400083E001C084E0811718F4212F281B01C018
:1018500020E0E1110BC0F601822F30E2882319F05D
:1018600031938150FBCFC20ED11C20E0992329F087
:10187000D6019C93F60131966F01C6010396E2FEF4
:101880000AC03EE4D6013C9341E411964C93119773
:1018900012963C9306C03EE6F601308341E6418352
:1018A0003283FC01322F40E2332309F442C04193DA
:1018B0003150FACF82FF44C0911102C083E001C0D1
:1018C00084E0811718F4212F281B01C020E0E111CA
:1018D0000BC0F601822F30E2882319F0319381503A
:1018E000FBCFC20ED11C20E0992329F0D6019C9396
:1018F000F60131966F01C6010396E2FE0BC039E492
:10190000D6013C933EE411963C93119736E412962F
:101910003C9307C039E6F60130833EE6318336E674
:101920003283FC01322F40E2332319F041933150CE
:10193000FBCFFC01E20FF11D10828EEF9FEFB7C0CD
:10194000F1E0911101C0F0E06F2F70E01416150660
:1019500024F49A012F5F3F4F02C021E030E0260FB0
:10196000371FBB2029F06B2D70E06F5F7F4F02C0E7
:1019700060E070E0260F371F612F70E026173707F1
:101980001CF4121B212F01C020E03E2D387159F4A8
:10199000D601322F60E2332319F06D933150FBCF23
:1019A000C20ED11C20E0FF2331F0D6019C93B6017A
:1019B0006F5F7F4F6B01E1110BC0F601922F30E397
:1019C000992319F031939150FBCFC20ED11C20E026
:1019D0009F2D940F3A81782F7071A72E84FF03C03A
:1019E000313309F49150191624F4993018F098E025
:1019F00001C091E0E42F852F57FF02C0E0E080E0B6
:101A00006E2F782FE0E0F0E0AEE29A2E3A01691AEC
:101A100071082A01461A570A0B2D10E011950195FD
:101A200011096F3F8FEF780729F4D6019C92C60108
:101A300001966C014617570784F0661677066CF41A
:101A40007F01E40CF51CA1E0B0E0AC0FBD1FEA0E75
:101A5000FB1ED7011196BC9002C090E3B92E6150D5
:101A600071093196C60101967C016017710724F057
:101A7000D601BC926C01D5CF6417750741F436339B
:101A800020F4353321F4A11002C081E3B82EF60111
:101A9000B082F701822F90E2882319F09193815050
:101AA000FBCFF701E20FF11D108280E090E0299654
:101AB0000FB6F894DEBF0FBECDBFDF91CF911F915F
:101AC0000F91FF90EF90DF90CF90BF90AF909F90DD
:101AD0007F906F905F904F900895283008F027E036
:101AE0003327DA01990F311D87FD9160009661055A
:101AF000710539F432602E5F3D9330E32A95E1F7AA
:101B000008959F3F30F080387105610509F03C5F12
:101B10003C5F3D93913008F08068911DDF93CF9337
:101B20001F930F93FF92EF92192F987F9695E92FAD
:101B300096959695E90FFF27E051FF4F9927332798
:101B4000EE24FF24A701E70105900894079428F4E8
:101B5000360FE71EF81E491F511D660F771F881F9D
:101B6000991F0694A1F70590079428F4E70EF81E34
:101B7000491F561FC11D770F881F991F661F0694A6
:101B8000A1F70590079428F4F80E491F561FC71FA8
:101B9000D11D880F991F661F771F0694A1F7059026
:101BA000079420F4490F561FC71FD81F990F661FAF
:101BB000771F881F0694A9F784911095177041F03C
:101BC000D695C79557954795F794E7941A95C1F719
:101BD000E6E9F0E06894159015913591659195913D
:101BE00005907FE27395E118F10A430B560BC90B80
:101BF000D009C0F7E10CF11E431F561FC91FD01DAD
:101C00007EF4703311F48A95E6CFE894015030F0F9
:101C1000080F0AF40027021708F4202F2395022F3B
:101C20007A3328F079E37D932A95E9F710C07D9304
:101C30002A9589F606949795679537951795179481
:101C4000E118F10A430B560BC90BD00998F0239504
:101C50007E9173957A3308F070E37C932013B8F784
:101C60007E9170617D9330F0839571E37D9370E395
:101C70002A95E1F71124EF90FF900F911F91CF91DA
:101C8000DF91992787FD909508950E94870E08F4AB
:101C900081E00895E89409C097FB3EF49095809503
:101CA000709561957F4F8F4F9F4F9923A9F0F92F22
:101CB00096E9BB279395F695879577956795B795A0
:101CC000F111F8CFFAF4BB0F11F460FF1BC06F5F86
:101CD0007F4F8F4F9F4F16C0882311F096E911C098
:101CE000772321F09EE8872F762F05C0662371F0B9
:101CF00096E8862F70E060E02AF09A95660F771FCD
:101D0000881FDAF7880F9695879597F90895990FA8
:101D10000008550FAA0BE0E8FEEF16161706E807B5
:101D2000F907C0F012161306E407F50798F0621BD6
:101D3000730B840B950B39F40A2661F0232B242BAB
:101D4000252B21F408950A2609F4A140A6958FEFCA
:101D5000811D811D08950E94BE0E0C942F0F0E94BC
:101D6000210F38F00E94280F20F0952311F00C94D9
:101D7000180F0C941E0F11240C94630F0E94400F37
:101D800070F3959FC1F3950F50E0551F629FF001CE
:101D9000729FBB27F00DB11D639FAA27F00DB11DE7
:101DA000AA1F649F6627B00DA11D661F829F222770
:101DB000B00DA11D621F739FB00DA11D621F839FF7
:101DC000A00D611D221F749F3327A00D611D231FCD
:101DD000849F600D211D822F762F6A2F11249F571B
:101DE00050409AF0F1F088234AF0EE0FFF1FBB1F1E
:101DF000661F771F881F91505040A9F79E3F5105DD
:101E000080F00C94180F0C94630F5F3FE4F3983E3E
:101E1000D4F3869577956795B795F795E7959F5F86
:101E2000C1F7FE2B880F911D9695879597F9089518
:101E300097F99F6780E870E060E008959FEF80EC7D
:101E4000089500240A941616170618060906089520
:101E500000240A9412161306140605060895092E86
:101E60000394000C11F4882352F0BB0F40F4BF2BF5
:101E700011F460FF04C06F5F7F4F8F4F9F4F089535
:101E800057FD9058440F551F59F05F3F71F047952B
:101E9000880F97FB991F61F09F3F79F08795089510
:101EA000121613061406551FF2CF4695F1DF08C02F
:101EB000161617061806991FF1CF8695710561054C
:101EC00008940895E894BB2766277727CB0197F9F4
:101ED00008952F923F924F925F926F927F928F92CE
:101EE0009F92AF92BF92CF92DF92EF92FF920F93A9
:101EF0001F93CF93DF93CDB7DEB7CA1BDB0B0FB6B3
:101F0000F894DEBF0FBECDBF09942A88398848886F
:101F10005F846E847D848C849B84AA84B984C88405
:101F2000DF80EE80FD800C811B81AA81B981CE0FFC
:101F3000D11D0FB6F894DEBF0FBECDBFED010895E1
:101F40005058BB27AA270E94B80F0C942F0F0E944D
:101F5000210F38F00E94280F20F039F49F3F19F428
:101F600026F40C941E0F0EF4E095E7FB0C94180F6A
:101F7000E92F0E94400F58F3BA17620773078407CE
:101F8000950720F079F4A6F50C94620F0EF4E09515
:101F90000B2EBA2FA02D0B01B90190010C01CA0123
:101FA000A0011124FF27591B99F0593F50F4503ECE
:101FB00068F11A16F040A22F232F342F4427585FC0
:101FC000F3CF469537952795A795F0405395C9F7D8
:101FD0007EF41F16BA0B620B730B840BBAF0915090
:101FE000A1F0FF0FBB1F661F771F881FC2F70EC02F
:101FF000BA0F621F731F841F48F487957795679502
:10200000B795F7959E3F08F0B0CF9395880F08F0ED
:102010009927EE0F979587950895DF93DD27B92FC0
:10202000BF7740E85FE31616170648075B0718F40A
:10203000D92F0E94DA109F938F937F936F930E9402
:102040002811E8E6F0E00E94AE100E942F0F2F91B9
:102050003F914F915F910E94BE0EDD2351F0905849
:10206000A2EA2AED3FE049EC5FE3D0785D270E94C9
:10207000B80FDF910C942F0F0E9450100C942F0F6B
:102080000E94280F58F00E94210F40F029F45F3F72
:1020900029F00C94180F51110C94630F0C941E0F1F
:1020A0000E94400F68F39923B1F3552391F3951BD8
:1020B000550BBB27AA2762177307840738F09F5F69
:1020C0005F4F220F331F441FAA1FA9F335D00E2ED6
:1020D0003AF0E0E832D091505040E695001CCAF743
:1020E0002BD0FE2F29D0660F771F881FBB1F261706
:1020F00037074807AB07B0E809F0BB0B802DBF01DD
:10210000FF2793585F4F3AF09E3F510578F00C94AB
:10211000180F0C94630F5F3FE4F3983ED4F3869559
:1021200077956795B795F7959F5FC9F7880F911DCC
:102130009695879597F90895E1E0660F771F881FB8
:10214000BB1F621773078407BA0720F0621B730B6B
:10215000840BBA0BEE1F88F7E0950895DF93CF93B9
:102160001F930F93FF92EF92DF927B018C01689493
:1021700006C0DA2EEF010E94BE0EFE01E894A59182
:102180002591359145915591A6F3EF010E94B80F25
:10219000FE019701A801DA9469F7DF90EF90FF90B4
:1021A0000F911F91CF91DF9108950E94870E08F43F
:1021B0008FEF08959B01AC0160E070E080E89FE341
:1021C0000C943C1019F416F40C941E0F0C942C1162
:1021D0000E94480FB8F39923C9F3B6F39F57550BE4
:1021E00087FF0E943A110024A0E640EA900180583F
:1021F0005695979528F4805C660F771F881F20F00E
:1022000026173707480730F4621B730B840B20290D
:1022100031294A2BA69517940794202531254A2762
:1022200058F7660F771F881F20F0261737074807D3
:1022300030F4620B730B840B200D311D411DA095F2
:1022400081F7B901842F9158880F96958795089545
:102250009B01AC010C94AB0E9F3F31F0915020F4E8
:10226000879577956795B795880F911D9695879572
:1022700097F9089591505040660F771F881FD2F745
:102280000895EE0FFF1F0590F491E02D0994CF9370
:10229000DF938230910510F482E090E0E091DE025D
:1022A000F091DF0220E030E0C0E0D0E0309711F1A3
:1022B0004081518148175907C0F04817590761F408
:1022C00082819381209719F09B838A832BC09093FE
:1022D000DF028093DE0226C02115310519F0421776
:1022E000530718F49A01BE01DF01EF010280F38168
:1022F000E02DDCCF2115310509F1281B390B2430E5
:10230000310590F412968D919C911397611571058A
:1023100021F0FB019383828304C09093DF028093BA
:10232000DE02FD01329644C0FD01E20FF31F8193EE
:102330009193225031092D933C933AC02091DC02B5
:102340003091DD02232B41F42091020130910301F1
:102350003093DD022093DC022091000130910101D5
:102360002115310541F42DB73EB74091040150913C
:102370000501241B350BE091DC02F091DD02E21730
:10238000F307A0F42E1B3F0B2817390778F0AC0198
:102390004E5F5F4F2417350748F04E0F5F1F509375
:1023A000DD024093DC028193919302C0E0E0F0E013
:1023B000CF01DF91CF9108950F931F93CF93DF93B8
:1023C000009709F48CC0FC013297138212820091AD
:1023D000DE021091DF020115110581F420813181A7
:1023E000820F931F2091DC023091DD0228173907FC
:1023F00079F5F093DD02E093DC0271C0D80140E092
:1024000050E0AE17BF0750F412962D913C911397F0
:10241000AD012115310509F1D901F3CF9D01DA0193
:102420003383228360817181860F971F8217930700
:1024300069F4EC0128813981260F371F2E5F3F4F49
:10244000318320838A819B8193838283452B29F466
:10245000F093DF02E093DE0242C01396FC93EE930A
:102460001297ED01499159919E01240F351FE217F2
:10247000F30771F480819181840F951F0296119664
:102480009C938E938281938113969C938E93129743
:10249000E0E0F0E0D80112968D919C91139700979F
:1024A00019F0F8018C01F6CF8D919C9198012E5F67
:1024B0003F4F820F931F2091DC023091DD022817DD
:1024C000390769F4309729F41092DF021092DE0286
:1024D00002C0138212821093DD020093DC02DF91AE
:1024E000CF911F910F910895A0E0B0E0EAE7F2E1EB
:1024F0000C946D0FEC01009721F4CB010E94471161
:10250000B8C0FC01E60FF71F9C0122503109E21709
:10251000F30708F4ACC0D9010D911C91119706176F
:102520001707B0F00530110508F49FC0C8010497E3
:102530008617970708F499C002501109061B170B5C
:10254000019311936D937C93CF010E94DC118DC098
:102550005B01A01AB10A4C01800E911EA091DE020F
:10256000B091DF0240E050E0E12CF12C109709F42B
:102570004AC0A815B905D1F56D907C9011976301FB
:1025800082E0C80ED11CCA14DB0480F1A3014A19F1
:102590005B096A0182E0C80ED11C1296BC901297AA
:1025A0001396AC91B5E0CB16D10440F0B282A38370
:1025B00051834083D9016D937C930AC00E5F1F4FF6
:1025C000C301800F911FF90191838083EB2DFA2FB6
:1025D000E114F10431F0D7011396FC93EE931297B6
:1025E00044C0F093DF02E093DE023FC08D919C91E6
:1025F00011974817590708F4AC017D0112960D9008
:10260000BC91A02DB3CF8091DC029091DD028815A2
:102610009905E1F446175707C8F48091000190919D
:102620000101009741F48DB79EB74091040150918C
:102630000501841B950BE817F907C8F4F093DD0238
:10264000E093DC02F901718360830FC0CB010E942B
:1026500047117C01009759F0A801BE010E94431365
:10266000CE010E94DC11C70104C0CE0102C080E08F
:1026700090E0CDB7DEB7EEE00C94890F81E090E0FA
:10268000F8940C945313FB01DC0102C001900D92ED
:1026900041505040D8F70895FB01DC0101900D92A4
:1026A0000020E1F7089510E0C1EFD0E004C0FE0182
:1026B0000E9441112196C23FD107C9F7F894FFCF7C
:1026C0000000E00280000200030004000700060092
:1026D000050000000000D1024D029A0278028C022F
:1026E000180300000000D203A2039A0386037703B5
:0826F00076032C000D0A000026
:00000001FF
