:100000000C945D000C9485000C9485000C94850084
:100010000C9485000C9485000C9485000C9485004C
:100020000C9485000C9485000C9485000C94D902E6
:100030000C9485000C9485000C9485000C9485002C
:100040000C9437020C9485000C94A7020C94810246
:100050000C9485000C9485000C9485000C9485000C
:100060000C9485000C9485000000000024002700FB
:100070002A0000000000250028002B0004040404CE
:100080000404040402020202020203030303030342
:10009000010204081020408001020408102001021F
:1000A00004081020000000080002010000030407FB
:1000B00000000000000000009A0311241FBECFEFD3
:1000C000D8E0DEBFCDBF11E0A0E0B1E0E0E0FDE0B0
:1000D00002C005900D92A031B107D9F721E0A0E14F
:1000E000B1E001C01D92A13EB207E1F710E0CDE5FD
:1000F000D0E004C02197FE010E947306CC35D107E1
:10010000C9F70E94F8030C947E060C9400002FB7E8
:10011000F8948091180190911901A0911A01B09161
:100120001B012FBF8093240190932501A0932601EA
:10013000B0932701E0911C01F0911D010084F1852D
:10014000E02D8CE191E0099597FF26C02FB7F89438
:100150008091180190911901A0911A01B0911B0191
:100160002FBF40912401509125016091260170918B
:100170002701841B950BA60BB70B409120015091D2
:100180002101609122017091230184179507A60730
:10019000B70780F28FEF9FEF089590E0FC01EC55D8
:1001A000FF4F3491FC01E057FF4F2491FC01E458CC
:1001B000FF4FE491EE2309F43BC0332339F1333090
:1001C00091F038F43130A9F0323001F584B58F7DEB
:1001D00012C0373091F03830A1F03430B9F480914A
:1001E00080008F7D03C0809180008F778093800096
:1001F0000DC084B58F7784BD09C08091B0008F7722
:1002000003C08091B0008F7D8093B000F0E0EE0FCE
:10021000FF1FEE58FF4FA591B4918FB7F894EC9162
:10022000611103C020952E2301C02E2B2C938FBF6C
:1002300008953FB7F8948091140190911501A09111
:100240001601B091170126B5A89B05C02F3F19F0E4
:100250000196A11DB11D3FBFBA2FA92F982F882746
:10026000820F911DA11DB11DBC01CD0142E0660FA1
:10027000771F881F991F4A95D1F70895CF92DF9273
:10028000EF92FF920F931F93CF93DF936C017A014C
:100290008B01C0E0D0E0CE15DF0589F0D8016D916B
:1002A0008D01D601ED91FC910190F081E02DC60108
:1002B0000995892B11F47E0102C02196ECCFC7016C
:1002C000DF91CF911F910F91FF90EF90DF90CF9032
:1002D0000895FC01918D828D981761F0828DDF0168
:1002E000A80FB11D5D968C91928D9F5F9F73928F29
:1002F00090E008958FEF9FEF0895FC01918D828D1E
:10030000981731F0828DE80FF11D858D90E00895EA
:100310008FEF9FEF0895FC01918D228D892F90E042
:10032000805C9F4F821B91098F73992708958CE100
:1003300091E00E948B0121E0892B09F420E0822FBB
:100340000895FC01848DDF01A80FB11DA35ABF4F92
:100350002C91848D90E001968F739927848FA689C4
:10036000B7892C93A089B1898C9180648C93938DEB
:10037000848D981306C00288F389E02D80818F7DDB
:1003800080830895EF92FF920F931F93CF93DF9393
:10039000EC0181E0888F9B8D8C8D981305C0E889D6
:1003A000F989808185FD24C0F62E0B8D10E00F5F4A
:1003B0001F4F0F731127E02E8C8DE8120CC00FB663
:1003C00007FCFACFE889F989808185FFF5CFCE0156
:1003D0000E94A101F1CF8B8DFE01E80FF11DE35AC0
:1003E000FF4FF0820B8FEA89FB898081806207C012
:1003F000EE89FF896083E889F98980818064808340
:1004000081E090E0DF91CF911F910F91FF90EF90ED
:100410000895CF93DF93EC01888D8823C9F0EA8992
:10042000FB89808185FD05C0A889B9898C9186FDED
:100430000FC00FB607FCF5CF808185FFF2CFA889EA
:10044000B9898C9185FFEDCFCE010E94A101E7CF44
:10045000DF91CF91089580E090E0892B29F00E94F0
:10046000970181110C94000008950E9479061F9253
:100470000F920FB60F9211242F933F938F939F9358
:10048000AF93BF938091180190911901A0911A0127
:10049000B0911B013091130123E0230F2D3720F47D
:1004A0000196A11DB11D05C026E8230F0296A11DCE
:1004B000B11D209313018093180190931901A0930B
:1004C0001A01B0931B018091140190911501A09124
:1004D0001601B09117010196A11DB11D8093140161
:1004E00090931501A0931601B0931701BF91AF919E
:1004F0009F918F913F912F910F900FBE0F901F9062
:1005000018951F920F920FB60F9211242F933F93BD
:100510004F935F936F937F938F939F93AF93BF930B
:10052000EF93FF938CE191E00E94A101FF91EF9185
:10053000BF91AF919F918F917F916F915F914F91FB
:100540003F912F910F900FBE0F901F9018951F9203
:100550000F920FB60F9211242F938F939F93EF93C7
:10056000FF93E0912C01F0912D018081E091320107
:10057000F091330182FD12C09081809135018F5F2F
:100580008F7320913601821751F0E0913501F0E030
:10059000E45EFE4F958F8093350101C08081FF910D
:1005A000EF919F918F912F910F900FBE0F901F9001
:1005B00018951F920F920FB60F9211242F933F930D
:1005C0004F935F936F937F938F939F93AF93BF935B
:1005D000EF93FF938091100187FF05C01092850073
:1005E000109284001BC020911001022E000C330BCE
:1005F0008091DD0190E02817390784F48091100183
:10060000082E000C990BFC01EE0FFF1F8E0F9F1F91
:10061000FC01E754FE4F808186FD15C080911001DA
:100620008F5F8093100120911001022E000C330B7C
:100630008091DD0190E028173907C4F48091100102
:100640008C3064F113C080911001082E000C990BBE
:10065000FC01EE0FFF1F8E0F9F1FFC01E754FE4FA2
:10066000808160E08F730E94CD00D8CF809184009C
:1006700090918500049680349C4918F480E49CE9AC
:1006800005C0809184009091850004969093890024
:10069000809388008FEF809310013BC020918400ED
:1006A0003091850080911001082E000C990BFC01FF
:1006B000EE0FFF1F8E0F9F1FFC01E754FE4F81813D
:1006C0009281820F931F909389008093880080917C
:1006D0001001082E000C990BFC01EE0FFF1F8E0F6E
:1006E0009F1FFC01E754FE4F808186FF12C080915E
:1006F0001001082E000C990BFC01EE0FFF1F8E0F4E
:100700009F1FFC01E754FE4F808161E08F730E94C0
:10071000CD00FF91EF91BF91AF919F918F917F910C
:100720006F915F914F913F912F910F900FBE0F905E
:100730001F90189510921F0110921E0188EE93E0F1
:10074000A0E0B0E08093200190932101A0932201CA
:10075000B093230184E091E090931D0180931C01EC
:1007600085EC90E0909329018093280184EC90E03F
:1007700090932B0180932A0180EC90E090932D01BF
:1007800080932C0181EC90E090932F0180932E01B7
:1007900082EC90E0909331018093300186EC90E000
:1007A00090933301809332011092350110923601FB
:1007B00010923701109238018091DD018C30A0F445
:1007C00091E0980F9093DD018093DE0190E0FC01B1
:1007D000EE0FFF1F8E0F9F1FFC01E754FE4F88EBAB
:1007E0009BE09283818308958FEF8093DE010895CB
:1007F000CF93DF9300D000D0CDB7DEB7789484B527
:10080000826084BD84B5816084BD85B5826085BD0C
:1008100085B5816085BD80916E00816080936E009A
:10082000109281008091810082608093810080918C
:10083000810081608093810080918000816080933D
:1008400080008091B10084608093B1008091B000FD
:1008500081608093B00080917A00846080937A00F8
:1008600080917A00826080937A0080917A00816022
:1008700080937A0080917A00806880937A00109249
:10088000C100E0912C01F0912D0182E08083E09184
:100890002801F09129011082E0912A01F0912B01A9
:1008A0008FEC808310923401E0913001F09131019E
:1008B00086E08083E0912E01F0912F01808180619C
:1008C0008083E0912E01F0912F01808188608083E8
:1008D000E0912E01F0912F01808180688083E0916A
:1008E0002E01F0912F0180818F7D80838091DE0128
:1008F0008C3008F068C0E3E9F0E02491EFE7F0E025
:100900008491882399F090E0880F991FFC01E859A1
:10091000FF4FA591B491FC01EE58FF4F8591949142
:100920008FB7F894EC91E22BEC938FBF8091DE01AE
:10093000E82FF0E09F01220F331FE20FF31FE7546F
:10094000FE4F9081907C936090831092DF01109213
:10095000E0016CE00E9467062CE0829FB001112448
:1009600040E050E09A01260F371FF901EE0FFF1FFC
:100970002E0F3F1FF901E754FE4F908196FD16C0E0
:100980004F5F5F4F4C30510569F781110FC01092D6
:10099000800082E080938100109285001092840094
:1009A000B19A80916F00826080936F00E091DE01C8
:1009B000F0E0CF01880F991FE80FF91FE754FE4FB1
:1009C000808180648083B8E82B2E312C08E512E00A
:1009D00084EBC82ED12CE12CF12C8CE191E00E940B
:1009E0008B01181619060CF0C2C00E948700FC018A
:1009F00097FD11C08D32910591F0C0970A9778F05C
:100A0000E0911C01F0911D010680F781E02D8CE141
:100A100091E00995EACF80E090E0DC012DC020E074
:100A200030E0A901B12CE130F10509F0CAC0E09134
:100A30001C01F0911D010680F781E02D8CE191E011
:100A400029833A834B835C8309950E948700FC01CC
:100A5000C09729813A814B815C810A9720F3E1306C
:100A6000F10509F3BB2009F4CCC088279927DC01E4
:100A7000821B930BA40BB50BFC0190931201809386
:100A80001101892B09F473C0E03282E0F807DCF52C
:100A9000F7FD06C0E53BF1052CF0E4EBF0E002C009
:100AA000E0E0F0E08091DF014101881A910887FDC4
:100AB0009394D401AA0FBB1FAA0FBB1F4D01BB0FFC
:100AC000AA08BB088091E0019801281B310987FD25
:100AD0003395220F331F220F331FC901330FAA0B87
:100AE000BB0B9C01AD01281939094A095B09DF01DB
:100AF0000E942E06A70196010E940406820E931EF4
:100B0000A41EB51EF4018091DE018C3080F5909119
:100B1000DF01A101491B510997FD5395440F551F52
:100B2000440F551FE417F50784F09091E0019801F8
:100B3000291B310997FD3395220F331F220F331FD5
:100B4000AF012E173F070CF4A90142505109440F81
:100B5000551F2FB7F89490E0FC01EE0FFF1F8E0F8A
:100B60009F1FFC01E754FE4F528341832FBF0E9419
:100B700019012B013C0184EF882E99249394A12C18
:100B8000B12C0E941901DC01CB0184199509A60939
:100B9000B709883E9340A105B10558F091E0891A44
:100BA0009108A108B10828EE420E23E0521E611CF4
:100BB000711C81149104A104B10419F70E942B0245
:100BC0000CCFED32F105D1F0CF01C0970A9708F0B4
:100BD0002ECFAAE0B0E00E9423062F01FF0F660887
:100BE0007708DC01CB01840D951DA61DB71D9C0166
:100BF000AD01205331094109510919CFBB24B394E8
:100C000016CFDA01C90138CF052E97FB1EF40094E8
:100C10000E941B0657FD07D00E94360607FC03D032
:100C20004EF40C941B0650954095309521953F4FFE
:100C30004F4F5F4F089590958095709561957F4FC8
:100C40008F4F9F4F08950E945806A59F900DB49F07
:100C5000900DA49F800D911D11240895B7FF0C9451
:100C600023060E942306821B930B0895A1E21A2EED
:100C7000AA1BBB1BFD010DC0AA1FBB1FEE1FFF1F40
:100C8000A217B307E407F50720F0A21BB30BE40B90
:100C9000F50B661F771F881F991F1A9469F76095D7
:100CA0007095809590959B01AC01BD01CF01089591
:100CB000A29FB001B39FC001A39F700D811D11249D
:100CC000911DB29F700D811D1124911D0895991BD6
:100CD00079E004C0991F961708F0961B881F7A9533
:100CE000C9F780950895EE0FFF1F0590F491E02D50
:100CF000099481E090E0F8940C947E06F894FFCF7C
:100D000000000000C2013E018B0169017D01090262
:00000001FF
