:100000000C945D000C9485000C9485000C94850084
:100010000C9485000C9485000C9485000C9485004C
:100020000C9485000C9485000C9485000C94AA0215
:100030000C9485000C9485000C9485000C9485002C
:100040000C9408020C9485000C9478020C945202D3
:100050000C9485000C9485000C9485000C9485000C
:100060000C9485000C9485000000000024002700FB
:100070002A0000000000250028002B0004040404CE
:100080000404040402020202020203030303030342
:10009000010204081020408001020408102001021F
:1000A00004081020000000080002010000030407FB
:1000B00000000000000000006B0311241FBECFEF02
:1000C000D8E0DEBFCDBF11E0A0E0B1E0E6E7F9E0A7
:1000D00002C005900D92A031B107D9F721E0A0E14F
:1000E000B1E001C01D92AF3DB207E1F710E0CDE5F0
:1000F000D0E004C02197FE010E94AE04CC35D107A8
:10010000C9F70E94C9030C94B9040C94000090E054
:10011000FC01EC55FF4F3491FC01E057FF4F249157
:10012000FC01E458FF4FE491EE2309F43BC0332374
:1001300039F1333091F038F43130A9F0323001F533
:1001400084B58F7D12C0373091F03830A1F0343053
:10015000B9F4809180008F7D03C0809180008F77FB
:10016000809380000DC084B58F7784BD09C08091D5
:10017000B0008F7703C08091B0008F7D8093B00076
:10018000F0E0EE0FFF1FEE58FF4FA591B4918FB72F
:10019000F894EC91611103C020952E2301C02E2B01
:1001A0002C938FBF0895CF93DF9390E0FC01E0572D
:1001B000FF4F2491FC01E458FF4F8491882361F1A3
:1001C00090E0880F991FFC01E859FF4FC591D49129
:1001D000FC01EE58FF4FA591B491611109C09FB782
:1001E000F8948881209582238883EC912E230BC07C
:1001F000623061F49FB7F8943881822F8095832311
:100200008883EC912E2B2C939FBF06C08FB7F89458
:10021000E8812E2B28838FBFDF91CF910895CF9255
:10022000DF92EF92FF920F931F93CF93DF936C01B6
:100230007A018B01C0E0D0E0CE15DF0589F0D8014E
:100240006D918D01D601ED91FC910190F081E02D31
:10025000C6010995892B11F47E0102C02196ECCFCD
:10026000C701DF91CF911F910F91FF90EF90DF9029
:10027000CF900895FC01918D828D981761F0828D49
:10028000DF01A80FB11D5D968C91928D9F5F9F73CA
:10029000928F90E008958FEF9FEF0895FC01918D6C
:1002A000828D981731F0828DE80FF11D858D90E0D9
:1002B00008958FEF9FEF0895FC01918D228D892F76
:1002C00090E0805C9F4F821B91098F73992708955E
:1002D0008AE191E00E945C0121E0892B09F420E091
:1002E000822F0895FC01848DDF01A80FB11DA35A50
:1002F000BF4F2C91848D90E001968F739927848F46
:10030000A689B7892C93A089B1898C9180648C933C
:10031000938D848D981306C00288F389E02D808127
:100320008F7D80830895EF92FF920F931F93CF9359
:10033000DF93EC0181E0888F9B8D8C8D981305C035
:10034000E889F989808185FD24C0F62E0B8D10E0A7
:100350000F5F1F4F0F731127E02E8C8DE8120CC01A
:100360000FB607FCFACFE889F989808185FFF5CFC0
:10037000CE010E947201F1CF8B8DFE01E80FF11DBD
:10038000E35AFF4FF0820B8FEA89FB8980818062FC
:1003900007C0EE89FF896083E889F98980818064DC
:1003A000808381E090E0DF91CF911F910F91FF90CA
:1003B000EF900895CF93DF93EC01888D8823C9F0E7
:1003C000EA89FB89808185FD05C0A889B9898C915E
:1003D00086FD0FC00FB607FCF5CF808185FFF2CFF9
:1003E000A889B9898C9185FFEDCFCE010E94720159
:1003F000E7CFDF91CF91089580E090E0892B29F03D
:100400000E94680181110C94000008950E94B404B8
:100410001F920F920FB60F9211242F933F938F9339
:100420009F93AF93BF938091160190911701A09174
:100430001801B09119013091150123E0230F2D37D8
:1004400020F40196A11DB11D05C026E8230F0296D8
:10045000A11DB11D209315018093160190931701E2
:10046000A0931801B093190180911101909112018C
:10047000A0911301B09114010196A11DB11D8093AB
:10048000110190931201A0931301B0931401BF9135
:10049000AF919F918F913F912F910F900FBE0F9031
:1004A0001F9018951F920F920FB60F9211242F9341
:1004B0003F934F935F936F937F938F939F93AF93EC
:1004C000BF93EF93FF938AE191E00E947201FF9145
:1004D000EF91BF91AF919F918F917F916F915F91BC
:1004E0004F913F912F910F900FBE0F901F90189535
:1004F0001F920F920FB60F9211242F938F939F93F9
:10050000EF93FF93E0912A01F0912B018081E0911C
:100510003001F091310182FD12C090818091330150
:100520008F5F8F7320913401821751F0E091330176
:10053000F0E0E65EFE4F958F8093330101C080812D
:10054000FF91EF919F918F912F910F900FBE0F9080
:100550001F9018951F920F920FB60F9211242F9390
:100560003F934F935F936F937F938F939F93AF933B
:10057000BF93EF93FF938091100187FF05C0109206
:100580008500109284001BC020911001022E000CE7
:10059000330B8091DB0190E02817390784F48091B8
:1005A0001001082E000C990BFC01EE0FFF1F8E0F9F
:1005B0009F1FFC01E954FE4F808186FD15C080918C
:1005C00010018F5F8093100120911001022E000C0A
:1005D000330B8091DB0190E028173907C4F4809138
:1005E00010018C3064F113C080911001082E000CB2
:1005F000990BFC01EE0FFF1F8E0F9F1FFC01E954AA
:10060000FE4F808160E08F730E948700D8CF809179
:10061000840090918500049680349C4918F480E40D
:100620009CE905C080918400909185000496909388
:100630008900809388008FEF809310013BC0209148
:1006400084003091850080911001082E000C990BD8
:10065000FC01EE0FFF1F8E0F9F1FFC01E954FE4FA0
:1006600081819281820F931F9093890080938800EB
:1006700080911001082E000C990BFC01EE0FFF1F5A
:100680008E0F9F1FFC01E954FE4F808186FF12C030
:1006900080911001082E000C990BFC01EE0FFF1F3A
:1006A0008E0F9F1FFC01E954FE4F808161E08F7324
:1006B0000E948700FF91EF91BF91AF919F918F9121
:1006C0007F916F915F914F913F912F910F900FBE4E
:1006D0000F901F90189510921D0110921C0188EE2A
:1006E00093E0A0E0B0E080931E0190931F01A093DF
:1006F0002001B093210184E091E090931B0180934D
:100700001A0185EC90E0909327018093260184ECF8
:1007100090E0909329018093280180EC90E09093E1
:100720002B0180932A0181EC90E090932D0180931E
:100730002C0182EC90E090932F0180932E0186ECA7
:1007400090E0909331018093300110923301109228
:10075000340110923501109236018091DB018C300A
:10076000A0F491E0980F9093DB018093DC0190E07E
:10077000FC01EE0FFF1F8E0F9F1FFC01E954FE4F7F
:1007800088EB9BE09283818308958FEF8093DC0157
:100790000895789484B5826084BD84B5816084BDF9
:1007A00085B5826085BD85B5816085BD80916E000F
:1007B000816080936E001092810080918100826040
:1007C000809381008091810081608093810080917D
:1007D00080008160809380008091B100846080936C
:1007E000B1008091B00081608093B00080917A0068
:1007F000846080937A0080917A00826080937A008E
:1008000080917A00816080937A0080917A0080687C
:1008100080937A001092C1008091DC018C3008F046
:1008200051C061E086E00E94D3008091DC01E82F96
:10083000F0E09F01220F331FE20FF31FE954FE4F38
:100840009081907C966090831092DD011092DE0181
:100850006CE00E94A2049CE0899FB001112440E05A
:1008600050E09A01260F371FF901EE0FFF1F2E0FE0
:100870003F1FF901E954FE4F908196FD16C04F5F6E
:100880005F4F4C30510569F781110FC01092800005
:1008900082E0809381001092850010928400B19ACA
:1008A00080916F00826080936F00E091DC01F0E046
:1008B000CF01880F991FE80FF91FE954FE4F80817F
:1008C0008064808361E082E00E94D30060E083E086
:1008D0000E94D300E0912A01F0912B0182E08083F5
:1008E000E0912601F09127011082E0912801F0911A
:1008F00029018FEC808310923201E0912E01F0915A
:100900002F0186E08083E0912C01F0912D01808100
:1009100080618083E0912C01F0912D0180818860BD
:100920008083E0912C01F0912D018081806880838B
:10093000E0912C01F0912D0180818F7D80830E94B8
:10094000FC01FDCF991B79E004C0991F961708F0B0
:10095000961B881F7A95C9F780950895EE0FFF1FA3
:100960000590F491E02D099481E090E0F8940C94C6
:06097000B904F894FFCF6A
:100976000000000093010F015C013A014E01DA010B
:00000001FF
