:100000000C945D000C9485000C9485000C94850084
:100010000C9485000C9485000C9485000C9485004C
:100020000C9485000C9485000C9485000C94390187
:100030000C9485000C9485000C9485000C9485002C
:100040000C94EF000C9485000C9485000C948500B2
:100050000C9485000C9485000C9485000C9485000C
:100060000C9485000C9485000000000024002700FB
:100070002A0000000000250028002B0004040404CE
:100080000404040402020202020203030303030342
:10009000010204081020408001020408102001021F
:1000A00004081020000000080002010000030407FB
:1000B0000000000000000000B10211241FBECFEFBD
:1000C000D8E0DEBFCDBF11E0A0E0B1E0E2EAF5E0AC
:1000D00002C005900D92A030B107D9F721E0A0E051
:1000E000B1E001C01D92A833B207E1F710E0CDE501
:1000F000D0E004C02197FE010E94C902CC35D1078F
:10010000C9F70E94FA010C94CF020C94000090E011
:10011000FC01EC55FF4F3491FC01E057FF4F249157
:10012000FC01E458FF4FE491EE2309F43BC0332374
:1001300039F1333091F038F43130A9F0323001F533
:1001400084B58F7D12C0373091F03830A1F0343053
:10015000B9F4809180008F7D03C0809180008F77FB
:10016000809380000DC084B58F7784BD09C08091D5
:10017000B0008F7703C08091B0008F7D8093B00076
:10018000F0E0EE0FFF1FEE58FF4FA591B4918FB72F
:10019000F894EC91611103C020952E2301C02E2B01
:1001A0002C938FBF0895FC01909107019C30A0F41F
:1001B00081E0890F809307019083892F90E0FC01F3
:1001C000EE0FFF1F8E0F9F1FFC01E85FFE4F88EBB5
:1001D0009BE09283818308958FEF808308951F921F
:1001E0000F920FB60F9211242F933F938F939F93EB
:1001F000AF93BF938091340190913501A091360166
:10020000B09137013091330123E0230F2D3720F4D3
:100210000196A11DB11D05C026E8230F0296A11D60
:10022000B11D209333018093340190933501A09345
:100230003601B093370180912F0190913001A09148
:100240003101B09132010196A11DB11D80932F01A2
:1002500090933001A0933101B0933201BF91AF91DF
:100260009F918F913F912F910F900FBE0F901F90F4
:1002700018951F920F920FB60F9211242F933F9350
:100280004F935F936F937F938F939F93AF93BF939E
:10029000EF93FF938091060187FF05C010928500C0
:1002A000109284001BC020910601022E000C330B1B
:1002B0008091070190E02817390784F480910601A6
:1002C000082E000C990BFC01EE0FFF1F8E0F9F1FD5
:1002D000FC01E85FFE4F808186FD15C0809106011C
:1002E0008F5F8093060120910601022E000C330BD4
:1002F0008091070190E028173907C4F48091060126
:100300008C3064F113C080910601082E000C990B0B
:10031000FC01EE0FFF1F8E0F9F1FFC01E85FFE4FD9
:10032000808160E08F730E948700D8CF8091840025
:1003300090918500049680349C4918F480E49CE9EF
:1003400005C0809184009091850004969093890067
:10035000809388008FEF809306013BC0209184003A
:100360003091850080910601082E000C990BFC014C
:10037000EE0FFF1F8E0F9F1FFC01E85FFE4F818174
:100380009281820F931F90938900809388008091BF
:100390000601082E000C990BFC01EE0FFF1F8E0FBB
:1003A0009F1FFC01E85FFE4F808186FF12C0809195
:1003B0000601082E000C990BFC01EE0FFF1F8E0F9B
:1003C0009F1FFC01E85FFE4F808161E08F730E94F8
:1003D0008700FF91EF91BF91AF919F918F917F9196
:1003E0006F915F914F913F912F910F900FBE0F90A2
:1003F0001F901895789484B5826084BD84B581601F
:1004000084BD85B5826085BD85B5816085BD8091DF
:100410006E00816080936E00109281008091810057
:10042000826080938100809181008160809381004F
:10043000809180008160809380008091B100846011
:100440008093B1008091B00081608093B000809172
:100450007A00846080937A0080917A008260809331
:100460007A0080917A00816080937A0080917A008E
:10047000806880937A001092C10080912C018C30AA
:1004800008F068C0EEE9F0E02491EAE8F0E0849139
:10049000882399F090E0880F991FFC01E859FF4FDD
:1004A000A591B491FC01EE58FF4F859194918FB7BF
:1004B000F894EC91E22BEC938FBF80912C01E82F04
:1004C000F0E09F01220F331FE20FF31FE85FFE4FA2
:1004D0009081907C9E60908310922D0110922E014D
:1004E0006CE00E94BD029CE0899FB001112440E0B5
:1004F00050E09A01260F371FF901EE0FFF1F2E0F54
:100500003F1FF901E85FFE4F908196FD16C04F5FD7
:100510005F4F4C30510569F781110FC01092800078
:1005200082E0809381001092850010928400B19A3D
:1005300080916F00826080936F00E0912C01F0E069
:10054000CF01880F991FE80FF91FE85FFE4F8081E8
:1005500080648083C0E0D0E02097F1F30E94000027
:10056000FBCF8CE291E00E94D30083E091E00E94F7
:10057000D30080E091E00C94D300991B79E004C093
:10058000991F961708F0961B881F7A95C9F78095D2
:100590000895EE0FFF1F0590F491E02D0994F89453
:0205A000FFCF8B
:00000001FF
