:100000000C945D000C9485000C9485000C94850084
:100010000C9485000C9485000C9485000C9485004C
:100020000C9485000C9485000C9485000C9485003C
:100030000C9485000C9485000C9485000C9485002C
:100040000C944F020C9485000C94BF020C949902FE
:100050000C9485000C9485000C9485000C9485000C
:100060000C9485000C9485000000000024002700FB
:100070002A0000000000250028002B0004040404CE
:100080000404040402020202020203030303030342
:10009000010204081020408001020408102001021F
:1000A00004081020000000080002010000030407FB
:1000B0000000000000000000BF0411241FBECFEFAD
:1000C000D8E0DEBFCDBF11E0A0E0B1E0EAECFDE09A
:1000D00002C005900D92AE34B107D9F721E0AEE42D
:1000E000B1E001C01D92A43FB207E1F710E0CDE5F9
:1000F000D0E004C02197FE010E94D806CC35D1077C
:10010000C9F70E94F1020C94E3060C940000E09100
:100110005701F09158010190F081E02D682F87E59B
:1001200091E0099490E0FC01EC55FF4F3491FC0103
:10013000E057FF4F2491FC01E458FF4FE491EE2378
:1001400009F43BC0332339F1333091F038F43130C6
:10015000A9F0323001F584B58F7D12C0373091F0AF
:100160003830A1F03430B9F4809180008F7D03C025
:10017000809180008F77809380000DC084B58F7749
:1001800084BD09C08091B0008F7703C08091B0001A
:100190008F7D8093B000F0E0EE0FFF1FEE58FF4F11
:1001A000A591B4918FB7F894EC91611103C020959B
:1001B0002E2301C02E2B2C938FBF08953FB7F894A8
:1001C0008091530190915401A0915501B091560135
:1001D00026B5A89B05C02F3F19F00196A11DB11DA2
:1001E0003FBFBA2FA92F982F8827820F911DA11DDD
:1001F000B11DBC01CD0142E0660F771F881F991F1A
:100200004A95D1F70895CF92DF92EF92FF920F9324
:100210001F93CF93DF936C017A018B01C0E0D0E094
:10022000CE15DF0589F0D8016D918D01D601ED91D4
:10023000FC910190F081E02DC6010995892B11F404
:100240007E0102C02196ECCFC701DF91CF911F91B3
:100250000F91FF90EF90DF90CF900895FC01918D6A
:10026000828D981761F0828DDF01A80FB11D5D9618
:100270008C91928D9F5F9F73928F90E008958FEF86
:100280009FEF0895FC01918D828D981731F0828D3A
:10029000E80FF11D858D90E008958FEF9FEF089591
:1002A000FC01918D228D892F90E0805C9F4F821BF5
:1002B00091098F739927089587E591E00E94500175
:1002C00021E0892B09F420E0822F0895FC01848D20
:1002D000DF01A80FB11DA35ABF4F2C91848D90E070
:1002E00001968F739927848FA689B7892C93A0894B
:1002F000B1898C9180648C93938D848D981306C002
:100300000288F389E02D80818F7D80830895EF92AC
:10031000FF920F931F93CF93DF93EC0181E0888FBF
:100320009B8D8C8D981305C0E889F989808185FDA6
:1003300024C0F62E0B8D10E00F5F1F4F0F73112797
:10034000E02E8C8DE8120CC00FB607FCFACFE889BE
:10035000F989808185FFF5CFCE010E946601F1CF3A
:100360008B8DFE01E80FF11DE35AFF4FF0820B8FDA
:10037000EA89FB898081806207C0EE89FF896083FA
:10038000E889F98980818064808381E090E0DF9151
:10039000CF911F910F91FF90EF900895CF93DF932E
:1003A000EC01888D8823C9F0EA89FB89808185FD6D
:1003B00005C0A889B9898C9186FD0FC00FB607FCCE
:1003C000F5CF808185FFF2CFA889B9898C9185FF0F
:1003D000EDCFCE010E946601E7CFDF91CF91089566
:1003E00080E090E0892B29F00E945C0181110C943F
:1003F00000000895009769F0FC0101900020E9F7E2
:100400003197AF01481B590BBC0187E591E00C9473
:10041000030180E090E008958F929F92AF92BF9287
:100420000F931F93CF93DF93CDB7DEB7A1970FB68E
:10043000F894DEBF0FBECDBF19A2423008F44AE0E7
:100440008E010F5D1F4F842E912CA12CB12CA50184
:1004500094010E94B606E62FB901CA0101501109A4
:10046000EA3014F4E05D01C0E95CD801EC93232B81
:10047000242B252B61F7C8010E94FA01A1960FB623
:10048000F894DEBF0FBECDBFDF91CF911F910F91CA
:10049000BF90AF909F908F9008950E94DE061F92AC
:1004A0000F920FB60F9211242F933F938F939F9328
:1004B000AF93BF9380914F0190915001A091510152
:1004C000B091520130914E0123E0230F2D3720F4DB
:1004D0000196A11DB11D05C026E8230F0296A11D9E
:1004E000B11D20934E0180934F0190935001A09332
:1004F0005101B09352018091530190915401A09108
:100500005501B09156010196A11DB11D8093530173
:1005100090935401A0935501B0935601BF91AF91B0
:100520009F918F913F912F910F900FBE0F901F9031
:1005300018951F920F920FB60F9211242F933F938D
:100540004F935F936F937F938F939F93AF93BF93DB
:10055000EF93FF9387E591E00E946601FF91EF9191
:10056000BF91AF919F918F917F916F915F914F91CB
:100570003F912F910F900FBE0F901F9018951F92D3
:100580000F920FB60F9211242F938F939F93EF9397
:10059000FF93E0916701F09168018081E0916D0126
:1005A000F0916E0182FD12C09081809170018F5F89
:1005B0008F7320917101821751F0E0917001F0E08A
:1005C000E95AFE4F958F8093700101C08081FF91A1
:1005D000EF919F918F912F910F900FBE0F901F90D1
:1005E0001895789484B5826084BD84B5816084BD9B
:1005F00085B5826085BD85B5816085BD80916E00C1
:10060000816080936E0010928100809181008260F1
:10061000809381008091810081608093810080912E
:1006200080008160809380008091B100846080931D
:10063000B1008091B00081608093B00080917A0019
:10064000846080937A0080917A00826080937A003F
:1006500080917A00816080937A0080917A0080682E
:1006600080937A001092C100AAE1B1E021E0A031AC
:10067000B20701F18E9190E0FC01E057FF4F249109
:10068000FC01E458FF4F8491882381F390E0880FA8
:10069000991FFC01E859FF4FC591D491FC01EE5818
:1006A000FF4F859194918FB7F894E881E22BE8830E
:1006B0008FBFDCCFE0916701F091680182E0808319
:1006C000E0916301F09164011082E0916501F09185
:1006D00066018FEC808310926F01E0916B01F091C5
:1006E0006C0186E08083E0916901F0916A0180816C
:1006F00080618083E0916901F0916A018081886066
:100700008083E0916901F0916A0180818068808333
:10071000E0916901F0916A0180818F7D808313E40B
:1007200010937C0080917A00806480937A0080919D
:100730007A0086FDFCCFC091780080917900D0E0EE
:10074000D82B4E010D2E000CAA08BB08C501B40120
:100750000E948F052AE038E240EA5BE30E944406EB
:100760006B017C018AE191E00E94FA01D7FF0EC083
:100770008DE20E94870088279927DC018819990952
:10078000AA09BB094AE0BC01CD0103C04AE0C5018A
:10079000B4010E940C0285E291E00E94FA0142E05D
:1007A000C501B4010E940C0282E391E00E94FA01AB
:1007B00085E391E00E94FA0182E391E00E94FA0150
:1007C000A7019601C701B6010E94B106882319F05E
:1007D00082E491E01AC046015701E894B7F82FEF80
:1007E0003FEF4FE75FE7C501B4010E94B1068111F9
:1007F0000FC02FEF3FEF4FE75FE7C501B4010E9445
:10080000590518162CF486E491E00E94FA0172C092
:100810002FEF3FEF4FE75FE4C701B6010E943F06AD
:1008200018161CF48AE491E0F0CF2FEF3FEF4FE76A
:100830005FECC701B6010E94590587FDF3CF20E0A8
:1008400030E0A901C701B6010E94590587FF07C022
:100850008DE20E948700F7FAF094F7F8F0942AE00E
:1008600037ED43EA5BE3C701B6010E94ED044B019B
:100870005C010E945E056B017C010E948D059B015D
:10088000AC01C501B4010E94EC044B015C014AE0DB
:10089000C701B6010E940C028EE20E94870020E090
:1008A00030E040E251E4C501B4010E9444064B012E
:1008B0005C010E945E056B01E12CF12C4AE0C7014E
:1008C000B6010E940C02C701B6010E948D059B0172
:1008D000AC01C501B4010E94EC0420E030E040E22C
:1008E00051E40E9444060E945E0580E090E04AE0E8
:1008F0000E940C0282E391E00E94FA0161E08DE027
:100900000E94920020E1E22E21E0F22EBE016170F1
:100910007727F70181917F010E949200D595C795B5
:10092000FAE1EF16F1E0FF0689F70E94DE004B01C5
:100930005C0184EFC82EDD24D394E12CF12C0E94BD
:10094000DE00DC01CB0188199909AA09BB09883EA0
:100950009340A105B10558F021E0C21AD108E10881
:10096000F10888EE880E83E0981EA11CB11CC1140A
:10097000D104E104F10419F70E94F001D1CEE7E5BA
:10098000F1E01382128288EE93E0A0E0B0E084836D
:100990009583A683B78384E091E09183808385EC7F
:1009A00090E09587848784EC90E09787868780EC39
:1009B00090E0918B808B81EC90E0938B828B82EC2A
:1009C00090E0958B848B86EC90E0978B868B118ED4
:1009D000128E138E148E08955058BB27AA270E949A
:1009E00004050C9405060E94F70538F00E94FE05E8
:1009F00020F039F49F3F19F426F40C94F4050EF41A
:100A0000E095E7FB0C94EE05E92F0E94160658F3DB
:100A1000BA17620773078407950720F079F4A6F5E3
:100A20000C9438060EF4E0950B2EBA2FA02D0B0176
:100A3000B90190010C01CA01A0011124FF27591B23
:100A400099F0593F50F4503E68F11A16F040A22F29
:100A5000232F342F4427585FF3CF4695379527959A
:100A6000A795F0405395C9F77EF41F16BA0B620B99
:100A7000730B840BBAF09150A1F0FF0FBB1F661FE0
:100A8000771F881FC2F70EC0BA0F621F731F841F23
:100A900048F4879577956795B795F7959E3F08F049
:100AA000B0CF9395880F08F09927EE0F979587950B
:100AB00008950E94CA0508F481E008950E941E0668
:100AC00088F09F5798F0B92F9927B751B0F0E1F00F
:100AD000660F771F881F991F1AF0BA95C9F714C0BF
:100AE000B13091F00E943806B1E008950C943806B8
:100AF000672F782F8827B85F39F0B93FCCF38695F8
:100B000077956795B395D9F73EF490958095709554
:100B100061957F4F8F4F9F4F0895E89409C097FBD1
:100B20003EF490958095709561957F4F8F4F9F4FC4
:100B30009923A9F0F92F96E9BB279395F695879508
:100B400077956795B795F111F8CFFAF4BB0F11F4CB
:100B500060FF1BC06F5F7F4F8F4F9F4F16C0882372
:100B600011F096E911C0772321F09EE8872F762FA8
:100B700005C0662371F096E8862F70E060E02AF0E9
:100B80009A95660F771F881FDAF7880F96958795D5
:100B900097F90895990F0008550FAA0BE0E8FEEFAA
:100BA00016161706E807F907C0F012161306E40731
:100BB000F50798F0621B730B840B950B39F40A262A
:100BC00061F0232B242B252B21F408950A2609F408
:100BD000A140A6958FEF811D811D089597F99F670C
:100BE00080E870E060E008959FEF80EC08950024B5
:100BF0000A941616170618060906089500240A9482
:100C000012161306140605060895092E0394000C07
:100C100011F4882352F0BB0F40F4BF2B11F460FF96
:100C200004C06F5F7F4F8F4F9F4F089557FD9058BF
:100C3000440F551F59F05F3F71F04795880F97FBA0
:100C4000991F61F09F3F79F087950895121613065A
:100C50001406551FF2CF4695F1DF08C01616170689
:100C60001806991FF1CF86957105610508940895BE
:100C7000E894BB2766277727CB0197F908950E9450
:100C8000CA0508F48FEF08950E9457060C940506D4
:100C90000E94F70538F00E94FE0520F0952311F020
:100CA0000C94EE050C94F40511240C9439060E9462
:100CB000160670F3959FC1F3950F50E0551F629F84
:100CC000F001729FBB27F00DB11D639FAA27F00DA5
:100CD000B11DAA1F649F6627B00DA11D661F829FCC
:100CE0002227B00DA11D621F739FB00DA11D621FB1
:100CF000839FA00D611D221F749F3327A00D611DCE
:100D0000231F849F600D211D822F762F6A2F1124AF
:100D10009F5750409AF0F1F088234AF0EE0FFF1FE2
:100D2000BB1F661F771F881F91505040A9F79E3F39
:100D3000510580F00C94EE050C9439065F3FE4F306
:100D4000983ED4F3869577956795B795F795E7958F
:100D50009F5FC1F7FE2B880F911D9695879597F998
:100D600008950E94CA05880B990B0895A1E21A2ED6
:100D7000AA1BBB1BFD010DC0AA1FBB1FEE1FFF1F3F
:100D8000A217B307E407F50720F0A21BB30BE40B8F
:100D9000F50B661F771F881F991F1A9469F76095D6
:100DA0007095809590959B01AC01BD01CF01089590
:100DB000EE0FFF1F0590F491E02D099481E090E083
:0A0DC000F8940C94E306F894FFCFBA
:100DCA00000000008701030150012E014201CE01FB
:100DDA00030405060708090A0B0C446563696D617B
:100DEA006C203D2000092042696E6172696F203DC6
:100DFA0020000D0A000920566F6C74616A65203D57
:0E0E0A0020006E616E00696E66006F766600F5
:00000001FF
