:100000000C945C000C946E000C946E000C946E00CA
:100010000C946E000C946E000C946E000C946E00A8
:100020000C946E000C946E000C946E000C946E0098
:100030000C946E000C946E000C946E000C946E0088
:100040000C94DB000C946E000C946E000C946E000B
:100050000C946E000C946E000C946E000C946E0068
:100060000C946E000C946E00000000080002010069
:100070000003040700000000000000000000000072
:10008000250028002B0000000000240027002A0083
:10009000040404040404040402020202020203032E
:1000A0000303030301020408102040800102040836
:1000B000102001020408102011241FBECFEFD8E049
:1000C000DEBFCDBF21E0A0E0B1E001C01D92AD30A8
:1000D000B207E1F70E9425010C94DC010C940000AA
:1000E00090E0FC01EC55FF4F2491FC01E057FF4FDD
:1000F0008491882399F090E0880F991FFC01EA57BA
:10010000FF4FA591B491FC01E458FF4F8591949164
:100110008FB7F894EC91E22BEC938FBF089590E0A9
:10012000FC01E859FF4F3491FC01EC55FF4F24913D
:10013000FC01E057FF4FE491EE2309F43BC0332369
:1001400039F1333091F038F43130A9F0323001F523
:1001500084B58F7D12C0373091F03830A1F0343043
:10016000B9F4809180008F7D03C0809180008F77EB
:10017000809380000DC084B58F7784BD09C08091C5
:10018000B0008F7703C08091B0008F7D8093B00066
:10019000F0E0EE0FFF1FE458FF4FA591B4918FB729
:1001A000F894EC91611103C020952E2301C02E2BF1
:1001B0002C938FBF08951F920F920FB60F921124A8
:1001C0002F933F938F939F93AF93BF938091090198
:1001D00090910A01A0910B01B0910C01309108019E
:1001E00023E0230F2D3720F40196A11DB11D05C07A
:1001F00026E8230F0296A11DB11D209308018093CC
:10020000090190930A01A0930B01B0930C01809116
:10021000040190910501A0910601B091070101969A
:10022000A11DB11D8093040190930501A0930601C7
:10023000B0930701BF91AF919F918F913F912F9103
:100240000F900FBE0F901F901895789484B5826020
:1002500084BD84B5816084BD85B5826085BD85B56A
:10026000816085BD80916E00816080936E001092E8
:100270008100809181008260809381008091810063
:1002800081608093810080918000816080938000F4
:100290008091B10084608093B1008091B000816052
:1002A0008093B00080917A00846080937A0080917E
:1002B0007A00826080937A0080917A0081608093D6
:1002C0007A0080917A00806880937A001092C10051
:1002D0008CE00E9470008AE00E9470008BE00E9417
:1002E0007000C0E0D0E010E410937C0080917A00B0
:1002F000806480937A0080917A0086FDFCCF8091A3
:1003000078002091790090E0922B909301018093E6
:100310000001893E23E092078CF4823391058CF032
:10032000833C91058CF08C3721E0920784F08B326E
:1003300022E092077CF0863193407CF085E090E0EB
:100340000EC080E090E00BC081E090E008C082E049
:1003500090E005C083E090E002C084E090E09093DC
:100360000301809302018330910571F03CF48130E8
:10037000910569F00297D1F461E015C084309105D0
:1003800049F0059739F012C061E08BE00DC061E0E3
:100390008CE00AC060E08BE00E948F0060E08CE09F
:1003A0000E948F0060E08AE00E948F00209709F48D
:0C03B0009BCF0E94000098CFF894FFCF74
:00000001FF
