:100000000C945D000C9485000C9485000C94850084
:100010000C9485000C9485000C9485000C9485004C
:100020000C9485000C9485000C9485000C9485003C
:100030000C9485000C9485000C9485000C9485002C
:100040000C945C020C9485000C94CC020C94A602D7
:100050000C9485000C9485000C9485000C9485000C
:100060000C9485000C9485000000000024002700FB
:100070002A0000000000250028002B0004040404CE
:100080000404040402020202020203030303030342
:10009000010204081020408001020408102001021F
:1000A00004081020000000080002010000030407FB
:1000B0000000000000000000CA0311241FBECFEFA3
:1000C000D8E0DEBFCDBF11E0A0E0B1E0ECE4F8E0A5
:1000D00002C005900D92AA32B107D9F721E0AAE239
:1000E000B1E001C01D92A33DB207E1F710E0CDE5FC
:1000F000D0E004C02197FE010E941904CC35D1073D
:10010000C9F70E94FE020C9424040C940000E1EB59
:10011000F0E02491EDE9F0E09491E9E8F0E0E49179
:10012000EE2309F43BC0222339F1233091F038F457
:100130002130A9F0223001F524B52F7D12C02730DF
:1001400091F02830A1F02430B9F4209180002F7D67
:1001500003C0209180002F77209380000DC024B52C
:100160002F7724BD09C02091B0002F7703C02091C4
:10017000B0002F7D2093B000F0E0EE0FFF1FEE588F
:10018000FF4FA591B4912FB7F894EC91811103C062
:1001900090959E2301C09E2B9C932FBF0895CF92D4
:1001A000DF92EF92FF920F931F93CF93DF936C0137
:1001B0007A018B01C0E0D0E0CE15DF0589F0D801CF
:1001C0006D918D01D601ED91FC910190F081E02DB2
:1001D000C6010995892B11F47E0102C02196ECCF4E
:1001E000C701DF91CF911F910F91FF90EF90DF90AA
:1001F000CF900895FC01918D828D981761F0828DCA
:10020000DF01A80FB11D5D968C91928D9F5F9F734A
:10021000928F90E008958FEF9FEF0895FC01918DEC
:10022000828D981731F0828DE80FF11D858D90E059
:1002300008958FEF9FEF0895FC01918D228D892FF6
:1002400090E0805C9F4F821B91098F7399270895DE
:1002500086E391E00E941C0121E0892B09F420E053
:10026000822F0895FC01848DDF01A80FB11DA35AD0
:10027000BF4F2C91848D90E001968F739927848FC6
:10028000A689B7892C93A089B1898C9180648C93BD
:10029000938D848D981306C00288F389E02D8081A8
:1002A0008F7D80830895EF92FF920F931F93CF93DA
:1002B000DF93EC0181E0888F9B8D8C8D981305C0B6
:1002C000E889F989808185FD24C0F62E0B8D10E028
:1002D0000F5F1F4F0F731127E02E8C8DE8120CC09B
:1002E0000FB607FCFACFE889F989808185FFF5CF41
:1002F000CE010E943201F1CF8B8DFE01E80FF11D7E
:10030000E35AFF4FF0820B8FEA89FB89808180627C
:1003100007C0EE89FF896083E889F989808180645C
:10032000808381E090E0DF91CF911F910F91FF904A
:10033000EF900895CF93DF93EC01888D8823C9F067
:10034000EA89FB89808185FD05C0A889B9898C91DE
:1003500086FD0FC00FB607FCF5CF808185FFF2CF79
:10036000A889B9898C9185FFEDCFCE010E94320119
:10037000E7CFDF91CF91089580E090E0892B29F0BD
:100380000E94280181110C9400000895009769F0E3
:10039000FC0101900020E9F73197AF01481B590B90
:1003A000BC0186E391E00C94CF0080E090E00895DA
:1003B0008F929F92AF92BF92CF92DF92EF92FF9275
:1003C0000F931F93CF93DF93CDB7DEB7A1970FB6EF
:1003D000F894DEBF0FBECDBF6C01990FEE08FF0889
:1003E000F7FE31C0E0913601F09137010190F081C4
:1003F000E02D6DE286E391E009958C0122273327F9
:10040000A9012C193D094E095F0919A2CE01819657
:100410007C019AE0892E912CA12CB12CCA01B90142
:10042000A50194010E94F703605DF70162937F01CB
:10043000211531054105510589F7CF010E94C601FB
:10044000080F191F1EC0A701960119A28E010F5D8A
:100450001F4F8AE0C82ED12CE12CF12CCA01B90122
:10046000A70196010E94F703605DF80162938F0176
:10047000211531054105510589F7CF010E94C601BB
:100480008C0186E291E00E94C601800F911FA19627
:100490000FB6F894DEBF0FBECDBFDF91CF911F9195
:1004A0000F91FF90EF90DF90CF90BF90AF909F9013
:1004B0008F9008950E941F041F920F920FB60F9203
:1004C00011242F933F938F939F93AF93BF9380916A
:1004D000320190913301A0913401B09135013091F6
:1004E000310123E0230F2D3720F40196A11DB11D0A
:1004F00005C026E8230F0296A11DB11D20933101EE
:100500008093320190933301A0933401B09335016D
:1005100080912D0190912E01A0912F01B091300179
:100520000196A11DB11D80932D0190932E01A093E2
:100530002F01B0933001BF91AF919F918F913F9167
:100540002F910F900FBE0F901F9018951F920F9232
:100550000FB60F9211242F933F934F935F936F9396
:100560007F938F939F93AF93BF93EF93FF9386E314
:1005700091E00E943201FF91EF91BF91AF919F9165
:100580008F917F916F915F914F913F912F910F903C
:100590000FBE0F901F9018951F920F920FB60F92DB
:1005A00011242F938F939F93EF93FF93E091460134
:1005B000F09147018081E0914C01F0914D0182FD65
:1005C00012C0908180914F018F5F8F7320915001F5
:1005D000821751F0E0914F01F0E0EA5CFE4F958FF9
:1005E00080934F0101C08081FF91EF919F918F9186
:1005F0002F910F900FBE0F901F901895789484B58F
:10060000826084BD84B5816084BD85B5826085BD0E
:1006100085B5816085BD80916E00816080936E009C
:10062000109281008091810082608093810080918E
:10063000810081608093810080918000816080933F
:1006400080008091B10084608093B1008091B000FF
:1006500081608093B00080917A00846080937A00FA
:1006600080917A00826080937A0080917A00816024
:1006700080937A0080917A00806880937A0010924B
:10068000C10081E00E948700EDE9F0E02491E9E8F3
:10069000F0E08491882399F090E0880F991FFC0185
:1006A000E859FF4FA591B491FC01EE58FF4F859199
:1006B00094918FB7F894EC91E22BEC938FBFE0917B
:1006C0004601F091470182E08083E0914201F09180
:1006D00043011082E0914401F09145018FEC808349
:1006E00010924E01E0914A01F0914B0186E0808327
:1006F000E0914801F0914901808180618083E0911F
:100700004801F0914901808188608083E09148012F
:10071000F0914901808180688083E0914801F091E7
:10072000490180818F7D8083C9E0D0E00DEF1FEF0C
:1007300086E391E00E941C01892B49F186E391E058
:100740000E94FA0080932C01813761F08737F9F419
:1007500081E00E94870010932B0100932A0180E121
:1007600091E009C080E00E948700D0932B01C093E4
:100770002A018DE191E00E94C60186E291E00E948B
:10078000C60180912A0190912B010E94D8010E94FC
:10079000BC01CECFE6E3F1E01382128288EE93E053
:1007A000A0E0B0E084839583A683B78384E091E0E2
:1007B0009183808385EC90E09587848784EC90E03A
:1007C0009787868780EC90E0918B808B81EC90E01E
:1007D000938B828B82EC90E0958B848B86EC90E0FF
:1007E000978B868B118E128E138E148E0895A1E234
:1007F0001A2EAA1BBB1BFD010DC0AA1FBB1FEE1F9B
:10080000FF1FA217B307E407F50720F0A21BB30BE5
:10081000E40BF50B661F771F881F991F1A9469F761
:1008200060957095809590959B01AC01BD01CF01BD
:100830000895EE0FFF1F0590F491E02D099481E0DB
:0C08400090E0F8940C942404F894FFCF8E
:10084C00000000005301CF001C01FA000E019A01B8
:10085C0052657374610D0A20433A0D0A0053756D8D
:0A086C00610D0A20433A0D0A000056
:00000001FF
