:100000000C945D000C9485000C9485000C94850084
:100010000C9485000C9485000C9485000C9485004C
:100020000C9485000C9485000C9485000C943D0282
:100030000C9485000C9485000C9485000C9485002C
:100040000C94F3010C9485000C9485000C948500AD
:100050000C9485000C9485000C9485000C9485000C
:100060000C9485000C94850000000008000201003B
:100070000003040700000000000000000000000072
:10008000250028002B0000000000240027002A0083
:10009000040404040404040402020202020203032E
:1000A0000303030301020408102040800102040836
:1000B0001020010204081020B80311241FBECFEF46
:1000C000D8E0DEBFCDBF11E0A0E0B1E0EAEDF8E09E
:1000D00002C005900D92A030B107D9F721E0A0E051
:1000E000B1E001C01D92A733B207E1F710E0CDE502
:1000F000D0E004C02197FE010E946504CC35D107F1
:10010000C9F70E94FE020C946B040C940000CF937C
:10011000DF93DC018C918C3008F06DC09B0133279C
:10012000F901EC55FF4F8491F901E057FF4F2491FD
:10013000222399F030E0220F331FF901EA57FF4FD5
:10014000C591D491F901E458FF4F259134919FB79F
:10015000F894E881E82BE8839FBF8C91E82FF0E0CA
:100160009F01220F331FE20FF31FED5EFE4F6F73EF
:100170009081907C692B608311961C921197129646
:100180001C9212976CE00E9452049CE0899FB0017F
:10019000112440E050E09A01260F371FF901EE0FBD
:1001A000FF1F2E0F3F1FF901ED5EFE4F908196FD60
:1001B00016C04F5F5F4F4C30510569F781110FC07A
:1001C0001092800082E0809381001092850010924E
:1001D0008400B19A80916F00826080936F00EC91EF
:1001E000F0E0CF01880F991FE80FF91FED5EFE4F79
:1001F0008081806480838C91DF91CF91089590E01D
:10020000FC01E859FF4F3491FC01EC55FF4F24915C
:10021000FC01E057FF4FE491EE2309F43BC0332388
:1002200039F1333091F038F43130A9F0323001F542
:1002300084B58F7D12C0373091F03830A1F0343062
:10024000B9F4809180008F7D03C0809180008F770A
:10025000809380000DC084B58F7784BD09C08091E4
:10026000B0008F7703C08091B0008F7D8093B00085
:10027000F0E0EE0FFF1FE458FF4FA591B4918FB748
:10028000F894EC91611103C020952E2301C02E2B10
:100290002C938FBF08953FB7F89480910F019091F0
:1002A0001001A0911101B091120126B5A89B05C0C3
:1002B0002F3F19F00196A11DB11D3FBFBA2FA92FE5
:1002C000982F8827820F911DA11DB11DBC01CD0162
:1002D00042E0660F771F881F991F4A95D1F708954E
:1002E000CF92DF92EF92FF92CF93DF93EC016032D7
:1002F00082E078070CF03DC077FD06C0653B7105D4
:100300002CF064EB70E002C060E070E0898128E8C6
:1003100030E06901C81AD10887FDD394CC0CDD1CEC
:10032000CC0CDD1C0D2C000CEE08FF088A8128E5A2
:1003300032E0281B310987FD3395220F331F220F2E
:10034000331FC901330FAA0BBB0B9C01AD012C1944
:100350003D094E095F09DB010E94190424EB30E0DE
:1003600040E050E00E94EF03C20ED31EE41EF51ED3
:10037000B60188818C3080F5998148E850E0491BAE
:10038000510997FD5395440F551F440F551F64178E
:10039000750784F09A8128E532E0291B310997FD21
:1003A0003395220F331F220F331FAB012617370758
:1003B0000CF4A90142505109440F551F2FB7F8946E
:1003C00090E0FC01EE0FFF1F8E0F9F1FFC01ED5E02
:1003D000FE4F528341832FBFDF91CF91FF90EF906B
:1003E000DF90CF9008951F920F920FB60F921124B5
:1003F0002F933F938F939F93AF93BF9380910B0164
:1004000090910C01A0910D01B0910E0130910A0163
:1004100023E0230F2D3720F40196A11DB11D05C047
:1004200026E8230F0296A11DB11D20930A01809397
:100430000B0190930C01A0930D01B0930E018091DC
:100440000F0190911001A0911101B091120101963C
:10045000A11DB11D80930F0190931001A093110174
:10046000B0931201BF91AF919F918F913F912F91C6
:100470000F900FBE0F901F9018951F920F920FB6FE
:100480000F9211242F933F934F935F936F937F931A
:100490008F939F93AF93BF93EF93FF93809101014D
:1004A00087FF05C010928500109284001BC0209128
:1004B0000101022E000C330B8091000190E02817FF
:1004C000390784F480910101082E000C990BFC017E
:1004D000EE0FFF1F8E0F9F1FFC01ED5EFE4F808110
:1004E00086FD15C0809101018F5F809301012091ED
:1004F0000101022E000C330B8091000190E02817BF
:100500003907C4F4809101018C3064F113C08091EB
:100510000101082E000C990BFC01EE0FFF1F8E0F3E
:100520009F1FFC01ED5EFE4F808160E08F730E9493
:10053000FF00D8CF8091840090918500049680348C
:100540009C4918F480E49CE905C080918400909156
:100550008500049690938900809388008FEF8093A4
:1005600001013BC020918400309185008091010100
:10057000082E000C990BFC01EE0FFF1F8E0F9F1F22
:10058000FC01ED5EFE4F81819281820F931F90935B
:1005900089008093880080910101082E000C990B3E
:1005A000FC01EE0FFF1F8E0F9F1FFC01ED5EFE4F43
:1005B000808186FF12C080910101082E000C990BEA
:1005C000FC01EE0FFF1F8E0F9F1FFC01ED5EFE4F23
:1005D000808161E08F730E94FF00FF91EF91BF91D6
:1005E000AF919F918F917F916F915F914F913F91CB
:1005F0002F910F900FBE0F901F901895CF93DF9300
:1006000000D000D0CDB7DEB7789484B5826084BDC9
:1006100084B5816084BD85B5826085BD85B5816006
:1006200085BD80916E00816080936E001092810084
:10063000809181008260809381008091810081603F
:100640008093810080918000816080938000809100
:10065000B10084608093B1008091B000816080938C
:10066000B00080917A00846080937A0080917A0053
:10067000826080937A0080917A00816080937A0012
:1006800080917A00806880937A001092C10069E0BE
:1006900070E085E091E00E9487006AE070E082E00F
:1006A00091E00E94870088248A9493E0992EA12CDF
:1006B000B12C20E0222E20E0322E11E410937C0099
:1006C00080917A00806480937A0080917A0086FD20
:1006D000FCCFA091780080917900B0E0B82B23EB9B
:1006E00030E00E945E04A50194010E94EF03309364
:1006F000090120930801B90185E091E029833A833B
:100700004B835C830E94700129813A81B90182E0A8
:1007100091E00E9470010E944B012B013C0184E694
:10072000C82ED12CE12CF12C0E944B01DC01CB0115
:1007300084199509A609B709883E9340A105B1051A
:1007400058F021E0C21AD108E108F10888EE480EFD
:1007500083E0581E611C711CC114D104E104F10432
:1007600019F72114310409F4A9CF0E940000A6CF83
:10077000809100018C30A0F491E0980F90930001DB
:100780008093050190E0FC01EE0FFF1F8E0F9F1F6D
:10079000FC01ED5EFE4F88EB9BE09283818303C0FA
:1007A0008FEF80930501809100018C30A0F491E0DF
:1007B000980F909300018093020190E0FC01EE0FEE
:1007C000FF1F8E0F9F1FFC01ED5EFE4F88EB9BE02D
:1007D0009283818308958FEF809302010895052EFF
:1007E00097FB1EF400940E94060457FD07D00E9458
:1007F000210407FC03D04EF40C9406045095409558
:10080000309521953F4F4F4F5F4F089590958095BC
:10081000709561957F4F8F4F9F4F08950E944304BD
:10082000A59F900DB49F900DA49F800D911D112444
:100830000895B7FF0C940E040E940E04821B930BC4
:100840000895A1E21A2EAA1BBB1BFD010DC0AA1F11
:10085000BB1FEE1FFF1FA217B307E407F50720F029
:10086000A21BB30BE40BF50B661F771F881F991FA4
:100870001A9469F760957095809590959B01AC01ED
:10088000BD01CF010895A29FB001B39FC001A39FF6
:10089000700D811D1124911DB29F700D811D1124B9
:1008A000911D0895991B79E004C0991F961708F0CF
:1008B000961B881F7A95C9F7809508950E94430476
:1008C000B7FF0895821B930B0895EE0FFF1F05904D
:0A08D000F491E02D0994F894FFCF95
:00000001FF
