:100000000C945D000C9485000C9485000C94850084
:100010000C9485000C9485000C9485000C9485004C
:100020000C9485000C9485000C9485000C9485003C
:100030000C9485000C9485000C9485000C9485002C
:100040000C94BC020C9485000C9485000C948500E3
:100050000C9485000C9485000C9485000C9485000C
:100060000C9485000C94850000000008000201003B
:100070000003040700000000000000000000000072
:10008000250028002B0000000000240027002A0083
:10009000040404040404040402020202020203032E
:1000A0000303030301020408102040800102040836
:1000B0001020010204081020970311241FBECFEF67
:1000C000D8E0DEBFCDBF11E0A0E0B1E0E6E8F7E0A8
:1000D00002C005900D92A231B107D9F721E0A2E14B
:1000E000B1E001C01D92A333B207E1F710E0CDE506
:1000F000D0E004C02197FE010E94B603CC35D107A1
:10010000C9F70E9406030C94C1030C94000090E010
:10011000FC01EC55FF4F2491FC01E057FF4F849107
:10012000882399F090E0880F991FFC01EA57FF4F50
:10013000A591B491FC01E458FF4F859194918FB73C
:10014000F894EC91E22BEC938FBF089590E0FC01C2
:10015000E859FF4F3491FC01EC55FF4F2491FC010D
:10016000E057FF4FE491EE2309F43BC0332339F10C
:10017000333091F038F43130A9F0323001F584B5E4
:100180008F7D12C0373091F03830A1F03430B9F49F
:10019000809180008F7D03C0809180008F77809355
:1001A00080000DC084B58F7784BD09C08091B000F8
:1001B0008F7703C08091B0008F7D8093B000F0E016
:1001C000EE0FFF1FE458FF4FA591B4918FB7F8943D
:1001D000EC91611103C020952E2301C02E2B2C938E
:1001E0008FBF08953FB7F89480912F01909130010F
:1001F000A0913101B091320126B5A89B05C02F3FD7
:1002000019F00196A11DB11D3FBFBA2FA92F982F3C
:100210008827820F911DA11DB11DBC01CD0142E0B7
:10022000660F771F881F991F4A95D1F708958F92FF
:100230009F92AF92BF92CF92DF92EF92FF926B01AB
:100240007C010E94F2004B015C01C114D104E10465
:10025000F104F1F00E94F200DC01CB018819990948
:10026000AA09BB09883E9340A105B10570F321E0BE
:10027000C21AD108E108F10888EE880E83E0981EC2
:10028000A11CB11CC114D104E104F10419F7DDCFA4
:10029000FF90EF90DF90CF90BF90AF909F908F90A6
:1002A0000895CF92DF92EF92FF920F931F93CF9317
:1002B000DF936C017A018B01C0E0D0E0CE15DF0541
:1002C00089F0D8016D918D01D601ED91FC910190DD
:1002D000F081E02DC6010995892B11F47E0102C041
:1002E0002196ECCFC701DF91CF911F910F91FF9025
:1002F000EF90DF90CF900895CF93DF93EC0160E013
:100300008E810E94A60061E08E810E94A60060E0BE
:100310008E810E94A6008BE891E00197F1F7DF91B2
:10032000CF910895CF92DF92EF92FF920F931F9398
:10033000CF93DF937C016C0187E0C80ED11CC0E035
:10034000D0E0062F10E0B8010C2E02C0759567951D
:100350000A94E2F76170F60181916F010E94A60094
:100360002196C430D10579F7C701DF91CF911F9154
:100370000F91FF90EF90DF90CF900C947C01CF9283
:10038000DF92EF92FF920F931F93CF93DF93EC01D5
:10039000F62E642F8C810E94A6008D818F3F19F06C
:1003A00060E00E94A6008F850F2D10E084FF25C01D
:1003B0006E0187E0C80ED11CE12CF12CB8010E2C87
:1003C00002C0759567950A94E2F76170F601819114
:1003D0006F010E94A600FFEFEF1AFF0A88E0E816FF
:1003E000F10461F7CE01DF91CF911F910F91FF9042
:1003F000EF90DF90CF900C947C01B80184E075956C
:1004000067958A95E1F7CE010E9492016F2DCE018A
:10041000DF91CF911F910F91FF90EF90DF90CF90E0
:100420000C94920141E00E94BF0181E090E00895A8
:1004300040E00C94BF01EF92FF920F931F93CF9374
:10044000DF93EC01623018F08F8588608F876B8BAB
:100450001C8A80E48D8B80E18E8B80E58F8B8C8174
:100460000E9487008D818F3F11F00E9487008E814E
:100470000E9487007E0187E0E80EF11C00E010E09A
:100480008F8584FD03C084E090E002C088E090E0A6
:100490000817190744F4F70181917F010E94870032
:1004A0000F5F1F4FEDCF8BE39DE00197F1F760E009
:1004B0008C810E94A60060E08E810E94A6008D8142
:1004C0008F3F19F060E00E94A6006F8564FD1DC09B
:1004D00063E0CE010E9492010BE416E4C80101978B
:1004E000F1F763E0CE010E949201C8010197F1F794
:1004F00063E0CE010E94920183E592E00197F1F75B
:1005000062E0CE010E94920116C06062CE010E949C
:1005100018028BE496E40197F1F76F856062CE01D3
:100520000E94180283E592E00197F1F76F856062FF
:10053000CE010E9418026F856062CE010E941802EF
:1005400084E0888B6CE0CE010E94180261E0CE014D
:100550000E9418028BE39FE10197F1F782E0898BFB
:1005600066E0CE01DF91CF911F910F91FF90EF9048
:100570000C9418020E94BC031F920F920FB60F92A8
:1005800011242F933F938F939F93AF93BF938091A9
:100590002B0190912C01A0912D01B0912E01309151
:1005A0002A0123E0230F2D3720F40196A11DB11D50
:1005B00005C026E8230F0296A11DB11D20932A0134
:1005C00080932B0190932C01A0932D01B0932E01C9
:1005D00080912F0190913001A0913101B0913201B1
:1005E0000196A11DB11D80932F0190933001A0931E
:1005F0003101B0933201BF91AF919F918F913F91A3
:100600002F910F900FBE0F901F901895789484B57E
:10061000826084BD84B5816084BD85B5826085BDFE
:1006200085B5816085BD80916E00816080936E008C
:10063000109281008091810082608093810080917E
:10064000810081608093810080918000816080932F
:1006500080008091B10084608093B1008091B000EF
:1006600081608093B00080917A00846080937A00EA
:1006700080917A00826080937A0080917A00816014
:1006800080937A0080917A00806880937A0010923B
:10069000C10062E082E191E00E941B0249E050E06B
:1006A00068E071E082E191E00E94510168EE73E040
:1006B00080E090E00E94170100E010E0CDE0D0E083
:1006C00068E182E191E00E94180266E970E080E052
:1006D00090E00E941701219799F7CDE1D0E06CE1FD
:1006E00082E191E00E94180266E970E080E090E00B
:1006F0000E941701219799F7C0E1D0E068E182E1FB
:1007000091E00E94180266E970E080E090E00E94AB
:100710001701219799F768EE73E080E090E00E945E
:1007200017010115110551F20E940000C7CFE2E147
:10073000F1E01382128284E091E09183808388E06B
:1007400084838FEF858389E0868384E0878385E0D7
:10075000808786E0818787E08287138614861586E6
:100760001686178661E0CF010C941B02EE0FFF1F67
:100770000590F491E02D099481E090E0F8940C94B8
:06078000C103F894FFCF55
:1007860000000000120251014A6F7365204C756922
:020796007300EE
:00000001FF
