:100000000C9467000C948F000C948F000C948F005C
:100010000C948F000C948F000C948F000C948F0024
:100020000C948F000C948F000C948F000C948F0014
:100030000C948F000C948F000C948F000C948F0004
:100040000C9430020C948F000C948F000C948F0051
:100050000C948F000C948F000C948F000C948F00E4
:100060000C947A020C948F00A705AE05BA05CB0557
:10007000CD05D405E005F1050706090600000008D6
:10008000000201000003040700000000000000005F
:1000900000000000250028002B00000000002400C4
:1000A00027002A00040404040404040402020202D7
:1000B000020203030303030301020408102040802B
:1000C000010204081020010204081020BC0A1124B7
:1000D0001FBECFEFD8E0DEBFCDBF11E0A0E0B1E0A2
:1000E000ECE3F7E102C005900D92A23DB107D9F70C
:1000F00022E0A2EDB1E001C01D92AF3AB207E1F7F4
:1001000010E0C7E6D0E004C02197FE010E94670B13
:10011000C636D107C9F70E9405070C949C0B0C94B6
:100120000000CF92DF92EF92FF920F931F93CF9335
:10013000DF936C017A018B01C0E0D0E0CE15DF05C2
:1001400089F0D8016D918D01D601ED91FC9101905E
:10015000F081E02DC6010995892B11F47E0102C0C2
:100160002196ECCFC701DF91CF911F910F91FF90A6
:10017000EF90DF90CF90089585ED8093BC00809143
:10018000BC0084FDFCCF10926302089540911802D8
:10019000262F30E0240F311D21323105DCF420916F
:1001A00063022430C9F4FC0180E090E0861758F423
:1001B000309118022191DC01AA50BE4FA30FB11D4E
:1001C0002C930196F3CF80911802680F6093180268
:1001D00080E0089581E0089582E00895089581E027
:1001E00090E03091670220916602321710F480E0AF
:1001F00090E0919581959109089580916702909181
:100200006602891730F48F5F8093670280E090E088
:1002100008958FEF9FEF08958091660290E02091FE
:100220006702821B91090895CF92DF92EF92FF92AD
:100230000F931F93CF93DF937C01262F972F8A0173
:100240008091F501882391F0C62FD72F6E01C40E3F
:10025000D51ECC15DD0571F06991D701ED91FC91AA
:100260000190F081E02DC7010995F3CF642F822F13
:100270000E94C600C801DF91CF911F910F91FF909E
:10028000EF90DF90CF900895CF93DF931F92CDB77B
:10029000DEB769832091F5012223D1F02091640219
:1002A000203240F021E030E0FC013383228380E003
:1002B00090E015C080916502E82FF0E0EB52FE4F10
:1002C000998190838F5F809365028093640205C05B
:1002D00061E0CE0101960E94C60081E090E00F909F
:1002E000DF91CF910895CF93FC01C48121E0209349
:1002F000F501C093D40110926502109264028385C7
:10030000682B8DE792E00E94440180916402813263
:1003100008F046C0909163029111FCCF92E0909357
:10032000630291E0909362029FEF90933D021092DE
:100330005F0280935E02A5EDB1E02EE332E0F901A9
:100340009E2F921B981718F49D919193F9CF1092BC
:10035000600280916002CC0FC82BC0936002809134
:100360006102813061F41092610280916002809399
:10037000BB008091BC0083FDF8CF85EC01C085EE09
:100380008093BC00809163028230E1F380913D0252
:100390008F3F31F080913D02803211F080913D021B
:1003A00010926502109264021092F501CF910895A7
:1003B0000F931F93CF938C01C62F0E9473016C2F54
:1003C0006460C8010E9473016C2F6B7FC8010E949A
:1003D000730183EC90E00197F1F7CF911F910F919A
:1003E000089580E480937C0080917A0080648093FB
:1003F0007A0080917A0086FDFCCF80917800209170
:10040000790090E0922B9093D3018093D201893EA2
:1004100023E092078CF4823391058CF0833C9105A4
:100420008CF08C3721E0920784F08B3222E0920727
:100430007CF0863193407CF085E090E0089580E088
:1004400090E0089581E090E0089582E090E00895C2
:1004500083E090E0089584E090E008950E94970B77
:100460001F920F920FB60F9211242F933F938F93E9
:100470009F93AF93BF938091750290917602A09164
:100480007702B09178023091740223E0230F2D3768
:1004900020F40196A11DB11D05C026E8230F029688
:1004A000A11DB11D20937402809375029093760272
:1004B000A0937702B09378028091790290917A02AA
:1004C000A0917B02B0917C020196A11DB11D809389
:1004D000790290937A02A0937B02B0937C02BF9141
:1004E000AF919F918F913F912F910F900FBE0F90E1
:1004F0001F9018951F920F920FB60F9211242F93F1
:100500003F934F935F936F937F938F939F93AF939B
:10051000BF93EF93FF938091B900887F803609F4F1
:100520009CC068F5883209F45BC090F4803109F40E
:1005300054C038F4882309F4F6C0883009F44DC05B
:10054000F6C0883109F44CC0803209F45DC0EFC0B8
:10055000803409F468C048F4803309F455C0883306
:1005600009F0E5C080933D02D8C0803509F44FC042
:10057000883509F45DC0883409F0D9C0D6C08839FF
:1005800009F4C7C0A8F4883709F467C038F488367E
:1005900009F463C0803709F460C0C9C0883809F421
:1005A000B8C0803909F45FC0803809F0C0C05BC0B2
:1005B000803B09F486C038F4803A09F466C0883A72
:1005C00009F47FC0B4C0803C09F4A7C0883C09F49A
:1005D000A4C0883B09F48AC0AAC08091600210C000
:1005E00090915F0280915E02981770F5E0915F0232
:1005F00081E08E0F80935F02F0E0E25CFD4F80812E
:100600008093BB0085EC86C080933D028EC0E09154
:100610005F0281E08E0F80935F028091BB00F0E06B
:10062000E25CFD4F808390915F0280915E026EC01C
:10063000E0915F0281E08E0F80935F028091BB00AA
:10064000F0E0E25CFD4F80838091620281116DC019
:1006500081E08093610284EA61C083E08093630259
:1006600010923C02CFCF80913C02803208F051C002
:10067000E0913C0281E08E0F80933C028091BB00B0
:10068000F0E0E45EFD4F8083BDCF85EC8093BC003D
:100690001092630280913C02803230F4E0913C027F
:1006A000F0E0E45EFD4F108260913C0270E0E0916A
:1006B0001A02F0911B028CE192E0099510923C0223
:1006C00036C084E0809363021092190210921802DF
:1006D000E0911602F091170209958091180281119C
:1006E00005C081E0809318021092F601E091190292
:1006F00081E08E0F80931902F0E0EA50FE4F808176
:100700008093BB009091190280911802981708F409
:1007100079CF85E88093BC000AC085EC8093BC004B
:100720001092630204C010923D020E94BC00FF912F
:10073000EF91BF91AF919F918F917F916F915F9159
:100740004F913F912F910F900FBE0F901F901895D2
:10075000FF920F931F93CF93DF931F92CDB7DEB716
:100760008C01F62E962F907F692F642BC801498348
:100770000E94D80180E1F89EB00111244981642BC8
:10078000C8010F90DF91CF911F910F91FF900C94B2
:10079000D80141E00E94A80381E090E008953FB7AE
:1007A000F8948091790290917A02A0917B02B091A5
:1007B0007C0226B5A89B05C02F3F19F00196A11D0C
:1007C000B11D3FBFBA2FA92F982F8827820F911DE7
:1007D000A11DB11DBC01CD0142E0660F771F881F2E
:1007E000991F4A95D1F70895009769F0FC0101908F
:1007F0000020E9F73197AF01481B590BBC0183EA90
:1008000092E00C94910080E090E0089590E0FC016B
:10081000E854FF4F2491FC01EC55FF4F849188234D
:1008200099F090E0880F991FFC01E656FF4FA591C3
:10083000B491FC01E057FF4F859194918FB7F894E4
:10084000EC91E22BEC938FBF089540E061E083EAE6
:1008500092E00E94A8038BE39FE10197F1F70895CE
:100860000C94F403CF93DF93CDB7DEB728970FB680
:10087000F894DEBF0FBECDBF28E0E8E0F1E0DE0176
:10088000119601900D922A95E1F72091AB0226175F
:1008900010F46FEF620FFE013196E60FF11DE60FC7
:1008A000F11D9081682F690F606840E083EA92E053
:1008B00028960FB6F894DEBF0FBECDBFDF91CF9163
:1008C0000C94A8038F929F92AF92BF92CF92DF9227
:1008D000EF92FF920F931F93CF93DF93CDB7DEB7C5
:1008E000A1970FB6F894DEBF0FBECDBF6B017C01A0
:1008F00097FF31C0E091A302F091A4020190F08132
:10090000E02D6DE283EA92E009958C0122273327DE
:10091000A9012C193D094E095F0919A2CE01819642
:100920007C019AE0892E912CA12CB12CCA01B9012D
:10093000A50194010E94260B605DF70162937F017F
:10094000211531054105510589F7CF010E94F403B6
:10095000800F911F1DC09B01AC0119A28E010F5D7C
:100960001F4F8AE0C82ED12CE12CF12CCA01B9010D
:10097000A70196010E94260B605DF80162938F012A
:10098000211531054105510589F7CF010E94F40376
:10099000A1960FB6F894DEBF0FBECDBFDF91CF9109
:1009A0001F910F91FF90EF90DF90CF90BF90AF908D
:1009B0009F908F90089590E0FC01E458FF4F349190
:1009C000FC01E854FF4F2491FC01EC55FF4FE491EA
:1009D000EE2309F43BC0332339F1333091F038F47E
:1009E0003130A9F0323001F584B58F7D12C0373037
:1009F00091F03830A1F03430B9F4809180008F7DCF
:100A000003C0809180008F77809380000DC084B5F3
:100A10008F7784BD09C08091B0008F7703C080912B
:100A2000B0008F7D8093B000F0E0EE0FFF1FE05725
:100A3000FF4FA591B4918FB7F894EC91611103C069
:100A400020952E2301C02E2B2C938FBF0895CF937A
:100A5000DF93EC018091910290919202029709F547
:100A6000C130D10569F024F42097D9F460E009C0C1
:100A7000C230D10561F0C330D10599F460E008C0FF
:100A800061E0809195020E94DB0461E006C061E0B4
:100A9000809195020E94DB0460E0809197020E94A1
:100AA000DB048091910290919202049709F03FC07B
:100AB000C130D105B9F04CF42097C9F561E08091BF
:100AC00095020E94DB0460E013C0C230D105D9F06A
:100AD000C330D10561F561E0809195020E94DB048D
:100AE00060E017C060E0809195020E94DB0461E045
:100AF000809197020E94DB0461E0809199020E943C
:100B0000DB0460E010C060E0809195020E94DB048D
:100B100061E0809197020E94DB0460E0809199027D
:100B20000E94DB0461E080919B020E94DB048091C3
:100B3000910290919202059709F086C0CA30D105C2
:100B400008F082C0FE01EC5CFF4F0C94670B60E084
:100B5000809195020E94DB0461E061C060E08091B9
:100B600095020E94DB0461E0809197020E94DB0401
:100B700060E05AC060E0809195020E94DB0461E071
:100B8000809197020E94DB0460E0809199020E94AC
:100B9000DB0461E04EC060E001C061E0809195023D
:100BA0000E94DB0461E006C061E0809195020E9432
:100BB000DB0460E0809197020E94DB0460E00BC0E0
:100BC00061E0809195020E94DB0460E080919702D1
:100BD0000E94DB0461E0809199020E94DB0461E0E5
:100BE00010C061E0809195020E94DB0460E080917A
:100BF00097020E94DB0461E0809199020E94DB046D
:100C000060E080919B020E94DB0460E017C061E01D
:100C100001C060E0809195020E94DB0460E0809159
:100C200097020E94DB0461E0809199020E94DB043C
:100C300060E080919B020E94DB0461E080919D0254
:100C4000DF91CF910C94DB04DF91CF9108954F9207
:100C50005F926F927F928F929F92AF92BF92EF922C
:100C6000FF920F931F93CF93DF93EC0197FF04C084
:100C7000CC27DD27C81BD90B181619063CF481E0D8
:100C800090E090938A028093890206C0892B21F01C
:100C900010928A021092890204E010E08AE0E82EA5
:100CA000F12C209709F468C00E94CF0380909F0226
:100CB0009090A002A090A102B090A2022B013C0152
:100CC000481859086A087B0880908B0290908C0223
:100CD000A0908D02B0908E02481459046A047B04DF
:100CE00000F360939F027093A0028093A1029093FF
:100CF000A2022091890230918A0280919302909100
:100D000094022130310589F40196909394028093E6
:100D1000930220918F023091900282179307C1F4C1
:100D2000109294021092930213C0892B41F4809187
:100D30008F029091900290939402809393028091FD
:100D4000930290919402019790939402809393025E
:100D5000219720919102309192028091930290917B
:100D600094022530310511F4B70101C0B8010E9489
:100D7000120B0E94270595CFDF91CF911F910F9104
:100D8000FF90EF90BF90AF909F908F907F906F906B
:100D90005F904F9008958F929F92AF92BF92CF92A3
:100DA000DF92EF92FF926B017C010E94CF034B0117
:100DB0005C01C114D104E104F104F1F00E94CF03FD
:100DC000DC01CB0188199909AA09BB09883E934027
:100DD000A105B10570F321E0C21AD108E108F108BC
:100DE00088EE880E83E0981EA11CB11CC114D104AA
:100DF000E104F10419F7DDCFFF90EF90DF90CF9081
:100E0000BF90AF909F908F900895789484B5826042
:100E100084BD84B5816084BD85B5826085BD85B59E
:100E2000816085BD80916E00816080936E0010921C
:100E30008100809181008260809381008091810097
:100E40008160809381008091800081608093800028
:100E50008091B10084608093B1008091B000816086
:100E60008093B00080917A00846080937A008091B2
:100E70007A00826080937A0080917A00816080930A
:100E80007A0080917A00806880937A001092C10085
:100E9000109267021092660210926502109264022C
:100EA0001092630281E0809362021092610261E01D
:100EB00082E10E94DB0461E083E10E94DB04809117
:100EC000B9008E7F8093B9008091B9008D7F8093A7
:100ED000B90088E48093B80085E48093BC00109248
:100EE000A8028091AD02823018F098E09093A80299
:100EF0008093AB0262E370E080E090E00E94CB065A
:100F00006091AE0283EA92E00E94730168EE73E0A2
:100F100080E090E00E94CB0660E383EA92E00E94CA
:100F2000D801CBE4D6E4CE010197F1F760E383EA80
:100F300092E00E94D8012197F1F760E383EA92E002
:100F40000E94D80183E592E00197F1F760E283EA1D
:100F500092E00E94D8016091A802606240E083EABA
:100F600092E00E94A80384E08093A90240E06CE034
:100F700083EA92E00E94A8030E94250482E0809305
:100F8000AA0240E066E083EA92E00E94A80340E003
:100F900062E083EA92E00E94A8038BE39FE101975D
:100FA000F1F788E08093AE0260E083EA92E00E946D
:100FB00073018DE00E94060461E08DE00E94DB0475
:100FC00060E080E00E9432040E94250488E291E003
:100FD0000E94300461E080E00E9432048EE391E0E0
:100FE0000E94300420918F0230919002032E000C59
:100FF000440B550B60E077E883E993E00E94480BCF
:10100000CA01B90129E030E040E050E00E94480BFD
:1010100020938B0230938C0240938D0250938E026A
:101020008091040190910501892B09F45DC00E9413
:10103000F101909373028093720283309105F1F075
:101040008430910509F445C0892B51F7C091060100
:10105000D09107011C161D0654F480E79EEF0E94F4
:101060002706C059D140D0930701C093060161E023
:1010700080E00E9432040E94250418C0C09106013D
:10108000D0910701C11520E7D20754F480E991E01F
:101090000E942706C057DE4FD0930701C093060178
:1010A0000E94250461E080E00E94320488E491E01F
:1010B0000E94300461E085E00E94320460910601E4
:1010C00070910701072E000C880B990B0E94620497
:1010D00004C010920501109204016AEF70E080E0F4
:1010E00090E00E94CB069CCF81E090E090930501B8
:1010F000809304010E94250460E080E00E94320495
:1011000089E591E00E94300461E080E00E943204B1
:101110008DE691E00E9430048091060190910701D4
:101120009093030180930201809104019091050145
:10113000892B09F452C00E94F101909373028093AD
:1011400072028330910599F084309105D9F1892B91
:1011500059F7C0910201D09103011C161D06CCF471
:1011600080E79EEF0E942706C059D1400EC0C09173
:101170000201D0910301C11540E7D40754F480E97E
:1011800091E00E942706C057DE4FD0930301C09321
:1011900002010E94250461E080E00E94320488E49C
:1011A00091E00E94300461E085E00E943204609189
:1011B000020170910301072E000C880B990B0E940D
:1011C000620404C010920501109204016AEF70E0FD
:1011D00080E090E00E94CB06A7CF81E090E0909362
:1011E0000501809304010E94250460E080E00E94D4
:1011F000320487E791E00E94300461E080E00E94C1
:10120000320487E891E00E943004809104019091BB
:101210000501892B09F469C00E94F10190937302C2
:10122000809372020E94250461E080E00E943204F3
:1012300088E991E00E94300461E080E00E9432047D
:101240006091000170910101072E000C880B990B31
:101250000E94620462E370E080E090E00E94CB06AE
:10126000809172029091730283309105E9F084308D
:10127000910581F1892B49F680910001909101013E
:101280008E31910514F405960AC08837910514F43F
:101290000F9605C0803D52E0950704F54E96909359
:1012A0000101809300011AC0809100019091010119
:1012B0009C01215031092232310510F40597EFCFFE
:1012C0002539310510F40F97EACF243D324030F430
:1012D0004E97E5CF10920501109204016AEF70E07D
:1012E00080E090E00E94CB0690CFA0910001B091E9
:1012F000010120E63AEE0E946D0B60936E0270933E
:101300006F0280937002909371020E94250460E046
:1013100080E00E94320484EA91E00E94300461E09F
:1013200080E00E94320486EB91E00E94300420911C
:10133000060130910701C0910201D0910301609133
:101340006E0270916F028091700290917102C217CB
:10135000D3070CF073C0A9014C1B5D0BEA0150933D
:101360006D0240936C0250936B0240936A029A01A3
:10137000550F440B550B0E94480B30936902209384
:101380006802CE010E94270690E6892E9AEE992ED9
:10139000A12CB12C80916A0290916B02892B09F4E7
:1013A00048C08FEF9FEF0E942706809168029091BE
:1013B0006902092E000CAA0BBB0BC0906E02D090E4
:1013C0006F02E0907002F0907102C81AD90AEA0A1E
:1013D000FB0AC0926E02D0926F02E0927002F0920D
:1013E00071020E94250461E080E00E943204C7017E
:1013F000B601A50194010E94480BCA01B9016F5FB3
:101400007F4F8F4F9F4F0E94620480916A0290919C
:101410006B02019790936B0280936A02609168025D
:1014200070916902072E000C880B990B0E94CB0665
:10143000B1CF10920501109204016FC0C21BD30BF3
:10144000D0936D02C0936C02D0936B02C0936A027A
:101450009E010D2E000C440B550B0E94480B30933F
:10146000690220936802882799278C1B9D0B0E9494
:10147000270680E6882E8AEE982EA12CB12C80912A
:101480006A0290916B02892BA1F281E090E00E94A8
:1014900027068091680290916902092E000CAA0B20
:1014A000BB0BC0906E02D0906F02E0907002F09083
:1014B0007102C81AD90AEA0AFB0AC0926E02D092D7
:1014C0006F02E0927002F09271020E94250461E0C6
:1014D00080E00E943204C701B601A50194010E9478
:1014E000480BCA01B9016F5F7F4F8F4F9F4F0E941A
:1014F000620480916A0290916B02019790936B0253
:1015000080936A026091680270916902072E000C54
:10151000880B990B0E94CB06B2CF0E94250460E095
:1015200080E00E94320487E891E00E94300461E08C
:1015300080E00E94320482EC91E00E94300464EF6B
:1015400071E080E090E00E94CB0660E080E00E94C5
:10155000320482EC91E00E94300461E080E00E945D
:10156000320487E891E00E94300464EF71E080E08B
:1015700090E00E94CB06D1CF0F931F93CF93DF93C0
:10158000EDE7F2E01382128288EE93E0A0E0B0E093
:1015900084839583A683B78384E191E091838083DC
:1015A000E3EAF2E01382128284E291E09183808385
:1015B00087E2848380E1818782E082871386C9E89D
:1015C000D2E01B861A86198218821E8A1F8A188EFC
:1015D000198E80E098E09F838E8304E010E01D87E1
:1015E0000C8785E090E09F878E8786E090E0998B5E
:1015F000888B87E090E09B8B8A8B84E00E940604B6
:101600008E850E94060488890E9406048A890E94A9
:1016100006041D8A1C8A19870887DF91CF911F91C4
:101620000F91089597FB072E16F4009407D077FDCD
:1016300009D00E94740B07FC05D03EF4909581956B
:101640009F4F0895709561957F4F0895A1E21A2EDE
:10165000AA1BBB1BFD010DC0AA1FBB1FEE1FFF1F56
:10166000A217B307E407F50720F0A21BB30BE40BA6
:10167000F50B661F771F881F991F1A9469F76095ED
:101680007095809590959B01AC01BD01CF010895A7
:10169000052E97FB1EF400940E945F0B57FD07D0A8
:1016A0000E94260B07FC03D04EF40C945F0B509560
:1016B0004095309521953F4F4F4F5F4F089590953E
:1016C0008095709561957F4F8F4F9F4F0895EE0FD6
:1016D000FF1F0590F491E02D09940E94880BB7FF3D
:1016E0000895821B930B0895AA1BBB1B51E107C0F1
:1016F000AA1FBB1FA617B70710F0A61BB70B881FA2
:10170000991F5A95A9F780959095BC01CD01089530
:10171000A29FB001B39FC001A39F700D811D112432
:10172000911DB29F700D811D1124911D089581E0BE
:0C17300090E0F8940C949C0BF894FFCF10
:10173C000500E40C010000380000400014005400C7
:10174C0000000000440114010C01FD00EF00EE004C
:10175C0000000000C9039100416E67756C6F206436
:10176C006520696E6963696F204C2F5220005365A8
:10177C006C203D20204F4B00706F733A20202020AE
:10178C00202020202020202000416E67756C6F20C7
:10179C0066696E616C204C2F522020200053656CC2
:1017AC00203D204F4B20005469656D706F203A200E
:1017BC004C2F5220202000202020202020202020D0
:1017CC002020202020202000202020206D696E75F4
:1017DC00746F730050726F6772616D61206F70650A
:1017EC0072616E646F00206D20202046616C746104
:1017FC006E00527574696E6120636F6D706C6574E8
:02180C00610079
:00000001FF
