:100000000C945D000C9485000C9485000C94850084
:100010000C9485000C9485000C9485000C9485004C
:100020000C9485000C9485000C9485000C9485003C
:100030000C9485000C9485000C9485000C9485002C
:100040000C94A5010C9485000C9415020C94EF01FE
:100050000C9485000C9485000C9485000C9485000C
:100060000C9485000C9485000000000024002700FB
:100070002A0000000000250028002B0004040404CE
:100080000404040402020202020203030303030342
:10009000010204081020408001020408102001021F
:1000A00004081020000000080002010000030407FB
:1000B0000000000000000000660311241FBECFEF07
:1000C000D8E0DEBFCDBF11E0A0E0B1E0E0E4F7E0B2
:1000D00002C005900D92AA31B107D9F721E0AAE13B
:1000E000B1E001C01D92A03CB207E1F710E0CDE500
:1000F000D0E004C02197FE010E949303CC35D107C4
:10010000C9F70E9447020C949E030C9400003FB76D
:10011000F8948091BC019091BD01A091BE01B09175
:10012000BF0126B5A89B05C02F3F19F00196A11D60
:10013000B11D3FBFBA2FA92F982F8827820F911D7D
:10014000A11DB11DBC01CD0142E0660F771F881FC4
:10015000991F4A95D1F70895CF92DF92EF92FF92BF
:100160000F931F93CF93DF936C017A018B01C0E053
:10017000D0E0CE15DF0589F0D8016D918D01D60153
:10018000ED91FC910190F081E02DC6010995892B3C
:1001900011F47E0102C02196ECCFC701DF91CF910F
:1001A0001F910F91FF90EF90DF90CF900895FC0189
:1001B000918D828D981761F0828DDF01A80FB11D9E
:1001C0005D968C91928D9F5F9F73928F90E00895C2
:1001D0008FEF9FEF0895FC01918D828D981731F07C
:1001E000828DE80FF11D858D90E008958FEF9FEFD0
:1001F0000895FC01918D228D892F90E0805C9F4FA6
:10020000821B91098F73992708958AE191E00E94DA
:10021000F90021E0892B09F420E0822F0895FC01E8
:10022000848DDF01A80FB11DA35ABF4F2C91848D7F
:1002300090E001968F739927848FA689B7892C93B4
:10024000A089B1898C9180648C93938D848D98134F
:1002500006C00288F389E02D80818F7D8083089518
:10026000EF92FF920F931F93CF93DF93EC0181E006
:10027000888F9B8D8C8D981305C0E889F9898081C2
:1002800085FD24C0F62E0B8D10E00F5F1F4F0F73FE
:100290001127E02E8C8DE8120CC00FB607FCFACFA8
:1002A000E889F989808185FFF5CFCE010E940F0191
:1002B000F1CF8B8DFE01E80FF11DE35AFF4FF08265
:1002C0000B8FEA89FB898081806207C0EE89FF89F4
:1002D0006083E889F98980818064808381E090E08F
:1002E000DF91CF911F910F91FF90EF900895CF93E1
:1002F000DF93EC01888D8823C9F0EA89FB8980812E
:1003000085FD05C0A889B9898C9186FD0FC00FB6FF
:1003100007FCF5CF808185FFF2CFA889B9898C9140
:1003200085FFEDCFCE010E940F01E7CFDF91CF9186
:10033000089580E090E0892B29F00E940501811149
:100340000C94000008950E9499031F920F920FB61B
:100350000F9211242F933F938F939F93AF93BF934B
:100360008091B8019091B901A091BA01B091BB01FF
:100370003091B70123E0230F2D3720F40196A11D02
:10038000B11D05C026E8230F0296A11DB11D2093C3
:10039000B7018093B8019093B901A093BA01B093CB
:1003A000BB018091BC019091BD01A091BE01B091B3
:1003B000BF010196A11DB11D8093BC019093BD01A9
:1003C000A093BE01B093BF01BF91AF919F918F9158
:1003D0003F912F910F900FBE0F901F9018951F9275
:1003E0000F920FB60F9211242F933F934F935F9369
:1003F0006F937F938F939F93AF93BF93EF93FF93ED
:100400008AE191E00E940F01FF91EF91BF91AF91BE
:100410009F918F917F916F915F914F913F912F911C
:100420000F900FBE0F901F9018951F920F920FB64E
:100430000F9211242F938F939F93EF93FF93E0914B
:100440002A01F0912B018081E0913001F09131017E
:1004500082FD12C09081809133018F5F8F73209154
:100460003401821751F0E0913301F0E0E65EFE4F77
:10047000958F8093330101C08081FF91EF919F910F
:100480008F912F910F900FBE0F901F901895789419
:1004900084B5826084BD84B5816084BD85B5826089
:1004A00085BD85B5816085BD80916E00816080933A
:1004B0006E001092810080918100826080938100A3
:1004C00080918100816080938100809180008160B3
:1004D000809380008091B10084608093B10080910E
:1004E000B00081608093B00080917A008460809336
:1004F0007A0080917A00826080937A0080917A00FD
:10050000816080937A0080917A00806880937A007D
:100510001092C100AAE1B1E021E0A031B20701F1DF
:100520008E9190E0FC01E057FF4F2491FC01E458CC
:10053000FF4F8491882381F390E0880F991FFC017D
:10054000E859FF4FC591D491FC01EE58FF4F8591BA
:1005500094918FB7F894E881E22BE8838FBFDCCFCA
:10056000E0912A01F0912B0182E08083E091260145
:10057000F09127011082E0912801F09129018FEC80
:10058000808310923201E0912E01F0912F0186E0DC
:100590008083E0912C01F0912D0180818061808326
:1005A000E0912C01F0912D01808188608083E091A1
:1005B0002C01F0912D01808180688083E0912C01D5
:1005C000F0912D0180818F7D8083A0E1B1E02DE746
:1005D00030E08D9190E0FC01EC55FF4F5491FC010F
:1005E000E057FF4F4491FC01E458FF4FE491EE23A4
:1005F00009F43BC0552339F1533091F038F45130B0
:10060000A9F0523001F584B58F7D12C0573091F0BA
:100610005830A1F05430B9F4809180008F7D03C030
:10062000809180008F77809380000DC084B58F7794
:1006300084BD09C08091B0008F7703C08091B00065
:100640008F7D8093B000F0E0EE0FFF1FEE58FF4F5C
:10065000C591D4918FB7F894E88120FD03C04095EF
:100660004E2301C04E2B48838FBF3595279581E0DF
:10067000AA31B80709F0ADCF0E9487004B015C0199
:1006800084EFC82EDD24D394E12CF12C0E94870046
:10069000DC01CB0188199909AA09BB09883E93405E
:1006A000A105B10558F021E0C21AD108E108F1080E
:1006B00088EE880E83E0981EA11CB11CC114D104E1
:1006C000E104F10419F70E9499017FCFEAE1F1E01A
:1006D0001382128288EE93E0A0E0B0E084839583D9
:1006E000A683B78384E091E09183808385EC90E0DA
:1006F0009587848784EC90E09787868780EC90E0EC
:10070000918B808B81EC90E0938B828B82EC90E0DC
:10071000958B848B86EC90E0978B868B118E128E56
:10072000138E148E0895EE0FFF1F0590F491E02DA7
:10073000099481E090E0F8940C949E03F894FFCF24
:10074000000000003001AC00F900D700EB00770199
:0A0750000C0B0A0908070605040354
:00000001FF
