:100000000C9458000C9480000C9480000C94800098
:100010000C9480000C9480000C9480000C94800060
:100020000C9480000C9480000C9480000C94800050
:100030000C9480000C9480000C9480000C94800040
:100040000C940E040C9480000C9480000C9480009E
:100050000C9480000C9480000C9480000C94800020
:100060000C94E0020C9480000000000025002800A1
:100070002B00040404040404040402020202020229
:10008000030303030303010204081020408001025C
:1000900004081020010204081020000000080002DB
:1000A00001000003040700000000000000005804E5
:1000B00011241FBECFEFD8E0DEBFCDBF11E0A0E01E
:1000C000B1E0E2E1FBE002C005900D92A436B10779
:1000D000D9F722E0A4E6B1E001C01D92A931B20730
:1000E000E1F710E0C8E5D0E004C02197FE010E94CE
:1000F0007C05C735D107C9F70E9478040C948705A1
:100100000C94000090E0FC01E656FF4F2491FC01A6
:10011000EA57FF4F3491FC01EE58FF4FE491EE2374
:10012000B1F1222339F1233091F038F42130A9F0D4
:10013000223001F584B58F7D12C0273091F0283030
:10014000A1F02430B9F4809180008F7D03C08091AC
:1001500080008F77809380000DC084B58F7784BD39
:1001600009C08091B0008F7703C08091B0008F7D6F
:100170008093B000F0E0EE0FFF1FE859FF4FA5910C
:10018000B4918FB7F894EC913E2B3C938FBF0895B8
:1001900085ED8093BC008091BC0084FDFCCF109263
:1001A000DB0108954091B501262F30E0240F311D69
:1001B00021323105DCF42091DB012430C9F4FC014B
:1001C00080E090E0861758F43091B5012191DC0170
:1001D000AD56BE4FA30FB11D2C930196F3CF809166
:1001E000B501680F6093B50180E0089581E008953E
:1001F00082E00895089581E090E03091920120918D
:100200009101321710F480E090E091958195910969
:1002100008958091920190919101891730F48F5F38
:100220008093920180E090E008958FEF9FEF089512
:100230008091910190E020919201821B9109089593
:10024000CF92DF92EF92FF920F931F93CF93DF93A2
:100250007C01262F972F8A0180919001882391F0AD
:10026000C62FD72F6E01C40ED51ECC15DD0571F03B
:100270006991D701ED91FC910190F081E02DC701CA
:100280000995F3CF642F822F0E94D200C801DF911D
:10029000CF911F910F91FF90EF90DF90CF90089535
:1002A000CF93DF931F92CDB7DEB769832091900182
:1002B0002223D1F020918F01203240F021E030E064
:1002C000FC013383228380E090E015C080918E0191
:1002D000E82FF0E0E259FE4F998190838F5F809381
:1002E0008E0180938F0105C061E0CE0101960E94CE
:1002F000D20081E090E00F90DF91CF9108953FB759
:10030000F89480916A0190916B01A0916C01B09179
:100310006D0126B5A89B05C02F3F19F00196A11DC0
:10032000B11D3FBFBA2FA92F982F8827820F911D8B
:10033000A11DB11DBC01CD0142E0660F771F881FD2
:10034000991F4A95D1F708958F929F92AF92BF92CD
:10035000CF92DF92EF92FF926B017C010E947F01AE
:100360004B015C01C114D104E104F104F1F00E94DD
:100370007F01DC01CB0188199909AA09BB09883ED4
:100380009340A105B10570F321E0C21AD108E1083C
:10039000F10888EE880E83E0981EA11CB11CC114E0
:1003A000D104E104F10419F7DDCFFF90EF90DF9065
:1003B000CF90BF90AF909F908F900895CF92DF9293
:1003C000EF92FF920F931F93CF93DF936C017A010B
:1003D0008B01C0E0D0E0CE15DF0589F0D8016D912A
:1003E0008D01D601ED91FC910190F081E02DC601C7
:1003F0000995892B11F47E0102C02196ECCFC7012B
:10040000DF91CF911F910F91FF90EF90DF90CF90F0
:100410000895CF93FC01C48121E020939001C09303
:10042000640110928E0110928F018385682B81E008
:1004300092E00E94500180918F01813208F046C005
:100440009091DB019111FCCF92E09093DB0191E060
:100450009093DD019FEF9093DA011092FF0180935A
:10046000FE01AEE6B1E02EED31E0F9019E2F921BC8
:10047000981718F49D919193F9CF109200028091F2
:100480000002CC0FC82BC09300028091DC018130A8
:1004900061F41092DC01809100028093BB00809196
:1004A000BC0083FDF8CF85EC01C085EE8093BC00D5
:1004B0008091DB018230E1F38091DA018F3F31F0EE
:1004C0008091DA01803211F08091DA0110928E0170
:1004D00010928F0110929001CF9108950F931F9366
:1004E000CF938C01C62F0E9409026C2F6460C80153
:1004F0000E9409026C2F6B7FC8010E94090283ECE5
:1005000090E00197F1F7CF911F910F910895FF921D
:100510000F931F93CF93DF931F92CDB7DEB78C015C
:10052000F62E962F907F692F642BC80149830E9475
:100530006E0280E1F89EB00111244981642BC8014C
:100540000F90DF91CF911F910F91FF900C946E024D
:10055000CF93DF93CDB7DEB728970FB6F894DEBF01
:100560000FBECDBF28E0E0E0F1E0DE011196019082
:100570000D922A95E1F720911502261710F46FEFDE
:10058000620FFE013196E60FF11DE60FF11D90811D
:10059000682F690F606840E08DE092E028960FB602
:1005A000F894DEBF0FBECDBFDF91CF910C948702D0
:1005B00041E00E94870281E090E008950E94820558
:1005C0001F920F920FB60F9211242F933F934F93C8
:1005D0005F936F937F938F939F93AF93BF93EF93AB
:1005E000FF938091B900887F803609F49CC068F53C
:1005F000883209F45BC090F4803109F454C038F4B7
:10060000882309F4F6C0883009F44DC0F6C088315B
:1006100009F44CC0803209F45DC0EFC0803409F4A5
:1006200068C048F4803309F455C0883309F0E5C048
:100630008093DA01D8C0803509F44FC0883509F4B9
:100640005DC0883409F0D9C0D6C0883909F4C7C064
:10065000A8F4883709F467C038F4883609F463C011
:10066000803709F460C0C9C0883809F4B8C080393F
:1006700009F45FC0803809F0C0C05BC0803B09F45A
:1006800086C038F4803A09F466C0883A09F47FC01D
:10069000B4C0803C09F4A7C0883C09F4A4C0883BDE
:1006A00009F48AC0AAC08091000210C09091FF0195
:1006B0008091FE01981770F5E091FF0181E08E0FA7
:1006C0008093FF01F0E0E252FE4F80818093BB00F7
:1006D00085EC86C08093DA018EC0E091FF0181E055
:1006E0008E0F8093FF018091BB00F0E0E252FE4F3D
:1006F00080839091FF018091FE016EC0E091FF0127
:1007000081E08E0F8093FF018091BB00F0E0E25208
:10071000FE4F80838091DD0181116DC081E0809367
:10072000DC0184EA61C083E08093DB011092D9018F
:10073000CFCF8091D901803208F051C0E091D9012A
:1007400081E08E0F8093D9018091BB00F0E0E754E7
:10075000FE4F8083BDCF85EC8093BC001092DB01FF
:100760008091D901803230F4E091D901F0E0E75472
:10077000FE4F10826091D90170E0E091B701F091D5
:10078000B80189EB91E009951092D90136C084E057
:100790008093DB011092B6011092B501E091B30194
:1007A000F091B40109958091B501811105C081E0F6
:1007B0008093B50110929301E091B60181E08E0F14
:1007C0008093B601F0E0ED56FE4F80818093BB0030
:1007D0009091B6018091B501981708F479CF85E81A
:1007E0008093BC000AC085EC8093BC001092DB01B2
:1007F00004C01092DA010E94C800FF91EF91BF91EE
:10080000AF919F918F917F916F915F914F913F91A8
:100810002F910F900FBE0F901F9018951F920F925F
:100820000FB60F9211242F933F938F939F93AF9303
:10083000BF938091660190916701A0916801B0918A
:1008400069013091650123E0230F2D3720F40196D3
:10085000A11DB11D05C026E8230F0296A11DB11DE3
:10086000209365018093660190936701A0936801CE
:10087000B093690180916A0190916B01A0916C0124
:10088000B0916D010196A11DB11D80936A019093F5
:100890006B01A0936C01B0936D01BF91AF919F91DB
:1008A0008F913F912F910F900FBE0F901F90189531
:1008B000E1E0F2E01382128288EE93E0A0E0B0E083
:1008C00084839583A683B7838CE091E091838083B2
:1008D000EDE0F2E0138212828CE191E0918380835B
:1008E00087E2848380E1818782E08287138608958E
:1008F000789484B5826084BD84B5816084BD85B5FB
:10090000826085BD85B5816085BD80916E00816006
:1009100080936E00109281008091810082608093AC
:1009200081008091810081608093810080918000AE
:100930008160809380008091B10084608093B100D9
:100940008091B00081608093B00080917A008460D3
:1009500080937A0080917A00826080937A008091FF
:100960007A00816080937A0080917A008068809319
:100970007A001092C100109292011092910110928F
:100980008E0110928F011092DB0181E08093DD01D6
:100990001092DC0182E10E94820083E10E948200C9
:1009A0008091B9008E7F8093B9008091B9008D7FCE
:1009B0008093B90088E48093B80085E48093BC00FC
:1009C0001092120280911702823018F098E09093F2
:1009D00012028093150262E370E080E090E00E94D2
:1009E000A401609118028DE092E00E94090268EE75
:1009F00073E080E090E00E94A40160E38DE092E06B
:100A00000E946E02CBE4D6E4CE010197F1F760E3D9
:100A10008DE092E00E946E022197F1F760E38DE095
:100A200092E00E946E0283E592E00197F1F760E2A6
:100A30008DE092E00E946E0260911202606240E0DE
:100A40008DE092E00E94870284E08093130240E0F0
:100A50006CE08DE092E00E94870240E061E08DE072
:100A600092E00E948702CBE3DFE1CE010197F1F72C
:100A700082E08093140240E066E08DE092E00E9404
:100A8000870240E062E08DE092E00E9487022197B9
:100A9000F1F788E08093180260E08DE092E00E9418
:100AA000090260E08AE00E94A8024BE150E060E2A7
:100AB00071E08DE092E00E94DE0161E084E00E943E
:100AC000A80246E250E06CE371E08DE092E00E9403
:100AD000DE01C0E0D0E040E068E18DE092E00E94FD
:100AE000870264EF71E080E090E00E94A40120970B
:100AF00091F30E940000EFCFEE0FFF1F0590F491DD
:100B0000E02D099481E090E0F8940C948705F89426
:020B1000FFCF15
:100B120000004000140054000000000050012001B9
:100B220018010901FB00FA0000000000D802DE01F2
:100B32005757572E4E41594C414D504D4543484110
:100B420054524F4E4943532E434F4D005475746FC8
:100B52007269616C204C43442C2054657374206488
:100B62006520646573706C617A616D69656E746F1E
:040B7200202000003F
:00000001FF
