:100000000C945D000C9485000C9485000C94850084
:100010000C9485000C9485000C9485000C9485004C
:100020000C9485000C9485000C9485000C943B0482
:100030000C9485000C9485000C9485000C9485002C
:100040000C9499030C9485000C9409040C94E3031C
:100050000C9485000C9485000C9485000C9485000C
:100060000C9485000C9485000000000024002700FB
:100070002A0000000000250028002B0004040404CE
:100080000404040402020202020203030303030342
:10009000010204081020408001020408102001021F
:1000A00004081020000000080002010000030407FB
:1000B0000000000000000000FC0411241FBECFEF70
:1000C000D8E0DEBFCDBF11E0A0E0B1E0E6E3FEE0A6
:1000D00002C005900D92A832B107D9F722E0A8E23C
:1000E000B1E001C01D92A932B207E1F710E0CDE501
:1000F000D0E004C02197FE010E940E07CC35D10745
:10010000C9F70E9434050C9419070C94000090E084
:10011000FC01EC55FF4F3491FC01E057FF4F249157
:10012000FC01E458FF4FE491EE2309F43BC0332374
:1001300039F1333091F038F43130A9F0323001F533
:1001400084B58F7D12C0373091F03830A1F0343053
:10015000B9F4809180008F7D03C0809180008F77FB
:10016000809380000DC084B58F7784BD09C08091D5
:10017000B0008F7703C08091B0008F7D8093B00076
:10018000F0E0EE0FFF1FEE58FF4FA591B4918FB72F
:10019000F894EC91611103C020952E2301C02E2B01
:1001A0002C938FBF08958E3008F08E508770806436
:1001B00080937C0080917A00806480937A008091A3
:1001C0007A0086FDFCCF809178002091790090E044
:1001D000922B08953FB7F89480917F019091800110
:1001E000A0918101B091820126B5A89B05C02F3F47
:1001F00019F00196A11DB11D3FBFBA2FA92F982F4D
:100200008827820F911DA11DB11DBC01CD0142E0C7
:10021000660F771F881F991F4A95D1F70895CF92CF
:10022000DF92EF92FF920F931F93CF93DF936C01B6
:100230007A018B01C0E0D0E0CE15DF0589F0D8014E
:100240006D918D01D601ED91FC910190F081E02D31
:10025000C6010995892B11F47E0102C02196ECCFCD
:10026000C701DF91CF911F910F91FF90EF90DF9029
:10027000CF900895FC01918D828D981761F0828D49
:10028000DF01A80FB11D5D968C91928D9F5F9F73CA
:10029000928F90E008958FEF9FEF0895FC01918D6C
:1002A000828D981731F0828DE80FF11D858D90E0D9
:1002B00008958FEF9FEF0895FC01918D228D892F76
:1002C00090E0805C9F4F821B91098F73992708955E
:1002D00083E891E00E945C0121E0892B09F420E091
:1002E000822F0895FC01848DDF01A80FB11DA35A50
:1002F000BF4F2C91848D90E001968F739927848F46
:10030000A689B7892C93A089B1898C9180648C933C
:10031000938D848D981306C00288F389E02D808127
:100320008F7D80830895EF92FF920F931F93CF9359
:10033000DF93EC0181E0888F9B8D8C8D981305C035
:10034000E889F989808185FD24C0F62E0B8D10E0A7
:100350000F5F1F4F0F731127E02E8C8DE8120CC01A
:100360000FB607FCFACFE889F989808185FFF5CFC0
:10037000CE010E947201F1CF8B8DFE01E80FF11DBD
:10038000E35AFF4FF0820B8FEA89FB8980818062FC
:1003900007C0EE89FF896083E889F98980818064DC
:1003A000808381E090E0DF91CF911F910F91FF90CA
:1003B000EF900895CF93DF93EC01888D8823C9F0E7
:1003C000EA89FB89808185FD05C0A889B9898C915E
:1003D00086FD0FC00FB607FCF5CF808185FFF2CFF9
:1003E000A889B9898C9185FFEDCFCE010E94720159
:1003F000E7CFDF91CF91089580E090E0892B29F03D
:100400000E94680181110C9400000895CF92DF9240
:10041000EF92FF92CF93DF93EC01603282E0780796
:100420000CF03DC077FD06C0653B71052CF064EB18
:1004300070E002C060E070E0898128E830E0690186
:10044000C81AD10887FDD394CC0CDD1CCC0CDD1C64
:100450000D2C000CEE08FF088A8128E532E0281BED
:10046000310987FD3395220F331F220F331FC90136
:10047000330FAA0BBB0B9C01AD012C193D094E0992
:100480005F09DB010E949A0624EB30E040E050E077
:100490000E947006C20ED31EE41EF51EB6018881AE
:1004A0008C3080F5998148E850E0491B510997FD4F
:1004B0005395440F551F440F551F6417750784F05B
:1004C0009A8128E532E0291B310997FD3395220FE7
:1004D000331F220F331FAB01261737070CF4A90176
:1004E00042505109440F551F2FB7F89490E0FC017A
:1004F000EE0FFF1F8E0F9F1FFC01E65DFE4F528324
:1005000041832FBFDF91CF91FF90EF90DF90CF908D
:100510000895CF93DF93DC018C918C3008F06DC08F
:100520009B013327F901E057FF4F8491F901E4580B
:10053000FF4F2491222399F030E0220F331FF9015D
:10054000E859FF4FC591D491F901EE58FF4F25911D
:1005500034919FB7F894E881E82BE8839FBF8C9192
:10056000E82FF0E09F01220F331FE20FF31FE65D3B
:10057000FE4F6F739081907C692B608311961C9263
:10058000119712961C9212976CE00E94D3069CE081
:10059000899FB001112440E050E09A01260F371FD7
:1005A000F901EE0FFF1F2E0F3F1FF901E65DFE4F11
:1005B000908196FD16C04F5F5F4F4C30510569F733
:1005C00081110FC01092800082E080938100109210
:1005D000850010928400B19A80916F0082608093B0
:1005E0006F00EC91F0E0CF01880F991FE80FF91F21
:1005F000E65DFE4F8081806480838C91DF91CF9196
:100600000895FC01909129019C30A0F481E0890FAC
:10061000809329019083892F90E0FC01EE0FFF1F4A
:100620008E0F9F1FFC01E65DFE4F88EB9BE09283DF
:10063000818308958FEF80830895009769F0FC010E
:1006400001900020E9F73197AF01481B590BBC011D
:1006500083E891E00C940F0180E090E008958F9280
:100660009F92AF92BF920F931F93CF93DF93CDB71B
:10067000DEB7A1970FB6F894DEBF0FBECDBF19A2AB
:10068000423008F44AE08E010F5D1F4F842E912CFA
:10069000A12CB12CA50194010E94A206E62FB9015C
:1006A000CA0101501109EA3014F4E05D01C0E95CAF
:1006B000D801EC93232B242B252B61F7C8010E9432
:1006C0001D03A1960FB6F894DEBF0FBECDBFDF911C
:1006D000CF911F910F91BF90AF909F908F900895F1
:1006E000CF92DF92EF92FF92CF93DF936B017C0169
:1006F000E0918301F09184010190F081E02D6DE2A1
:1007000083E891E00995EC0166277727CB016C1906
:100710007D098E099F094AE00E942F038C0F9D1FBF
:10072000DF91CF91FF90EF90DF90CF9008950E94DE
:1007300014071F920F920FB60F9211242F933F931D
:100740008F939F93AF93BF9380917B0190917C0196
:10075000A0917D01B0917E0130917A0123E0230FB9
:100760002D3720F40196A11DB11D05C026E8230FE9
:100770000296A11DB11D20937A0180937B01909375
:100780007C01A0937D01B0937E0180917F019091C7
:100790008001A0918101B09182010196A11DB11D3E
:1007A00080937F0190938001A0938101B093820197
:1007B000BF91AF919F918F913F912F910F900FBE5D
:1007C0000F901F9018951F920F920FB60F92112441
:1007D0002F933F934F935F936F937F938F939F9349
:1007E000AF93BF93EF93FF9383E891E00E94720170
:1007F000FF91EF91BF91AF919F918F917F916F91F9
:100800005F914F913F912F910F900FBE0F901F90CE
:1008100018951F920F920FB60F9211242F938F935A
:100820009F93EF93FF93E0919301F0919401808166
:10083000E0919901F0919A0182FD12C0908180911E
:100840009C018F5F8F7320919D01821751F0E09181
:100850009C01F0E0ED57FE4F958F80939C0101C005
:100860008081FF91EF919F918F912F910F900FBEFB
:100870000F901F9018951F920F920FB60F92112490
:100880002F933F934F935F936F937F938F939F9398
:10089000AF93BF93EF93FF938091280187FF05C02B
:1008A00010928500109284001BC020912801022E16
:1008B000000C330B8091290190E02817390784F44C
:1008C00080912801082E000C990BFC01EE0FFF1FF0
:1008D0008E0F9F1FFC01E65DFE4F808186FD15C0D7
:1008E000809128018F5F8093280120912801022E9A
:1008F000000C330B8091290190E028173907C4F4CC
:10090000809128018C3064F113C080912801082E59
:10091000000C990BFC01EE0FFF1F8E0F9F1FFC01B7
:10092000E65DFE4F808160E08F730E948700D8CF24
:100930008091840090918500049680349C4918F43D
:1009400080E49CE905C08091840090918500049624
:1009500090938900809388008FEF809328013BC09B
:10096000209184003091850080912801082E000C90
:10097000990BFC01EE0FFF1F8E0F9F1FFC01E65D20
:10098000FE4F81819281820F931F90938900809303
:10099000880080912801082E000C990BFC01EE0FB5
:1009A000FF1F8E0F9F1FFC01E65DFE4F808186FFBB
:1009B00012C080912801082E000C990BFC01EE0F4B
:1009C000FF1F8E0F9F1FFC01E65DFE4F808161E0DF
:1009D0008F730E948700FF91EF91BF91AF919F911C
:1009E0008F917F916F915F914F913F912F910F90D8
:1009F0000FBE0F901F901895E3E8F1E0138212826A
:100A000088EE93E0A0E0B0E084839583A683B7836B
:100A100086E091E09183808385EC90E095878487E0
:100A200084EC90E09787868780EC90E0918B808BB8
:100A300081EC90E0938B828B82EC90E0958B848BA1
:100A400086EC90E0978B868B118E128E138E148E0F
:100A500086E292E00E94010383E292E00E94010399
:100A600080E292E00C940103789484B5826084BDA6
:100A700084B5816084BD85B5826085BD85B58160A2
:100A800085BD80916E00816080936E001092810020
:100A900080918100826080938100809181008160DB
:100AA000809381008091800081608093800080919C
:100AB000B10084608093B1008091B0008160809328
:100AC000B00080917A00846080937A0080917A00EF
:100AD000826080937A0080917A00816080937A00AE
:100AE00080917A00806880937A001092C1006AE059
:100AF00070E086E292E00E94890269E070E083E2A1
:100B000092E00E948902E0919301F091940182E0C9
:100B10008083E0918F01F09190011082E09191012A
:100B2000F09192018FEC808310929B01E0919701EC
:100B3000F091980186E08083E0919501F091960113
:100B4000808180618083E0919501F09196018081A0
:100B500088608083E0919501F091960180818068A2
:100B60008083E0919501F091960180818F7D808353
:100B700093E3292E312C27ED422E512C612C712C20
:100B800002E511E08EE00E94D300F8018193919379
:100B90008F01C0915001D09151018EE00E94D3008D
:100BA0008C0F9D1F9093510180935001F10131975B
:100BB000F1F7F1E00A371F0729F764E170E00E94BE
:100BC000DF06709351016093500182E191E00E9431
:100BD0001D036091500170915101072E000C880B8C
:100BE000990B97FF03C00E94700303C04AE00E9464
:100BF0002F038BE191E00E941D0360910001709131
:100C00000101072E000C880B990B97FF03C00E946F
:100C1000700303C04AE00E942F0385E291E00E9426
:100C20001D038FE00E94D30023EB30E0DC010E9423
:100C3000F3062FEF33E040E050E00E94700630935F
:100C40004F0120934E01B90183E292E00E94060217
:100C50002091500130915101C901330FAA0BBB0BF8
:100C60009C01AD012D55334041095109A4EBB0E081
:100C70000E948F06A30192010E9470063093010129
:100C800020930001B90186E292E00E9406020E94D0
:100C9000EA004B015C018FE0C82ED12CE12CF12C35
:100CA0000E94EA00DC01CB0188199909AA09BB0955
:100CB000883E9340A105B10558F021E0C21AD10841
:100CC000E108F10888EE880E83E0981EA11CB11C93
:100CD000C114D104E104F10419F70E94FC0150CFC2
:100CE000052E97FB1EF400940E94870657FD07D03F
:100CF0000E94A20607FC03D04EF40C948706509580
:100D00004095309521953F4F4F4F5F4F08959095F7
:100D10008095709561957F4F8F4F9F4F08950E94EA
:100D2000C406A59F900DB49F900DA49F800D911DAA
:100D300011240895B7FF0C948F060E948F06821B22
:100D4000930B0895A1E21A2EAA1BBB1BFD010DC037
:100D5000AA1FBB1FEE1FFF1FA217B307E407F5076B
:100D600020F0A21BB30BE40BF50B661F771F881F47
:100D7000991F1A9469F760957095809590959B01DD
:100D8000AC01BD01CF010895A29FB001B39FC00186
:100D9000A39F700D811D1124911DB29F700D811DA7
:100DA0001124911D0895991B79E004C0991F96178D
:100DB00008F0961B881F7A95C9F78095089597FBD0
:100DC000072E16F4009407D077FD09D00E94FA068A
:100DD00007FC05D03EF4909581959F4F089570953E
:100DE00061957F4F08950E94C406B7FF0895821B46
:100DF000930B0895AA1BBB1B51E107C0AA1FBB1F81
:100E0000A617B70710F0A61BB70B881F991F5A9596
:100E1000A9F780959095BC01CD010895EE0FFF1FB5
:100E20000590F491E02D099481E090E0F8940C9401
:060E30001907F894FFCF42
:100E36005A000000000093010F015C013A014E01C7
:100E4600DA0173656E736F723A2000202073657243
:080E5600766F3A20000D0A003E
:00000001FF
